{
  "contractName": "OnBoarding",
  "abi": [
    {
      "inputs": [
        {
          "internalType": "address",
          "name": "_user",
          "type": "address"
        }
      ],
      "stateMutability": "nonpayable",
      "type": "constructor"
    },
    {
      "anonymous": false,
      "inputs": [
        {
          "indexed": false,
          "internalType": "address",
          "name": "player_address",
          "type": "address"
        },
        {
          "indexed": false,
          "internalType": "bool",
          "name": "status",
          "type": "bool"
        }
      ],
      "name": "newPrinterAddition",
      "type": "event"
    },
    {
      "inputs": [
        {
          "internalType": "address",
          "name": "printerAddress",
          "type": "address"
        },
        {
          "internalType": "bytes32",
          "name": "name",
          "type": "bytes32"
        },
        {
          "internalType": "enum MaterialType[]",
          "name": "suppertedMaterial",
          "type": "uint8[]"
        },
        {
          "internalType": "uint256[]",
          "name": "nozzles",
          "type": "uint256[]"
        },
        {
          "internalType": "uint256",
          "name": "nozzlesMounted",
          "type": "uint256"
        },
        {
          "internalType": "uint256",
          "name": "printTemperature",
          "type": "uint256"
        },
        {
          "internalType": "uint256",
          "name": "bedTemperature",
          "type": "uint256"
        },
        {
          "internalType": "uint256",
          "name": "volume",
          "type": "uint256"
        },
        {
          "internalType": "bool",
          "name": "soluble",
          "type": "bool"
        },
        {
          "internalType": "bool",
          "name": "foodSafety",
          "type": "bool"
        }
      ],
      "name": "addPrinter",
      "outputs": [],
      "stateMutability": "payable",
      "type": "function",
      "payable": true
    },
    {
      "inputs": [],
      "name": "getMakerPrinters",
      "outputs": [
        {
          "components": [
            {
              "internalType": "bytes32",
              "name": "name",
              "type": "bytes32"
            },
            {
              "internalType": "enum MaterialType[]",
              "name": "supportedMaterial",
              "type": "uint8[]"
            },
            {
              "components": [
                {
                  "internalType": "bytes32",
                  "name": "name",
                  "type": "bytes32"
                },
                {
                  "internalType": "enum MaterialType",
                  "name": "mType",
                  "type": "uint8"
                },
                {
                  "internalType": "enum MaterialColor",
                  "name": "color",
                  "type": "uint8"
                },
                {
                  "internalType": "uint256",
                  "name": "quantityKG",
                  "type": "uint256"
                },
                {
                  "internalType": "uint256",
                  "name": "printTemperature",
                  "type": "uint256"
                },
                {
                  "internalType": "uint256",
                  "name": "bedTemperature",
                  "type": "uint256"
                }
              ],
              "internalType": "struct MaterialDetails",
              "name": "mountedMaterial",
              "type": "tuple"
            },
            {
              "internalType": "uint256[]",
              "name": "nozzles",
              "type": "uint256[]"
            },
            {
              "internalType": "uint256",
              "name": "mountedNozzles",
              "type": "uint256"
            },
            {
              "internalType": "uint256",
              "name": "maxPrintTemperature",
              "type": "uint256"
            },
            {
              "internalType": "uint256",
              "name": "maxBedTemperature",
              "type": "uint256"
            },
            {
              "internalType": "uint256",
              "name": "volume",
              "type": "uint256"
            },
            {
              "internalType": "bool",
              "name": "soluble",
              "type": "bool"
            },
            {
              "internalType": "bool",
              "name": "foodSafety",
              "type": "bool"
            },
            {
              "internalType": "bool",
              "name": "avaiable",
              "type": "bool"
            }
          ],
          "internalType": "struct Printer[]",
          "name": "mprinters",
          "type": "tuple[]"
        }
      ],
      "stateMutability": "view",
      "type": "function",
      "constant": true
    },
    {
      "inputs": [
        {
          "internalType": "uint256",
          "name": "index",
          "type": "uint256"
        }
      ],
      "name": "getMakerPrinter",
      "outputs": [
        {
          "components": [
            {
              "internalType": "bytes32",
              "name": "name",
              "type": "bytes32"
            },
            {
              "internalType": "enum MaterialType[]",
              "name": "supportedMaterial",
              "type": "uint8[]"
            },
            {
              "components": [
                {
                  "internalType": "bytes32",
                  "name": "name",
                  "type": "bytes32"
                },
                {
                  "internalType": "enum MaterialType",
                  "name": "mType",
                  "type": "uint8"
                },
                {
                  "internalType": "enum MaterialColor",
                  "name": "color",
                  "type": "uint8"
                },
                {
                  "internalType": "uint256",
                  "name": "quantityKG",
                  "type": "uint256"
                },
                {
                  "internalType": "uint256",
                  "name": "printTemperature",
                  "type": "uint256"
                },
                {
                  "internalType": "uint256",
                  "name": "bedTemperature",
                  "type": "uint256"
                }
              ],
              "internalType": "struct MaterialDetails",
              "name": "mountedMaterial",
              "type": "tuple"
            },
            {
              "internalType": "uint256[]",
              "name": "nozzles",
              "type": "uint256[]"
            },
            {
              "internalType": "uint256",
              "name": "mountedNozzles",
              "type": "uint256"
            },
            {
              "internalType": "uint256",
              "name": "maxPrintTemperature",
              "type": "uint256"
            },
            {
              "internalType": "uint256",
              "name": "maxBedTemperature",
              "type": "uint256"
            },
            {
              "internalType": "uint256",
              "name": "volume",
              "type": "uint256"
            },
            {
              "internalType": "bool",
              "name": "soluble",
              "type": "bool"
            },
            {
              "internalType": "bool",
              "name": "foodSafety",
              "type": "bool"
            },
            {
              "internalType": "bool",
              "name": "avaiable",
              "type": "bool"
            }
          ],
          "internalType": "struct Printer",
          "name": "myPrinter",
          "type": "tuple"
        }
      ],
      "stateMutability": "view",
      "type": "function",
      "constant": true
    },
    {
      "inputs": [],
      "name": "getMakerNPrinters",
      "outputs": [
        {
          "internalType": "uint256",
          "name": "Nprinters",
          "type": "uint256"
        }
      ],
      "stateMutability": "view",
      "type": "function",
      "constant": true
    },
    {
      "inputs": [
        {
          "internalType": "bytes32",
          "name": "name",
          "type": "bytes32"
        }
      ],
      "name": "checkMaterial",
      "outputs": [
        {
          "internalType": "bool",
          "name": "",
          "type": "bool"
        }
      ],
      "stateMutability": "view",
      "type": "function",
      "constant": true
    },
    {
      "inputs": [
        {
          "internalType": "bytes32",
          "name": "name",
          "type": "bytes32"
        },
        {
          "internalType": "enum MaterialType",
          "name": "mType",
          "type": "uint8"
        },
        {
          "internalType": "enum MaterialColor",
          "name": "mColor",
          "type": "uint8"
        },
        {
          "internalType": "uint256",
          "name": "quantityKG",
          "type": "uint256"
        },
        {
          "internalType": "uint256",
          "name": "printTemp",
          "type": "uint256"
        },
        {
          "internalType": "uint256",
          "name": "bedTemp",
          "type": "uint256"
        }
      ],
      "name": "addMaterials",
      "outputs": [],
      "stateMutability": "payable",
      "type": "function",
      "payable": true
    },
    {
      "inputs": [],
      "name": "getMaterialsName",
      "outputs": [
        {
          "internalType": "bytes32[]",
          "name": "mats",
          "type": "bytes32[]"
        }
      ],
      "stateMutability": "view",
      "type": "function",
      "constant": true
    },
    {
      "inputs": [
        {
          "internalType": "uint256",
          "name": "index",
          "type": "uint256"
        },
        {
          "internalType": "bool",
          "name": "soluble",
          "type": "bool"
        },
        {
          "internalType": "bool",
          "name": "foodSafety",
          "type": "bool"
        },
        {
          "internalType": "uint256",
          "name": "mountedNozzles",
          "type": "uint256"
        }
      ],
      "name": "ModifyPrinter",
      "outputs": [],
      "stateMutability": "payable",
      "type": "function",
      "payable": true
    },
    {
      "inputs": [],
      "name": "getMaterials",
      "outputs": [
        {
          "components": [
            {
              "internalType": "bytes32",
              "name": "name",
              "type": "bytes32"
            },
            {
              "internalType": "enum MaterialType",
              "name": "mType",
              "type": "uint8"
            },
            {
              "internalType": "enum MaterialColor",
              "name": "color",
              "type": "uint8"
            },
            {
              "internalType": "uint256",
              "name": "quantityKG",
              "type": "uint256"
            },
            {
              "internalType": "uint256",
              "name": "printTemperature",
              "type": "uint256"
            },
            {
              "internalType": "uint256",
              "name": "bedTemperature",
              "type": "uint256"
            }
          ],
          "internalType": "struct MaterialDetails[]",
          "name": "av_materials",
          "type": "tuple[]"
        }
      ],
      "stateMutability": "view",
      "type": "function",
      "constant": true
    },
    {
      "inputs": [
        {
          "internalType": "bytes32",
          "name": "name",
          "type": "bytes32"
        },
        {
          "internalType": "enum MaterialType",
          "name": "mType",
          "type": "uint8"
        },
        {
          "internalType": "enum MaterialColor",
          "name": "mColor",
          "type": "uint8"
        },
        {
          "internalType": "uint256",
          "name": "quantityKG",
          "type": "uint256"
        },
        {
          "internalType": "uint256",
          "name": "printTemp",
          "type": "uint256"
        },
        {
          "internalType": "uint256",
          "name": "bedTemp",
          "type": "uint256"
        }
      ],
      "name": "updateMaterial",
      "outputs": [],
      "stateMutability": "payable",
      "type": "function",
      "payable": true
    },
    {
      "inputs": [
        {
          "internalType": "bytes32",
          "name": "name",
          "type": "bytes32"
        }
      ],
      "name": "getMaterial",
      "outputs": [
        {
          "components": [
            {
              "internalType": "bytes32",
              "name": "name",
              "type": "bytes32"
            },
            {
              "internalType": "enum MaterialType",
              "name": "mType",
              "type": "uint8"
            },
            {
              "internalType": "enum MaterialColor",
              "name": "color",
              "type": "uint8"
            },
            {
              "internalType": "uint256",
              "name": "quantityKG",
              "type": "uint256"
            },
            {
              "internalType": "uint256",
              "name": "printTemperature",
              "type": "uint256"
            },
            {
              "internalType": "uint256",
              "name": "bedTemperature",
              "type": "uint256"
            }
          ],
          "internalType": "struct MaterialDetails",
          "name": "myMaterial",
          "type": "tuple"
        }
      ],
      "stateMutability": "view",
      "type": "function",
      "constant": true
    },
    {
      "inputs": [
        {
          "internalType": "bytes32",
          "name": "name",
          "type": "bytes32"
        },
        {
          "internalType": "enum MaterialType",
          "name": "mType",
          "type": "uint8"
        }
      ],
      "name": "removeMaterial",
      "outputs": [],
      "stateMutability": "payable",
      "type": "function",
      "payable": true
    },
    {
      "inputs": [
        {
          "internalType": "bytes32",
          "name": "name",
          "type": "bytes32"
        },
        {
          "internalType": "enum MaterialType",
          "name": "mType",
          "type": "uint8"
        },
        {
          "internalType": "uint256",
          "name": "printer",
          "type": "uint256"
        }
      ],
      "name": "mountMaterial",
      "outputs": [],
      "stateMutability": "payable",
      "type": "function",
      "payable": true
    },
    {
      "inputs": [
        {
          "internalType": "uint256",
          "name": "index",
          "type": "uint256"
        }
      ],
      "name": "RemovePrinter",
      "outputs": [],
      "stateMutability": "payable",
      "type": "function",
      "payable": true
    }
  ],
  "bytecode": "0x6101406040526000608081905260a081905260c081905260e08190526101008190526101208190528080556001805461ffff19169055600281905560038190556004553480156200004f57600080fd5b50604051620033c8380380620033c8833981016040819052620000729162000098565b600a80546001600160a01b0319166001600160a01b0392909216919091179055620000ca565b600060208284031215620000ab57600080fd5b81516001600160a01b0381168114620000c357600080fd5b9392505050565b6132ee80620000da6000396000f3fe6080604052600436106100dd5760003560e01c80635582e5431161007f57806380dfedcd1161005957806380dfedcd146101f2578063a6bc773814610214578063a901c12614610227578063b0980fdf1461025457600080fd5b80635582e543146101a95780636b04fb47146101bc5780637be8eb45146101df57600080fd5b806320b83e21116100bb57806320b83e211461013f5780633bdda5e21461016157806351f8162d1461017457806354bf79651461019657600080fd5b80630eb201fe146100e257806315e10e99146101175780631a4f3a071461012c575b600080fd5b3480156100ee57600080fd5b506101026100fd366004612d22565b610281565b60405190151581526020015b60405180910390f35b61012a610125366004612dc5565b6102f0565b005b61012a61013a366004612dfa565b6105fc565b34801561014b57600080fd5b5061015461085a565b60405161010e9190613061565b61012a61016f366004612c36565b610c8d565b34801561018057600080fd5b50610189611188565b60405161010e9190612fdb565b61012a6101a4366004612d67565b6111e9565b61012a6101b7366004612d22565b6114c8565b3480156101c857600080fd5b506101d16116d2565b60405190815260200161010e565b61012a6101ed366004612d67565b61170d565b3480156101fe57600080fd5b50610207611a0e565b60405161010e919061301f565b61012a610222366004612d3b565b611c81565b34801561023357600080fd5b50610247610242366004612d22565b6122dd565b60405161010e9190613173565b34801561026057600080fd5b5061027461026f366004612d22565b6125ff565b60405161010e9190613187565b600080805b336000908152600960205260409020548110156102e9573360009081526009602052604090208054859190839081106102c1576102c161327b565b906000526020600020015414156102d757600191505b806102e18161321e565b915050610286565b5092915050565b600a5460405163e75600c360e01b81523360048201526001600160a01b039091169063e75600c39060240160206040518083038186803b15801561033357600080fd5b505afa158015610347573d6000803e3d6000fd5b505050506040513d601f19601f8201168201806040525081019061036b9190612cfe565b15156001146103c15760405162461bcd60e51b815260206004820181905260248201527f4f6e6c79204d616b65722063616e2064656c657465204d6174657269616c732e60448201526064015b60405180910390fd5b6103ca83610281565b15156001146103eb5760405162461bcd60e51b81526004016103b8906130c3565b60005b336000908152600860205260408120908460028111156104105761041061324f565b60028111156104215761042161324f565b81526020810191909152604001600020548110156105f657336000908152600860205260408120859185600281111561045c5761045c61324f565b600281111561046d5761046d61324f565b8152602001908152602001600020828154811061048c5761048c61327b565b90600052602060002090600502016000015414156105e457336000908152600860205260408120908460028111156104c6576104c661324f565b60028111156104d7576104d761324f565b815260200190815260200160002081815481106104f6576104f661327b565b600091825260208083203384526005808352604080862060079094528520805494909102909101939192869081106105305761053061327b565b60009182526020808320909101546001600160a01b0316835282019290925260400190208154600280830191825560018481015460039094018054939460ff1693909260ff199091169190849081111561058c5761058c61324f565b0217905550600182810154908201805460ff61010093849004169261ff00199091169083600b8111156105c1576105c161324f565b021790555060028281015490820155600380830154908201556004918201549101555b806105ee8161321e565b9150506103ee565b50505050565b600a54604051629c95e160e41b81523360048201526001600160a01b03909116906309c95e109060240160206040518083038186803b15801561063e57600080fd5b505afa158015610652573d6000803e3d6000fd5b505050506040513d601f19601f820116820180604052508101906106769190612cfe565b15156001146106975760405162461bcd60e51b81526004016103b8906130fa565b600a5460405163e75600c360e01b81523360048201526001600160a01b039091169063e75600c39060240160206040518083038186803b1580156106da57600080fd5b505afa1580156106ee573d6000803e3d6000fd5b505050506040513d601f19601f820116820180604052508101906107129190612cfe565b15156001146107335760405162461bcd60e51b81526004016103b890613131565b33600090815260056020908152604080832060079092528220805486939190889081106107625761076261327b565b6000918252602080832091909101546001600160a01b031683528281019390935260409182018120600c01805460ff1916941515949094179093553383526005825280832060079092528220805485939190889081106107c4576107c461327b565b60009182526020808320909101546001600160a01b031683528281019390935260409182018120600c0180549415156101000261ff00199095169490941790935533835260058252808320600790925282208054849391908890811061082c5761082c61327b565b60009182526020808320909101546001600160a01b0316835282019290925260400190206008015550505050565b600a54604051629c95e160e41b81523360048201526060916001600160a01b0316906309c95e109060240160206040518083038186803b15801561089d57600080fd5b505afa1580156108b1573d6000803e3d6000fd5b505050506040513d601f19601f820116820180604052508101906108d59190612cfe565b15156001146108f65760405162461bcd60e51b81526004016103b8906130fa565b600a5460405163e75600c360e01b81523360048201526001600160a01b039091169063e75600c39060240160206040518083038186803b15801561093957600080fd5b505afa15801561094d573d6000803e3d6000fd5b505050506040513d601f19601f820116820180604052508101906109719190612cfe565b15156001146109925760405162461bcd60e51b81526004016103b890613131565b3360009081526007602052604090205467ffffffffffffffff8111156109ba576109ba613291565b6040519080825280602002602001820160405280156109f357816020015b6109e061298b565b8152602001906001900390816109d85790505b50905060005b33600090815260076020526040902054811015610c895733600090815260056020908152604080832060079092528220805491929184908110610a3e57610a3e61327b565b60009182526020808320909101546001600160a01b031683528281019390935260409182019020815161016081018352815481526001820180548451818702810187019095528085529194929385840193909290830182828015610af157602002820191906000526020600020906000905b82829054906101000a900460ff166002811115610acf57610acf61324f565b815260206001928301818104948501949093039092029101808411610ab05790505b50505050508152602001600282016040518060c0016040529081600082015481526020016001820160009054906101000a900460ff166002811115610b3857610b3861324f565b6002811115610b4957610b4961324f565b81526020016001820160019054906101000a900460ff16600b811115610b7157610b7161324f565b600b811115610b8257610b8261324f565b81526020016002820154815260200160038201548152602001600482015481525050815260200160078201805480602002602001604051908101604052809291908181526020018280548015610bf757602002820191906000526020600020905b815481526020019060010190808311610be3575b50505091835250506008820154602082015260098201546040820152600a8201546060820152600b8201546080820152600c9091015460ff808216151560a084015261010082048116151560c08401526201000090910416151560e0909101528251839083908110610c6b57610c6b61327b565b60200260200101819052508080610c819061321e565b9150506109f9565b5090565b600a54604051629c95e160e41b81523360048201526001600160a01b03909116906309c95e109060240160206040518083038186803b158015610ccf57600080fd5b505afa158015610ce3573d6000803e3d6000fd5b505050506040513d601f19601f82011682018060405250810190610d079190612cfe565b1515600114610d285760405162461bcd60e51b81526004016103b8906130fa565b600a5460405163e75600c360e01b81523360048201526001600160a01b039091169063e75600c39060240160206040518083038186803b158015610d6b57600080fd5b505afa158015610d7f573d6000803e3d6000fd5b505050506040513d601f19601f82011682018060405250810190610da39190612cfe565b1515600114610df45760405162461bcd60e51b815260206004820152601c60248201527f4f6e6c79204d616b65722063616e20616464205072696e746572732e0000000060448201526064016103b8565b60408051610160810182528a815260208082018b9052825160c081018452600080548252600154909484019285919083019060ff166002811115610e3a57610e3a61324f565b6002811115610e4b57610e4b61324f565b81526020016001820160019054906101000a900460ff16600b811115610e7357610e7361324f565b600b811115610e8457610e8461324f565b815260200160028201548152602001600382015481526020016004820154815250508152602001898152602001888152602001878152602001868152602001858152602001841515815260200183151581526020016001151581525090508060056000336001600160a01b03166001600160a01b0316815260200190815260200160002060008d6001600160a01b03166001600160a01b03168152602001908152602001600020600082015181600001556020820151816001019080519060200190610f519291906129f0565b5060408201518051600280840191825560208301516003850180549192909160ff1916906001908490811115610f8957610f8961324f565b0217905550604082015160018201805461ff00191661010083600b811115610fb357610fb361324f565b021790555060608281015160028301556080830151600383015560a0909201516004909101558201518051610ff2916007840191602090910190612aa0565b506080820151816008015560a0820151816009015560c082015181600a015560e082015181600b015561010082015181600c0160006101000a81548160ff02191690831515021790555061012082015181600c0160016101000a81548160ff02191690831515021790555061014082015181600c0160026101000a81548160ff021916908315150217905550905050600160066000336001600160a01b03166001600160a01b0316815260200190815260200160002060006101000a81548160ff02191690831515021790555060076000336001600160a01b03166001600160a01b031681526020019081526020016000208b9080600181540180825580915050600190039060005260206000200160009091909190916101000a8154816001600160a01b0302191690836001600160a01b031602179055507f68f1f4a765c80cce6152bba70adcfe422531198b0d733f8555bd9b2f1c0feb443360016040516111739291906001600160a01b039290921682521515602082015260400190565b60405180910390a15050505050505050505050565b336000908152600960209081526040918290208054835181840281018401909452808452606093928301828280156111df57602002820191906000526020600020905b8154815260200190600101908083116111cb575b5050505050905090565b600a5460405163e75600c360e01b81523360048201526001600160a01b039091169063e75600c39060240160206040518083038186803b15801561122c57600080fd5b505afa158015611240573d6000803e3d6000fd5b505050506040513d601f19601f820116820180604052508101906112649190612cfe565b15156001146112b55760405162461bcd60e51b815260206004820152601c60248201527f4f6e6c79204d616b65722063616e20616464204d6174657269616c2e0000000060448201526064016103b8565b600084600b8111156112c9576112c961324f565b14156113095760405162461bcd60e51b815260206004820152600f60248201526e10dbdb1bdc881b9bdd081d985b1a59608a1b60448201526064016103b8565b61131286610281565b156113725760405162461bcd60e51b815260206004820152602a60248201527f546865726520697320616c72656164792061206d6174657269616c20776974686044820152692074686973206e616d6560b01b60648201526084016103b8565b60006040518060c001604052808881526020018760028111156113975761139761324f565b815260200186600b8111156113ae576113ae61324f565b815260208082018790526040808301879052606090920185905233600090815260089091529081209192508760028111156113eb576113eb61324f565b60028111156113fc576113fc61324f565b81526020808201929092526040016000908120805460018181018355918352918390208451600590930201918255918301518183018054859460ff199091169083600281111561144e5761144e61324f565b0217905550604082015160018201805461ff00191661010083600b8111156114785761147861324f565b0217905550606082015160028201556080820151600382015560a0909101516004909101555050336000908152600960209081526040822080546001810182559083529120019490945550505050565b600a54604051629c95e160e41b81523360048201526001600160a01b03909116906309c95e109060240160206040518083038186803b15801561150a57600080fd5b505afa15801561151e573d6000803e3d6000fd5b505050506040513d601f19601f820116820180604052508101906115429190612cfe565b15156001146115635760405162461bcd60e51b81526004016103b8906130fa565b600a5460405163e75600c360e01b81523360048201526001600160a01b039091169063e75600c39060240160206040518083038186803b1580156115a657600080fd5b505afa1580156115ba573d6000803e3d6000fd5b505050506040513d601f19601f820116820180604052508101906115de9190612cfe565b15156001146115ff5760405162461bcd60e51b81526004016103b890613131565b336000908152600760205260409020805461161c90600190613207565b8154811061162c5761162c61327b565b60009182526020808320909101543383526007909152604090912080546001600160a01b0390921691839081106116655761166561327b565b600091825260208083209190910180546001600160a01b0319166001600160a01b0394909416939093179092553381526007909152604090208054806116ad576116ad613265565b600082815260209020810160001990810180546001600160a01b031916905501905550565b6000805b33600090815260076020526040902054811015610c8957816116f78161321e565b92505080806117059061321e565b9150506116d6565b600a5460405163e75600c360e01b81523360048201526001600160a01b039091169063e75600c39060240160206040518083038186803b15801561175057600080fd5b505afa158015611764573d6000803e3d6000fd5b505050506040513d601f19601f820116820180604052508101906117889190612cfe565b15156001146117d95760405162461bcd60e51b815260206004820181905260248201527f4f6e6c79204d616b65722063616e20757064617465204d6174657269616c732e60448201526064016103b8565b6117e286610281565b15156001146118035760405162461bcd60e51b81526004016103b8906130c3565b60005b336000908152600860205260408120908760028111156118285761182861324f565b60028111156118395761183961324f565b8152602081019190915260400160002054811015611a055733600090815260086020526040812088918860028111156118745761187461324f565b60028111156118855761188561324f565b815260200190815260200160002082815481106118a4576118a461327b565b90600052602060002090600502016000015414156119f3576040518060c001604052808881526020018760028111156118df576118df61324f565b815260200186600b8111156118f6576118f661324f565b81526020808201879052604080830187905260609092018590523360009081526008909152908120908860028111156119315761193161324f565b60028111156119425761194261324f565b815260200190815260200160002082815481106119615761196161327b565b90600052602060002090600502016000820151816000015560208201518160010160006101000a81548160ff021916908360028111156119a3576119a361324f565b0217905550604082015160018201805461ff00191661010083600b8111156119cd576119cd61324f565b0217905550606082015160028201556080820151600382015560a0909101516004909101555b806119fd8161321e565b915050611806565b50505050505050565b336000908152600860209081526040808320600184529091528082205460028352818320548380529183205460609392611a47916131ef565b611a5191906131ef565b90508067ffffffffffffffff811115611a6c57611a6c613291565b604051908082528060200260200182016040528015611aa557816020015b611a92612adb565b815260200190600190039081611a8a5790505b5091506000805b6003811015611c7b5760005b33600090815260086020526040812090836002811115611ada57611ada61324f565b6002811115611aeb57611aeb61324f565b6002811115611afc57611afc61324f565b8152602081019190915260400160002054811015611c685733600090815260086020526040812090836002811115611b3657611b3661324f565b6002811115611b4757611b4761324f565b6002811115611b5857611b5861324f565b81526020019081526020016000208181548110611b7757611b7761327b565b90600052602060002090600502016040518060c0016040529081600082015481526020016001820160009054906101000a900460ff166002811115611bbe57611bbe61324f565b6002811115611bcf57611bcf61324f565b81526020016001820160019054906101000a900460ff16600b811115611bf757611bf761324f565b600b811115611c0857611c0861324f565b81526020016002820154815260200160038201548152602001600482015481525050858481518110611c3c57611c3c61327b565b60200260200101819052508280611c529061321e565b9350508080611c609061321e565b915050611ab8565b5080611c738161321e565b915050611aac565b50505090565b600a5460405163e75600c360e01b81523360048201526001600160a01b039091169063e75600c39060240160206040518083038186803b158015611cc457600080fd5b505afa158015611cd8573d6000803e3d6000fd5b505050506040513d601f19601f82011682018060405250810190611cfc9190612cfe565b1515600114611d4d5760405162461bcd60e51b815260206004820181905260248201527f4f6e6c79204d616b65722063616e2064656c657465204d6174657269616c732e60448201526064016103b8565b611d5682610281565b1515600114611d775760405162461bcd60e51b81526004016103b8906130c3565b60005b33600090815260086020526040812090836002811115611d9c57611d9c61324f565b6002811115611dad57611dad61324f565b8152602081019190915260400160002054811015612069573360009081526008602052604081208491846002811115611de857611de861324f565b6002811115611df957611df961324f565b81526020019081526020016000208281548110611e1857611e1861327b565b90600052602060002090600502016000015414156120575733600090815260086020526040812090836002811115611e5257611e5261324f565b6002811115611e6357611e6361324f565b8152602080820192909252604090810160009081203382526008909352908120600191856002811115611e9857611e9861324f565b6002811115611ea957611ea961324f565b8152602081019190915260400160002054611ec49190613207565b81548110611ed457611ed461327b565b6000918252602080832033845260089091526040832060059092020191846002811115611f0357611f0361324f565b6002811115611f1457611f1461324f565b81526020019081526020016000208281548110611f3357611f3361327b565b600091825260209091208254600590920201908155600180830154818301805460ff90921692909160ff191690836002811115611f7257611f7261324f565b0217905550600182810154908201805460ff61010093849004169261ff00199091169083600b811115611fa757611fa761324f565b021790555060028281015482820155600380840154908301556004928301549290910191909155336000908152600860205260408120918490811115611fef57611fef61324f565b60028111156120005761200061324f565b815260200190815260200160002080548061201d5761201d613265565b60008281526020812060056000199093019283020181815560018101805461ffff1916905560028101829055600381018290556004015590555b806120618161321e565b915050611d7a565b5060005b3360009081526009602052604090205481101561216c573360009081526009602052604090208054849190839081106120a8576120a861327b565b9060005260206000200154141561215a5733600090815260096020526040902080546120d690600190613207565b815481106120e6576120e661327b565b6000918252602080832090910154338352600990915260409091208054839081106121135761211361327b565b600091825260208083209091019290925533815260099091526040902080548061213f5761213f613265565b6001900381819060005260206000200160009055905561216c565b806121648161321e565b91505061206d565b5060005b336000908152600760205260409020548110156122d85733600090815260056020908152604080832060079092528220805486939190859081106121b6576121b661327b565b60009182526020808320909101546001600160a01b0316835282019290925260400190206002015414156122c657336000908152600560209081526040808320600790925282208054839190859081106122125761221261327b565b60009182526020808320909101546001600160a01b0316835282019290925260400190208154600280830191825560018481015460039094018054939460ff1693909260ff199091169190849081111561226e5761226e61324f565b0217905550600182810154908201805460ff61010093849004169261ff00199091169083600b8111156122a3576122a361324f565b021790555060028281015490820155600380830154908201556004918201549101555b806122d08161321e565b915050612170565b505050565b6122e5612adb565b600a5460405163e75600c360e01b81523360048201526001600160a01b039091169063e75600c39060240160206040518083038186803b15801561232857600080fd5b505afa15801561233c573d6000803e3d6000fd5b505050506040513d601f19601f820116820180604052508101906123609190612cfe565b15156001146123a55760405162461bcd60e51b815260206004820152601160248201527027b832b930ba34b7b7103232b734b2b21760791b60448201526064016103b8565b6123ae82610281565b15156001146123cf5760405162461bcd60e51b81526004016103b8906130c3565b60005b60038110156125f95760005b336000908152600860205260408120908360028111156124005761240061324f565b60028111156124115761241161324f565b60028111156124225761242261324f565b81526020810191909152604001600020548110156125e657336000908152600860205260408120859184600281111561245d5761245d61324f565b600281111561246e5761246e61324f565b600281111561247f5761247f61324f565b8152602001908152602001600020828154811061249e5761249e61327b565b90600052602060002090600502016000015414156125d457336000908152600860205260408120908360028111156124d8576124d861324f565b60028111156124e9576124e961324f565b60028111156124fa576124fa61324f565b815260200190815260200160002081815481106125195761251961327b565b90600052602060002090600502016040518060c0016040529081600082015481526020016001820160009054906101000a900460ff1660028111156125605761256061324f565b60028111156125715761257161324f565b81526020016001820160019054906101000a900460ff16600b8111156125995761259961324f565b600b8111156125aa576125aa61324f565b81526002820154602082015260038201546040820152600490910154606090910152949350505050565b806125de8161321e565b9150506123de565b50806125f18161321e565b9150506123d2565b50919050565b61260761298b565b600a54604051629c95e160e41b81523360048201526001600160a01b03909116906309c95e109060240160206040518083038186803b15801561264957600080fd5b505afa15801561265d573d6000803e3d6000fd5b505050506040513d601f19601f820116820180604052508101906126819190612cfe565b15156001146126a25760405162461bcd60e51b81526004016103b8906130fa565b600a5460405163e75600c360e01b81523360048201526001600160a01b039091169063e75600c39060240160206040518083038186803b1580156126e557600080fd5b505afa1580156126f9573d6000803e3d6000fd5b505050506040513d601f19601f8201168201806040525081019061271d9190612cfe565b151560011461273e5760405162461bcd60e51b81526004016103b890613131565b3360009081526005602090815260408083206007909252822080549192918590811061276c5761276c61327b565b60009182526020808320909101546001600160a01b03168352828101939093526040918201902081516101608101835281548152600182018054845181870281018701909552808552919492938584019390929083018282801561281f57602002820191906000526020600020906000905b82829054906101000a900460ff1660028111156127fd576127fd61324f565b8152602060019283018181049485019490930390920291018084116127de5790505b50505050508152602001600282016040518060c0016040529081600082015481526020016001820160009054906101000a900460ff1660028111156128665761286661324f565b60028111156128775761287761324f565b81526020016001820160019054906101000a900460ff16600b81111561289f5761289f61324f565b600b8111156128b0576128b061324f565b8152602001600282015481526020016003820154815260200160048201548152505081526020016007820180548060200260200160405190810160405280929190818152602001828054801561292557602002820191906000526020600020905b815481526020019060010190808311612911575b50505091835250506008820154602082015260098201546040820152600a8201546060820152600b8201546080820152600c9091015460ff808216151560a084015261010082048116151560c08401526201000090910416151560e09091015292915050565b604080516101608101825260008152606060208201529081016129ac612adb565b815260200160608152602001600081526020016000815260200160008152602001600081526020016000151581526020016000151581526020016000151581525090565b82805482825590600052602060002090601f01602090048101928215612a945791602002820160005b83821115612a6557835183826101000a81548160ff02191690836002811115612a4457612a4461324f565b02179055509260200192600101602081600001049283019260010302612a19565b8015612a925782816101000a81549060ff0219169055600101602081600001049283019260010302612a65565b505b50610c89929150612b12565b828054828255906000526020600020908101928215612a94579160200282015b82811115612a94578251825591602001919060010190612ac0565b6040805160c08101909152600080825260208201908152602001600081526020016000815260200160008152602001600081525090565b5b80821115610c895760008155600101612b13565b80356001600160a01b0381168114612b3e57600080fd5b919050565b600082601f830112612b5457600080fd5b81356020612b69612b64836131cb565b61319a565b80838252828201915082860187848660051b8901011115612b8957600080fd5b60005b85811015612baf57612b9d82612c27565b84529284019290840190600101612b8c565b5090979650505050505050565b600082601f830112612bcd57600080fd5b81356020612bdd612b64836131cb565b80838252828201915082860187848660051b8901011115612bfd57600080fd5b60005b85811015612baf57813584529284019290840190600101612c00565b8035612b3e816132a7565b803560038110612b3e57600080fd5b6000806000806000806000806000806101408b8d031215612c5657600080fd5b612c5f8b612b27565b995060208b0135985060408b013567ffffffffffffffff80821115612c8357600080fd5b612c8f8e838f01612b43565b995060608d0135915080821115612ca557600080fd5b50612cb28d828e01612bbc565b97505060808b0135955060a08b0135945060c08b0135935060e08b01359250612cde6101008c01612c1c565b9150612ced6101208c01612c1c565b90509295989b9194979a5092959850565b600060208284031215612d1057600080fd5b8151612d1b816132a7565b9392505050565b600060208284031215612d3457600080fd5b5035919050565b60008060408385031215612d4e57600080fd5b82359150612d5e60208401612c27565b90509250929050565b60008060008060008060c08789031215612d8057600080fd5b86359550612d9060208801612c27565b94506040870135600c8110612da457600080fd5b959894975094956060810135955060808101359460a0909101359350915050565b600080600060608486031215612dda57600080fd5b83359250612dea60208501612c27565b9150604084013590509250925092565b60008060008060808587031215612e1057600080fd5b843593506020850135612e22816132a7565b92506040850135612e32816132a7565b9396929550929360600135925050565b600081518084526020808501945080840160005b83811015612e7957612e69878351612eb4565b9582019590820190600101612e56565b509495945050505050565b600081518084526020808501945080840160005b83811015612e7957815187529582019590820190600101612e98565b60038110612ec457612ec461324f565b9052565b805182526020810151612ede6020840182612eb4565b506040810151600c8110612ef457612ef461324f565b6040830152606081810151908301526080808201519083015260a090810151910152565b6000610200825184526020830151816020860152612f3882860182612e42565b9150506040830151612f4d6040860182612ec8565b50606083015161010085830381870152612f678383612e84565b925060808501519150610120828188015260a08601519250610140838189015260c087015161016089015260e0870151610180890152828701519350612fb26101a089018515159052565b9086015115156101c08801528501518015156101e08801529150612fd39050565b509392505050565b6020808252825182820181905260009190848201906040850190845b8181101561301357835183529284019291840191600101612ff7565b50909695505050505050565b6020808252825182820181905260009190848201906040850190845b818110156130135761304e838551612ec8565b9284019260c0929092019160010161303b565b6000602080830181845280855180835260408601915060408160051b870101925083870160005b828110156130b657603f198886030184526130a4858351612f18565b94509285019290850190600101613088565b5092979650505050505050565b6020808252601a908201527f4e6f206d6174657269616c20776974682074686973206e616d65000000000000604082015260600190565b60208082526019908201527f506c61796572206e6f7420696e207468652073797374656d2e00000000000000604082015260600190565b60208082526022908201527f4f6e6c79204d616b65722063616e20676574207468656972205072696e746572604082015261399760f11b606082015260800190565b60c081016131818284612ec8565b92915050565b602081526000612d1b6020830184612f18565b604051601f8201601f1916810167ffffffffffffffff811182821017156131c3576131c3613291565b604052919050565b600067ffffffffffffffff8211156131e5576131e5613291565b5060051b60200190565b6000821982111561320257613202613239565b500190565b60008282101561321957613219613239565b500390565b600060001982141561323257613232613239565b5060010190565b634e487b7160e01b600052601160045260246000fd5b634e487b7160e01b600052602160045260246000fd5b634e487b7160e01b600052603160045260246000fd5b634e487b7160e01b600052603260045260246000fd5b634e487b7160e01b600052604160045260246000fd5b80151581146132b557600080fd5b5056fea26469706673582212206a57469b721639e0c5138ad909ce9f83fa1ec4a27447a803bdebbda64d759af164736f6c63430008070033",
  "immutableReferences": {},
  "source": "/*\r\n * @author Pipitone Antonio \r\n * @SPDX-License-Identifier: UNLICENSED\r\n */\r\npragma solidity >=0.4.22 <0.9.0;\r\npragma experimental ABIEncoderV2;\r\n\r\nimport \"./Structs/OnBoardingStructs.sol\";\r\n\r\nabstract contract IUser{\r\n    mapping (address => bool) public isPlayer;\r\n    function isMaker(address adr) virtual public view returns(bool);\r\n}\r\n\r\ncontract OnBoarding {\r\n    //Printer\r\n    MaterialDetails private NONE = MaterialDetails(\"\",MaterialType.ABS,MaterialColor.NONE,0,0,0);\r\n\r\n     //Printers\r\n    mapping (address => mapping(address => Printer)) private printers;\r\n    mapping (address => bool) private isPrinter;\r\n    mapping (address => address[]) private makerPrinters;\r\n\r\n    //Material\r\n    mapping (address => mapping (MaterialType => MaterialDetails[]) ) private materials;\r\n    mapping (address => bytes32[]) private materialsName;\r\n\r\n    event newPrinterAddition(address player_address, bool status);\r\n\r\n    IUser private Iuser;\r\n    constructor(address _user){\r\n        Iuser = IUser(_user);\r\n    }\r\n\r\n\r\n    //Functions Printers\r\n    function addPrinter(\r\n        address printerAddress,\r\n        bytes32 name, \r\n        MaterialType[] memory suppertedMaterial,\r\n        uint256[] memory nozzles,\r\n        uint256 nozzlesMounted, \r\n        uint256 printTemperature, \r\n        uint256 bedTemperature, \r\n        uint256 volume, \r\n        bool soluble,\r\n        bool foodSafety\r\n    ) public payable{\r\n        require( Iuser.isPlayer(msg.sender) == true, \"Player not in the system.\");\r\n        require( Iuser.isMaker(msg.sender) == true, \"Only Maker can add Printers.\");\r\n\r\n        Printer memory newPrinter = Printer(\r\n                                            name,\r\n                                            suppertedMaterial,\r\n                                            NONE, \r\n                                            nozzles, \r\n                                            nozzlesMounted, \r\n                                            printTemperature, \r\n                                            bedTemperature, \r\n                                            volume, \r\n                                            soluble, \r\n                                            foodSafety,\r\n                                            true\r\n                                            );\r\n        printers[msg.sender][printerAddress] = (newPrinter);  \r\n        isPrinter[msg.sender] = true;\r\n        makerPrinters[msg.sender].push(printerAddress);\r\n\r\n\r\n        emit newPrinterAddition(msg.sender, true);\r\n    }\r\n\r\n\r\n\r\n    function getMakerPrinters() \r\n    public view \r\n    returns (Printer[] memory mprinters){\r\n        require( Iuser.isPlayer(msg.sender) == true, \"Player not in the system.\");\r\n        require( Iuser.isMaker(msg.sender) == true, \"Only Maker can get their Printers.\");\r\n        mprinters = new Printer[](makerPrinters[msg.sender].length);\r\n        for (uint i = 0; i < makerPrinters[msg.sender].length; i++) {\r\n            mprinters[i] = printers[msg.sender][makerPrinters[msg.sender][i]];\r\n        }\r\n        return mprinters;\r\n    }\r\n\r\n    function getMakerPrinter(uint256 index)\r\n    public view returns(Printer memory myPrinter)\r\n    {\r\n        require( Iuser.isPlayer(msg.sender) == true, \"Player not in the system.\");\r\n        require( Iuser.isMaker(msg.sender) == true, \"Only Maker can get their Printers.\");\r\n        myPrinter = printers[msg.sender][makerPrinters [msg.sender][index]];\r\n        return myPrinter;\r\n    }\r\n\r\n    function getMakerNPrinters()\r\n    public view\r\n    returns(uint256 Nprinters){\r\n        for (uint i = 0; i < makerPrinters[msg.sender].length; i++) {\r\n            Nprinters++;\r\n        }\r\n        return Nprinters;\r\n    }\r\n\r\n    //Functions Materials\r\n    function checkMaterial(bytes32 name) \r\n    public view returns(bool){\r\n        bool response = false;\r\n        for(uint i = 0; i < materialsName[msg.sender].length; i++ ){\r\n            if (materialsName[msg.sender][i] == name){\r\n                response = true;\r\n            }\r\n        }\r\n        return response;\r\n    }\r\n\r\n    function addMaterials(bytes32 name, MaterialType mType, MaterialColor mColor, uint256 quantityKG, uint256 printTemp, uint256 bedTemp)\r\n    public payable{\r\n        require( Iuser.isMaker(msg.sender) == true, \"Only Maker can add Material.\");\r\n        require(mColor != MaterialColor.NONE, \"Color not valid\");\r\n        require(checkMaterial(name) == false, \"There is already a material with this name\");\r\n        MaterialDetails memory newMaterial = MaterialDetails(name, mType,mColor, quantityKG, printTemp, bedTemp);    \r\n        materials[msg.sender][mType].push(newMaterial);\r\n        materialsName[msg.sender].push(name);\r\n    }\r\n\r\n    function getMaterialsName()\r\n    public view returns (bytes32 [] memory mats){\r\n        return materialsName[msg.sender];\r\n    }\r\n\r\n        function equals(MaterialDetails storage _first,MaterialDetails memory _second) internal view returns (bool) {\r\n        // Just compare the output of hashing all fields packed\r\n        return(keccak256(abi.encodePacked(_first.name, _first.mType,_first.color,_first.quantityKG,_first.printTemperature,_first.bedTemperature)) == keccak256(abi.encodePacked(_second.name, _second.mType,_second.color,_second.quantityKG,_second.printTemperature,_second.bedTemperature)));\r\n    }\r\n\r\n\r\n    function ModifyPrinter(uint256 index, bool soluble,bool foodSafety, uint256 mountedNozzles)\r\n    public payable{\r\n        require( Iuser.isPlayer(msg.sender) == true, \"Player not in the system.\");\r\n        require( Iuser.isMaker(msg.sender) == true, \"Only Maker can get their Printers.\");\r\n        printers[msg.sender][makerPrinters [msg.sender][index]].soluble = soluble;\r\n        printers[msg.sender][makerPrinters [msg.sender][index]].foodSafety = foodSafety;\r\n        printers[msg.sender][makerPrinters[msg.sender][index]].mountedNozzles = mountedNozzles;\r\n    }\r\n\r\n    function getMaterials()\r\n    public view\r\n    returns (MaterialDetails[] memory av_materials){\r\n        \r\n        uint256 n_materials = materials[msg.sender][MaterialType.ABS].length+materials[msg.sender][MaterialType.PETG].length+materials[msg.sender][MaterialType.PLA].length;\r\n        av_materials = new MaterialDetails[](n_materials);\r\n        uint256 x = 0;\r\n        for (uint i = 0; i < 3; i++){\r\n            for(uint j=0; j < materials[msg.sender][MaterialType(i)].length; j++){\r\n                av_materials[x] = materials[msg.sender][MaterialType(i)][j];\r\n                x++;\r\n            }\r\n        }\r\n        return av_materials;\r\n    }\r\n\r\n    function updateMaterial(bytes32 name, MaterialType mType, MaterialColor mColor, uint256 quantityKG, uint256 printTemp, uint256 bedTemp)\r\n    public payable{\r\n        require( Iuser.isMaker(msg.sender) == true, \"Only Maker can update Materials.\");\r\n        require(checkMaterial(name) == true, \"No material with this name\");\r\n\r\n        for(uint j=0; j < materials[msg.sender][mType].length; j++){\r\n            if (materials[msg.sender][mType][j].name==name){\r\n                materials[msg.sender][mType][j] = MaterialDetails(name,mType, mColor, quantityKG, printTemp, bedTemp); \r\n            }\r\n        }\r\n    }\r\n\r\nfunction getMaterial(bytes32 name)public view returns(MaterialDetails memory myMaterial){\r\n        require( Iuser.isMaker(msg.sender) == true, \"Operation denied.\");\r\n        require(checkMaterial(name) == true, \"No material with this name\");\r\n        for (uint i = 0; i < 3; i++){\r\n            for(uint j=0; j < materials[msg.sender][MaterialType(i)].length; j++){\r\n                if (materials[msg.sender][MaterialType(i)][j].name==name){\r\n                    return materials[msg.sender][MaterialType(i)][j];\r\n                }\r\n        }\r\n        \r\n    }\r\n    }\r\n    \r\n    function removeMaterial(bytes32 name, MaterialType mType) \r\n    public payable{\r\n        require( Iuser.isMaker(msg.sender) == true, \"Only Maker can delete Materials.\");\r\n        require(checkMaterial(name) == true, \"No material with this name\");\r\n\r\n        /*for(uint j=0; j < materials[msg.sender][mType].length; j++){\r\n            if (materials[msg.sender][mType][j].name==name){\r\n                materials[msg.sender][mType][j] = NONE;\r\n            }\r\n        }*/\r\n                for(uint j=0; j < materials[msg.sender][mType].length; j++){\r\n            if (materials[msg.sender][mType][j].name==name){\r\n                    materials[msg.sender][mType][j]=materials[msg.sender][mType] [materials[msg.sender][mType].length-1];\r\n                    materials[msg.sender][mType].pop();\r\n            }\r\n        }\r\n        \r\n        for(uint256 i =0; i< materialsName[msg.sender].length;i++){\r\n            if(materialsName[msg.sender][i]== name){\r\n            materialsName[msg.sender][i]=materialsName[msg.sender][materialsName[msg.sender].length-1];\r\n            materialsName[msg.sender].pop();\r\n            break;\r\n            }\r\n        }\r\n        for (uint i = 0; i < makerPrinters[msg.sender].length; i++) {\r\n            if(printers[msg.sender][makerPrinters[msg.sender][i]].mountedMaterial.name == name){\r\n                printers[msg.sender][makerPrinters[msg.sender][i]].mountedMaterial = NONE;\r\n            }\r\n        }\r\n    }\r\n\r\n    function mountMaterial(bytes32 name, MaterialType mType, uint256 printer)\r\n    public payable{\r\n        require(Iuser.isMaker(msg.sender) == true, \"Only Maker can delete Materials.\");\r\n        require(checkMaterial(name) == true, \"No material with this name\");\r\n        \r\n        for(uint j=0; j < materials[msg.sender][mType].length; j++){\r\n            if (materials[msg.sender][mType][j].name==name){\r\n                printers[msg.sender][makerPrinters [msg.sender][printer]].mountedMaterial = materials[msg.sender][mType][j];\r\n            }       \r\n\r\n        }\r\n    }\r\n\r\n    function RemovePrinter(uint256 index)\r\n    public payable{\r\n        require( Iuser.isPlayer(msg.sender) == true, \"Player not in the system.\");\r\n        require( Iuser.isMaker(msg.sender) == true, \"Only Maker can get their Printers.\");\r\n        makerPrinters[msg.sender][index]=makerPrinters[msg.sender][makerPrinters[msg.sender].length -1];\r\n        makerPrinters[msg.sender].pop();\r\n    }\r\n\r\n}",
  "sourcePath": "C:\\Users\\giova\\OneDrive\\Desktop\\Desk\\tirocinio\\prova\\smart-contract\\contracts\\1_OnBoarding\\OnBoarding.sol",
  "compiler": {
    "name": "solc",
    "version": "0.8.7+commit.e28d00a7.Emscripten.clang"
  },
  "schemaVersion": "3.4.3",
  "updatedAt": "2022-06-29T13:39:24.577Z",
  "networkType": "ethereum",
  "devdoc": {
    "kind": "dev",
    "methods": {},
    "version": 1
  },
  "userdoc": {
    "kind": "user",
    "methods": {},
    "version": 1
  }
}