{
  "contractName": "OnBoarding",
  "abi": [
    {
      "inputs": [
        {
          "internalType": "address",
          "name": "_user",
          "type": "address"
        }
      ],
      "stateMutability": "nonpayable",
      "type": "constructor"
    },
    {
      "anonymous": false,
      "inputs": [
        {
          "indexed": false,
          "internalType": "address",
          "name": "player_address",
          "type": "address"
        },
        {
          "indexed": false,
          "internalType": "bool",
          "name": "status",
          "type": "bool"
        }
      ],
      "name": "newPrinterAddition",
      "type": "event"
    },
    {
      "inputs": [
        {
          "internalType": "address",
          "name": "printerAddress",
          "type": "address"
        },
        {
          "internalType": "bytes32",
          "name": "name",
          "type": "bytes32"
        },
        {
          "internalType": "enum MaterialType[]",
          "name": "suppertedMaterial",
          "type": "uint8[]"
        },
        {
          "internalType": "uint256[]",
          "name": "nozzles",
          "type": "uint256[]"
        },
        {
          "internalType": "uint256",
          "name": "nozzlesMounted",
          "type": "uint256"
        },
        {
          "internalType": "uint256",
          "name": "printTemperature",
          "type": "uint256"
        },
        {
          "internalType": "uint256",
          "name": "bedTemperature",
          "type": "uint256"
        },
        {
          "internalType": "uint256",
          "name": "volume",
          "type": "uint256"
        },
        {
          "internalType": "bool",
          "name": "soluble",
          "type": "bool"
        },
        {
          "internalType": "bool",
          "name": "foodSafety",
          "type": "bool"
        }
      ],
      "name": "addPrinter",
      "outputs": [],
      "stateMutability": "payable",
      "type": "function",
      "payable": true
    },
    {
      "inputs": [],
      "name": "getMakerPrinters",
      "outputs": [
        {
          "components": [
            {
              "internalType": "bytes32",
              "name": "name",
              "type": "bytes32"
            },
            {
              "internalType": "enum MaterialType[]",
              "name": "supportedMaterial",
              "type": "uint8[]"
            },
            {
              "components": [
                {
                  "internalType": "bytes32",
                  "name": "name",
                  "type": "bytes32"
                },
                {
                  "internalType": "enum MaterialType",
                  "name": "mType",
                  "type": "uint8"
                },
                {
                  "internalType": "enum MaterialColor",
                  "name": "color",
                  "type": "uint8"
                },
                {
                  "internalType": "uint256",
                  "name": "quantityKG",
                  "type": "uint256"
                },
                {
                  "internalType": "uint256",
                  "name": "printTemperature",
                  "type": "uint256"
                },
                {
                  "internalType": "uint256",
                  "name": "bedTemperature",
                  "type": "uint256"
                }
              ],
              "internalType": "struct MaterialDetails",
              "name": "mountedMaterial",
              "type": "tuple"
            },
            {
              "internalType": "uint256[]",
              "name": "nozzles",
              "type": "uint256[]"
            },
            {
              "internalType": "uint256",
              "name": "mountedNozzles",
              "type": "uint256"
            },
            {
              "internalType": "uint256",
              "name": "maxPrintTemperature",
              "type": "uint256"
            },
            {
              "internalType": "uint256",
              "name": "maxBedTemperature",
              "type": "uint256"
            },
            {
              "internalType": "uint256",
              "name": "volume",
              "type": "uint256"
            },
            {
              "internalType": "bool",
              "name": "soluble",
              "type": "bool"
            },
            {
              "internalType": "bool",
              "name": "foodSafety",
              "type": "bool"
            },
            {
              "internalType": "bool",
              "name": "avaiable",
              "type": "bool"
            }
          ],
          "internalType": "struct Printer[]",
          "name": "mprinters",
          "type": "tuple[]"
        }
      ],
      "stateMutability": "view",
      "type": "function",
      "constant": true
    },
    {
      "inputs": [
        {
          "internalType": "uint256",
          "name": "index",
          "type": "uint256"
        }
      ],
      "name": "getMakerPrinter",
      "outputs": [
        {
          "components": [
            {
              "internalType": "bytes32",
              "name": "name",
              "type": "bytes32"
            },
            {
              "internalType": "enum MaterialType[]",
              "name": "supportedMaterial",
              "type": "uint8[]"
            },
            {
              "components": [
                {
                  "internalType": "bytes32",
                  "name": "name",
                  "type": "bytes32"
                },
                {
                  "internalType": "enum MaterialType",
                  "name": "mType",
                  "type": "uint8"
                },
                {
                  "internalType": "enum MaterialColor",
                  "name": "color",
                  "type": "uint8"
                },
                {
                  "internalType": "uint256",
                  "name": "quantityKG",
                  "type": "uint256"
                },
                {
                  "internalType": "uint256",
                  "name": "printTemperature",
                  "type": "uint256"
                },
                {
                  "internalType": "uint256",
                  "name": "bedTemperature",
                  "type": "uint256"
                }
              ],
              "internalType": "struct MaterialDetails",
              "name": "mountedMaterial",
              "type": "tuple"
            },
            {
              "internalType": "uint256[]",
              "name": "nozzles",
              "type": "uint256[]"
            },
            {
              "internalType": "uint256",
              "name": "mountedNozzles",
              "type": "uint256"
            },
            {
              "internalType": "uint256",
              "name": "maxPrintTemperature",
              "type": "uint256"
            },
            {
              "internalType": "uint256",
              "name": "maxBedTemperature",
              "type": "uint256"
            },
            {
              "internalType": "uint256",
              "name": "volume",
              "type": "uint256"
            },
            {
              "internalType": "bool",
              "name": "soluble",
              "type": "bool"
            },
            {
              "internalType": "bool",
              "name": "foodSafety",
              "type": "bool"
            },
            {
              "internalType": "bool",
              "name": "avaiable",
              "type": "bool"
            }
          ],
          "internalType": "struct Printer",
          "name": "myPrinter",
          "type": "tuple"
        }
      ],
      "stateMutability": "view",
      "type": "function",
      "constant": true
    },
    {
      "inputs": [],
      "name": "getMakerNPrinters",
      "outputs": [
        {
          "internalType": "uint256",
          "name": "Nprinters",
          "type": "uint256"
        }
      ],
      "stateMutability": "view",
      "type": "function",
      "constant": true
    },
    {
      "inputs": [
        {
          "internalType": "bytes32",
          "name": "name",
          "type": "bytes32"
        }
      ],
      "name": "checkMaterial",
      "outputs": [
        {
          "internalType": "bool",
          "name": "",
          "type": "bool"
        }
      ],
      "stateMutability": "view",
      "type": "function",
      "constant": true
    },
    {
      "inputs": [
        {
          "internalType": "bytes32",
          "name": "name",
          "type": "bytes32"
        },
        {
          "internalType": "enum MaterialType",
          "name": "mType",
          "type": "uint8"
        },
        {
          "internalType": "enum MaterialColor",
          "name": "mColor",
          "type": "uint8"
        },
        {
          "internalType": "uint256",
          "name": "quantityKG",
          "type": "uint256"
        },
        {
          "internalType": "uint256",
          "name": "printTemp",
          "type": "uint256"
        },
        {
          "internalType": "uint256",
          "name": "bedTemp",
          "type": "uint256"
        }
      ],
      "name": "addMaterials",
      "outputs": [],
      "stateMutability": "payable",
      "type": "function",
      "payable": true
    },
    {
      "inputs": [],
      "name": "getMaterialsName",
      "outputs": [
        {
          "internalType": "bytes32[]",
          "name": "mats",
          "type": "bytes32[]"
        }
      ],
      "stateMutability": "view",
      "type": "function",
      "constant": true
    },
    {
      "inputs": [],
      "name": "getMaterials",
      "outputs": [
        {
          "components": [
            {
              "internalType": "bytes32",
              "name": "name",
              "type": "bytes32"
            },
            {
              "internalType": "enum MaterialType",
              "name": "mType",
              "type": "uint8"
            },
            {
              "internalType": "enum MaterialColor",
              "name": "color",
              "type": "uint8"
            },
            {
              "internalType": "uint256",
              "name": "quantityKG",
              "type": "uint256"
            },
            {
              "internalType": "uint256",
              "name": "printTemperature",
              "type": "uint256"
            },
            {
              "internalType": "uint256",
              "name": "bedTemperature",
              "type": "uint256"
            }
          ],
          "internalType": "struct MaterialDetails[]",
          "name": "av_materials",
          "type": "tuple[]"
        }
      ],
      "stateMutability": "view",
      "type": "function",
      "constant": true
    },
    {
      "inputs": [
        {
          "internalType": "bytes32",
          "name": "name",
          "type": "bytes32"
        },
        {
          "internalType": "enum MaterialType",
          "name": "mType",
          "type": "uint8"
        },
        {
          "internalType": "enum MaterialColor",
          "name": "mColor",
          "type": "uint8"
        },
        {
          "internalType": "uint256",
          "name": "quantityKG",
          "type": "uint256"
        },
        {
          "internalType": "uint256",
          "name": "printTemp",
          "type": "uint256"
        },
        {
          "internalType": "uint256",
          "name": "bedTemp",
          "type": "uint256"
        }
      ],
      "name": "updateMaterial",
      "outputs": [],
      "stateMutability": "payable",
      "type": "function",
      "payable": true
    },
    {
      "inputs": [
        {
          "internalType": "uint256",
          "name": "index",
          "type": "uint256"
        }
      ],
      "name": "getMaterial",
      "outputs": [],
      "stateMutability": "payable",
      "type": "function",
      "payable": true
    },
    {
      "inputs": [
        {
          "internalType": "bytes32",
          "name": "name",
          "type": "bytes32"
        },
        {
          "internalType": "enum MaterialType",
          "name": "mType",
          "type": "uint8"
        }
      ],
      "name": "removeMaterial",
      "outputs": [],
      "stateMutability": "payable",
      "type": "function",
      "payable": true
    },
    {
      "inputs": [
        {
          "internalType": "bytes32",
          "name": "name",
          "type": "bytes32"
        },
        {
          "internalType": "enum MaterialType",
          "name": "mType",
          "type": "uint8"
        },
        {
          "internalType": "uint256",
          "name": "printer",
          "type": "uint256"
        }
      ],
      "name": "mountMaterial",
      "outputs": [],
      "stateMutability": "payable",
      "type": "function",
      "payable": true
    },
    {
      "inputs": [
        {
          "internalType": "uint256",
          "name": "index",
          "type": "uint256"
        }
      ],
      "name": "RemovePrinter",
      "outputs": [],
      "stateMutability": "payable",
      "type": "function",
      "payable": true
    }
  ],
  "bytecode": "0x6101406040526000608081905260a081905260c081905260e08190526101008190526101208190528080556001805461ffff19169055600281905560038190556004553480156200004f57600080fd5b5060405162002dcc38038062002dcc833981016040819052620000729162000098565b600a80546001600160a01b0319166001600160a01b0392909216919091179055620000ca565b600060208284031215620000ab57600080fd5b81516001600160a01b0381168114620000c357600080fd5b9392505050565b612cf280620000da6000396000f3fe6080604052600436106100c25760003560e01c80635582e5431161007f57806380dfedcd1161005957806380dfedcd146101c4578063a6bc7738146101e6578063b0980fdf146101f9578063da6d89091461022657600080fd5b80635582e5431461017b5780636b04fb471461018e5780637be8eb45146101b157600080fd5b80630eb201fe146100c757806315e10e99146100fc57806320b83e21146101115780633bdda5e21461013357806351f8162d1461014657806354bf796514610168575b600080fd5b3480156100d357600080fd5b506100e76100e2366004612785565b610237565b60405190151581526020015b60405180910390f35b61010f61010a366004612828565b6102a6565b005b34801561011d57600080fd5b506101266105b2565b6040516100f39190612a7c565b61010f610141366004612699565b6109e5565b34801561015257600080fd5b5061015b610ee0565b6040516100f391906129f6565b61010f6101763660046127ca565b610f41565b61010f610189366004612785565b611220565b34801561019a57600080fd5b506101a361142a565b6040519081526020016100f3565b61010f6101bf3660046127ca565b611465565b3480156101d057600080fd5b506101d9611766565b6040516100f39190612a3a565b61010f6101f436600461279e565b611a0b565b34801561020557600080fd5b50610219610214366004612785565b612067565b6040516100f39190612b8e565b61010f610234366004612785565b50565b600080805b3360009081526009602052604090205481101561029f5733600090815260096020526040902080548591908390811061027757610277612c82565b9060005260206000200154141561028d57600191505b8061029781612c25565b91505061023c565b5092915050565b600a5460405163e75600c360e01b81523360048201526001600160a01b039091169063e75600c39060240160206040518083038186803b1580156102e957600080fd5b505afa1580156102fd573d6000803e3d6000fd5b505050506040513d601f19601f820116820180604052508101906103219190612761565b15156001146103775760405162461bcd60e51b815260206004820181905260248201527f4f6e6c79204d616b65722063616e2064656c657465204d6174657269616c732e60448201526064015b60405180910390fd5b61038083610237565b15156001146103a15760405162461bcd60e51b815260040161036e90612ade565b60005b336000908152600860205260408120908460028111156103c6576103c6612c56565b60028111156103d7576103d7612c56565b81526020810191909152604001600020548110156105ac57336000908152600860205260408120859185600281111561041257610412612c56565b600281111561042357610423612c56565b8152602001908152602001600020828154811061044257610442612c82565b906000526020600020906005020160000154141561059a573360009081526008602052604081209084600281111561047c5761047c612c56565b600281111561048d5761048d612c56565b815260200190815260200160002081815481106104ac576104ac612c82565b600091825260208083203384526005808352604080862060079094528520805494909102909101939192869081106104e6576104e6612c82565b60009182526020808320909101546001600160a01b0316835282019290925260400190208154600280830191825560018481015460039094018054939460ff1693909260ff199091169190849081111561054257610542612c56565b0217905550600182810154908201805460ff61010093849004169261ff00199091169083600b81111561057757610577612c56565b021790555060028281015490820155600380830154908201556004918201549101555b806105a481612c25565b9150506103a4565b50505050565b600a54604051629c95e160e41b81523360048201526060916001600160a01b0316906309c95e109060240160206040518083038186803b1580156105f557600080fd5b505afa158015610609573d6000803e3d6000fd5b505050506040513d601f19601f8201168201806040525081019061062d9190612761565b151560011461064e5760405162461bcd60e51b815260040161036e90612b15565b600a5460405163e75600c360e01b81523360048201526001600160a01b039091169063e75600c39060240160206040518083038186803b15801561069157600080fd5b505afa1580156106a5573d6000803e3d6000fd5b505050506040513d601f19601f820116820180604052508101906106c99190612761565b15156001146106ea5760405162461bcd60e51b815260040161036e90612b4c565b3360009081526007602052604090205467ffffffffffffffff81111561071257610712612c98565b60405190808252806020026020018201604052801561074b57816020015b6107386123f3565b8152602001906001900390816107305790505b50905060005b336000908152600760205260409020548110156109e1573360009081526005602090815260408083206007909252822080549192918490811061079657610796612c82565b60009182526020808320909101546001600160a01b03168352828101939093526040918201902081516101608101835281548152600182018054845181870281018701909552808552919492938584019390929083018282801561084957602002820191906000526020600020906000905b82829054906101000a900460ff16600281111561082757610827612c56565b8152602060019283018181049485019490930390920291018084116108085790505b50505050508152602001600282016040518060c0016040529081600082015481526020016001820160009054906101000a900460ff16600281111561089057610890612c56565b60028111156108a1576108a1612c56565b81526020016001820160019054906101000a900460ff16600b8111156108c9576108c9612c56565b600b8111156108da576108da612c56565b8152602001600282015481526020016003820154815260200160048201548152505081526020016007820180548060200260200160405190810160405280929190818152602001828054801561094f57602002820191906000526020600020905b81548152602001906001019080831161093b575b50505091835250506008820154602082015260098201546040820152600a8201546060820152600b8201546080820152600c9091015460ff808216151560a084015261010082048116151560c08401526201000090910416151560e09091015282518390839081106109c3576109c3612c82565b602002602001018190525080806109d990612c25565b915050610751565b5090565b600a54604051629c95e160e41b81523360048201526001600160a01b03909116906309c95e109060240160206040518083038186803b158015610a2757600080fd5b505afa158015610a3b573d6000803e3d6000fd5b505050506040513d601f19601f82011682018060405250810190610a5f9190612761565b1515600114610a805760405162461bcd60e51b815260040161036e90612b15565b600a5460405163e75600c360e01b81523360048201526001600160a01b039091169063e75600c39060240160206040518083038186803b158015610ac357600080fd5b505afa158015610ad7573d6000803e3d6000fd5b505050506040513d601f19601f82011682018060405250810190610afb9190612761565b1515600114610b4c5760405162461bcd60e51b815260206004820152601c60248201527f4f6e6c79204d616b65722063616e20616464205072696e746572732e00000000604482015260640161036e565b60408051610160810182528a815260208082018b9052825160c081018452600080548252600154909484019285919083019060ff166002811115610b9257610b92612c56565b6002811115610ba357610ba3612c56565b81526020016001820160019054906101000a900460ff16600b811115610bcb57610bcb612c56565b600b811115610bdc57610bdc612c56565b815260200160028201548152602001600382015481526020016004820154815250508152602001898152602001888152602001878152602001868152602001858152602001841515815260200183151581526020016001151581525090508060056000336001600160a01b03166001600160a01b0316815260200190815260200160002060008d6001600160a01b03166001600160a01b03168152602001908152602001600020600082015181600001556020820151816001019080519060200190610ca992919061248a565b5060408201518051600280840191825560208301516003850180549192909160ff1916906001908490811115610ce157610ce1612c56565b0217905550604082015160018201805461ff00191661010083600b811115610d0b57610d0b612c56565b021790555060608281015160028301556080830151600383015560a0909201516004909101558201518051610d4a91600784019160209091019061253a565b506080820151816008015560a0820151816009015560c082015181600a015560e082015181600b015561010082015181600c0160006101000a81548160ff02191690831515021790555061012082015181600c0160016101000a81548160ff02191690831515021790555061014082015181600c0160026101000a81548160ff021916908315150217905550905050600160066000336001600160a01b03166001600160a01b0316815260200190815260200160002060006101000a81548160ff02191690831515021790555060076000336001600160a01b03166001600160a01b031681526020019081526020016000208b9080600181540180825580915050600190039060005260206000200160009091909190916101000a8154816001600160a01b0302191690836001600160a01b031602179055507f68f1f4a765c80cce6152bba70adcfe422531198b0d733f8555bd9b2f1c0feb44336001604051610ecb9291906001600160a01b039290921682521515602082015260400190565b60405180910390a15050505050505050505050565b33600090815260096020908152604091829020805483518184028101840190945280845260609392830182828015610f3757602002820191906000526020600020905b815481526020019060010190808311610f23575b5050505050905090565b600a5460405163e75600c360e01b81523360048201526001600160a01b039091169063e75600c39060240160206040518083038186803b158015610f8457600080fd5b505afa158015610f98573d6000803e3d6000fd5b505050506040513d601f19601f82011682018060405250810190610fbc9190612761565b151560011461100d5760405162461bcd60e51b815260206004820152601c60248201527f4f6e6c79204d616b65722063616e20616464204d6174657269616c2e00000000604482015260640161036e565b600084600b81111561102157611021612c56565b14156110615760405162461bcd60e51b815260206004820152600f60248201526e10dbdb1bdc881b9bdd081d985b1a59608a1b604482015260640161036e565b61106a86610237565b156110ca5760405162461bcd60e51b815260206004820152602a60248201527f546865726520697320616c72656164792061206d6174657269616c20776974686044820152692074686973206e616d6560b01b606482015260840161036e565b60006040518060c001604052808881526020018760028111156110ef576110ef612c56565b815260200186600b81111561110657611106612c56565b8152602080820187905260408083018790526060909201859052336000908152600890915290812091925087600281111561114357611143612c56565b600281111561115457611154612c56565b81526020808201929092526040016000908120805460018181018355918352918390208451600590930201918255918301518183018054859460ff19909116908360028111156111a6576111a6612c56565b0217905550604082015160018201805461ff00191661010083600b8111156111d0576111d0612c56565b0217905550606082015160028201556080820151600382015560a0909101516004909101555050336000908152600960209081526040822080546001810182559083529120019490945550505050565b600a54604051629c95e160e41b81523360048201526001600160a01b03909116906309c95e109060240160206040518083038186803b15801561126257600080fd5b505afa158015611276573d6000803e3d6000fd5b505050506040513d601f19601f8201168201806040525081019061129a9190612761565b15156001146112bb5760405162461bcd60e51b815260040161036e90612b15565b600a5460405163e75600c360e01b81523360048201526001600160a01b039091169063e75600c39060240160206040518083038186803b1580156112fe57600080fd5b505afa158015611312573d6000803e3d6000fd5b505050506040513d601f19601f820116820180604052508101906113369190612761565b15156001146113575760405162461bcd60e51b815260040161036e90612b4c565b336000908152600760205260409020805461137490600190612c0e565b8154811061138457611384612c82565b60009182526020808320909101543383526007909152604090912080546001600160a01b0390921691839081106113bd576113bd612c82565b600091825260208083209190910180546001600160a01b0319166001600160a01b03949094169390931790925533815260079091526040902080548061140557611405612c6c565b600082815260209020810160001990810180546001600160a01b031916905501905550565b6000805b336000908152600760205260409020548110156109e1578161144f81612c25565b925050808061145d90612c25565b91505061142e565b600a5460405163e75600c360e01b81523360048201526001600160a01b039091169063e75600c39060240160206040518083038186803b1580156114a857600080fd5b505afa1580156114bc573d6000803e3d6000fd5b505050506040513d601f19601f820116820180604052508101906114e09190612761565b15156001146115315760405162461bcd60e51b815260206004820181905260248201527f4f6e6c79204d616b65722063616e20757064617465204d6174657269616c732e604482015260640161036e565b61153a86610237565b151560011461155b5760405162461bcd60e51b815260040161036e90612ade565b60005b3360009081526008602052604081209087600281111561158057611580612c56565b600281111561159157611591612c56565b815260208101919091526040016000205481101561175d5733600090815260086020526040812088918860028111156115cc576115cc612c56565b60028111156115dd576115dd612c56565b815260200190815260200160002082815481106115fc576115fc612c82565b906000526020600020906005020160000154141561174b576040518060c0016040528088815260200187600281111561163757611637612c56565b815260200186600b81111561164e5761164e612c56565b815260208082018790526040808301879052606090920185905233600090815260089091529081209088600281111561168957611689612c56565b600281111561169a5761169a612c56565b815260200190815260200160002082815481106116b9576116b9612c82565b90600052602060002090600502016000820151816000015560208201518160010160006101000a81548160ff021916908360028111156116fb576116fb612c56565b0217905550604082015160018201805461ff00191661010083600b81111561172557611725612c56565b0217905550606082015160028201556080820151600382015560a0909101516004909101555b8061175581612c25565b91505061155e565b50505050505050565b33600090815260086020908152604080832060018452909152808220546002835281832054838052918320546060939261179f91612bf6565b6117a99190612bf6565b90508067ffffffffffffffff8111156117c4576117c4612c98565b60405190808252806020026020018201604052801561182f57816020015b61181c6040805160c08101909152600080825260208201908152602001600081526020016000815260200160008152602001600081525090565b8152602001906001900390816117e25790505b5091506000805b6003811015611a055760005b3360009081526008602052604081209083600281111561186457611864612c56565b600281111561187557611875612c56565b600281111561188657611886612c56565b81526020810191909152604001600020548110156119f257336000908152600860205260408120908360028111156118c0576118c0612c56565b60028111156118d1576118d1612c56565b60028111156118e2576118e2612c56565b8152602001908152602001600020818154811061190157611901612c82565b90600052602060002090600502016040518060c0016040529081600082015481526020016001820160009054906101000a900460ff16600281111561194857611948612c56565b600281111561195957611959612c56565b81526020016001820160019054906101000a900460ff16600b81111561198157611981612c56565b600b81111561199257611992612c56565b815260200160028201548152602001600382015481526020016004820154815250508584815181106119c6576119c6612c82565b602002602001018190525082806119dc90612c25565b93505080806119ea90612c25565b915050611842565b50806119fd81612c25565b915050611836565b50505090565b600a5460405163e75600c360e01b81523360048201526001600160a01b039091169063e75600c39060240160206040518083038186803b158015611a4e57600080fd5b505afa158015611a62573d6000803e3d6000fd5b505050506040513d601f19601f82011682018060405250810190611a869190612761565b1515600114611ad75760405162461bcd60e51b815260206004820181905260248201527f4f6e6c79204d616b65722063616e2064656c657465204d6174657269616c732e604482015260640161036e565b611ae082610237565b1515600114611b015760405162461bcd60e51b815260040161036e90612ade565b60005b33600090815260086020526040812090836002811115611b2657611b26612c56565b6002811115611b3757611b37612c56565b8152602081019190915260400160002054811015611df3573360009081526008602052604081208491846002811115611b7257611b72612c56565b6002811115611b8357611b83612c56565b81526020019081526020016000208281548110611ba257611ba2612c82565b9060005260206000209060050201600001541415611de15733600090815260086020526040812090836002811115611bdc57611bdc612c56565b6002811115611bed57611bed612c56565b8152602080820192909252604090810160009081203382526008909352908120600191856002811115611c2257611c22612c56565b6002811115611c3357611c33612c56565b8152602081019190915260400160002054611c4e9190612c0e565b81548110611c5e57611c5e612c82565b6000918252602080832033845260089091526040832060059092020191846002811115611c8d57611c8d612c56565b6002811115611c9e57611c9e612c56565b81526020019081526020016000208281548110611cbd57611cbd612c82565b600091825260209091208254600590920201908155600180830154818301805460ff90921692909160ff191690836002811115611cfc57611cfc612c56565b0217905550600182810154908201805460ff61010093849004169261ff00199091169083600b811115611d3157611d31612c56565b021790555060028281015482820155600380840154908301556004928301549290910191909155336000908152600860205260408120918490811115611d7957611d79612c56565b6002811115611d8a57611d8a612c56565b8152602001908152602001600020805480611da757611da7612c6c565b60008281526020812060056000199093019283020181815560018101805461ffff1916905560028101829055600381018290556004015590555b80611deb81612c25565b915050611b04565b5060005b33600090815260096020526040902054811015611ef657336000908152600960205260409020805484919083908110611e3257611e32612c82565b90600052602060002001541415611ee4573360009081526009602052604090208054611e6090600190612c0e565b81548110611e7057611e70612c82565b600091825260208083209091015433835260099091526040909120805483908110611e9d57611e9d612c82565b6000918252602080832090910192909255338152600990915260409020805480611ec957611ec9612c6c565b60019003818190600052602060002001600090559055611ef6565b80611eee81612c25565b915050611df7565b5060005b33600090815260076020526040902054811015612062573360009081526005602090815260408083206007909252822080548693919085908110611f4057611f40612c82565b60009182526020808320909101546001600160a01b0316835282019290925260400190206002015414156120505733600090815260056020908152604080832060079092528220805483919085908110611f9c57611f9c612c82565b60009182526020808320909101546001600160a01b0316835282019290925260400190208154600280830191825560018481015460039094018054939460ff1693909260ff1990911691908490811115611ff857611ff8612c56565b0217905550600182810154908201805460ff61010093849004169261ff00199091169083600b81111561202d5761202d612c56565b021790555060028281015490820155600380830154908201556004918201549101555b8061205a81612c25565b915050611efa565b505050565b61206f6123f3565b600a54604051629c95e160e41b81523360048201526001600160a01b03909116906309c95e109060240160206040518083038186803b1580156120b157600080fd5b505afa1580156120c5573d6000803e3d6000fd5b505050506040513d601f19601f820116820180604052508101906120e99190612761565b151560011461210a5760405162461bcd60e51b815260040161036e90612b15565b600a5460405163e75600c360e01b81523360048201526001600160a01b039091169063e75600c39060240160206040518083038186803b15801561214d57600080fd5b505afa158015612161573d6000803e3d6000fd5b505050506040513d601f19601f820116820180604052508101906121859190612761565b15156001146121a65760405162461bcd60e51b815260040161036e90612b4c565b336000908152600560209081526040808320600790925282208054919291859081106121d4576121d4612c82565b60009182526020808320909101546001600160a01b03168352828101939093526040918201902081516101608101835281548152600182018054845181870281018701909552808552919492938584019390929083018282801561228757602002820191906000526020600020906000905b82829054906101000a900460ff16600281111561226557612265612c56565b8152602060019283018181049485019490930390920291018084116122465790505b50505050508152602001600282016040518060c0016040529081600082015481526020016001820160009054906101000a900460ff1660028111156122ce576122ce612c56565b60028111156122df576122df612c56565b81526020016001820160019054906101000a900460ff16600b81111561230757612307612c56565b600b81111561231857612318612c56565b8152602001600282015481526020016003820154815260200160048201548152505081526020016007820180548060200260200160405190810160405280929190818152602001828054801561238d57602002820191906000526020600020905b815481526020019060010190808311612379575b50505091835250506008820154602082015260098201546040820152600a8201546060820152600b8201546080820152600c9091015460ff808216151560a084015261010082048116151560c08401526201000090910416151560e09091015292915050565b604080516101608101825260008152606060208201529081016124466040805160c08101909152600080825260208201908152602001600081526020016000815260200160008152602001600081525090565b815260200160608152602001600081526020016000815260200160008152602001600081526020016000151581526020016000151581526020016000151581525090565b82805482825590600052602060002090601f0160209004810192821561252e5791602002820160005b838211156124ff57835183826101000a81548160ff021916908360028111156124de576124de612c56565b021790555092602001926001016020816000010492830192600103026124b3565b801561252c5782816101000a81549060ff02191690556001016020816000010492830192600103026124ff565b505b506109e1929150612575565b82805482825590600052602060002090810192821561252e579160200282015b8281111561252e57825182559160200191906001019061255a565b5b808211156109e15760008155600101612576565b80356001600160a01b03811681146125a157600080fd5b919050565b600082601f8301126125b757600080fd5b813560206125cc6125c783612bd2565b612ba1565b80838252828201915082860187848660051b89010111156125ec57600080fd5b60005b85811015612612576126008261268a565b845292840192908401906001016125ef565b5090979650505050505050565b600082601f83011261263057600080fd5b813560206126406125c783612bd2565b80838252828201915082860187848660051b890101111561266057600080fd5b60005b8581101561261257813584529284019290840190600101612663565b80356125a181612cae565b8035600381106125a157600080fd5b6000806000806000806000806000806101408b8d0312156126b957600080fd5b6126c28b61258a565b995060208b0135985060408b013567ffffffffffffffff808211156126e657600080fd5b6126f28e838f016125a6565b995060608d013591508082111561270857600080fd5b506127158d828e0161261f565b97505060808b0135955060a08b0135945060c08b0135935060e08b013592506127416101008c0161267f565b91506127506101208c0161267f565b90509295989b9194979a5092959850565b60006020828403121561277357600080fd5b815161277e81612cae565b9392505050565b60006020828403121561279757600080fd5b5035919050565b600080604083850312156127b157600080fd5b823591506127c16020840161268a565b90509250929050565b60008060008060008060c087890312156127e357600080fd5b863595506127f36020880161268a565b94506040870135600c811061280757600080fd5b959894975094956060810135955060808101359460a0909101359350915050565b60008060006060848603121561283d57600080fd5b8335925061284d6020850161268a565b9150604084013590509250925092565b600081518084526020808501945080840160005b83811015612894576128848783516128cf565b9582019590820190600101612871565b509495945050505050565b600081518084526020808501945080840160005b83811015612894578151875295820195908201906001016128b3565b600381106128df576128df612c56565b9052565b8051825260208101516128f960208401826128cf565b506040810151600c811061290f5761290f612c56565b6040830152606081810151908301526080808201519083015260a090810151910152565b60006102008251845260208301518160208601526129538286018261285d565b915050604083015161296860408601826128e3565b50606083015161010085830381870152612982838361289f565b925060808501519150610120828188015260a08601519250610140838189015260c087015161016089015260e08701516101808901528287015193506129cd6101a089018515159052565b9086015115156101c08801528501518015156101e088015291506129ee9050565b509392505050565b6020808252825182820181905260009190848201906040850190845b81811015612a2e57835183529284019291840191600101612a12565b50909695505050505050565b6020808252825182820181905260009190848201906040850190845b81811015612a2e57612a698385516128e3565b9284019260c09290920191600101612a56565b6000602080830181845280855180835260408601915060408160051b870101925083870160005b82811015612ad157603f19888603018452612abf858351612933565b94509285019290850190600101612aa3565b5092979650505050505050565b6020808252601a908201527f4e6f206d6174657269616c20776974682074686973206e616d65000000000000604082015260600190565b60208082526019908201527f506c61796572206e6f7420696e207468652073797374656d2e00000000000000604082015260600190565b60208082526022908201527f4f6e6c79204d616b65722063616e20676574207468656972205072696e746572604082015261399760f11b606082015260800190565b60208152600061277e6020830184612933565b604051601f8201601f1916810167ffffffffffffffff81118282101715612bca57612bca612c98565b604052919050565b600067ffffffffffffffff821115612bec57612bec612c98565b5060051b60200190565b60008219821115612c0957612c09612c40565b500190565b600082821015612c2057612c20612c40565b500390565b6000600019821415612c3957612c39612c40565b5060010190565b634e487b7160e01b600052601160045260246000fd5b634e487b7160e01b600052602160045260246000fd5b634e487b7160e01b600052603160045260246000fd5b634e487b7160e01b600052603260045260246000fd5b634e487b7160e01b600052604160045260246000fd5b801515811461023457600080fdfea2646970667358221220f5d85986b53743ccd340de1678c32faa4a3a77634a99855479714f085ebaeb5a64736f6c63430008070033",
  "immutableReferences": {},
  "source": "/*\r\n * @author Pipitone Antonio \r\n * @SPDX-License-Identifier: UNLICENSED\r\n */\r\npragma solidity >=0.4.22 <0.9.0;\r\npragma experimental ABIEncoderV2;\r\n\r\nimport \"./Structs/OnBoardingStructs.sol\";\r\n\r\nabstract contract IUser{\r\n    mapping (address => bool) public isPlayer;\r\n    function isMaker(address adr) virtual public view returns(bool);\r\n}\r\n\r\ncontract OnBoarding {\r\n    //Printer\r\n    MaterialDetails private NONE = MaterialDetails(\"\",MaterialType.ABS,MaterialColor.NONE,0,0,0);\r\n\r\n     //Printers\r\n    mapping (address => mapping(address => Printer)) private printers;\r\n    mapping (address => bool) private isPrinter;\r\n    mapping (address => address[]) private makerPrinters;\r\n\r\n    //Material\r\n    mapping (address => mapping (MaterialType => MaterialDetails[]) ) private materials;\r\n    mapping (address => bytes32[]) private materialsName;\r\n\r\n    event newPrinterAddition(address player_address, bool status);\r\n\r\n    IUser private Iuser;\r\n    constructor(address _user){\r\n        Iuser = IUser(_user);\r\n    }\r\n\r\n\r\n    //Functions Printers\r\n    function addPrinter(\r\n        address printerAddress,\r\n        bytes32 name, \r\n        MaterialType[] memory suppertedMaterial,\r\n        uint256[] memory nozzles,\r\n        uint256 nozzlesMounted, \r\n        uint256 printTemperature, \r\n        uint256 bedTemperature, \r\n        uint256 volume, \r\n        bool soluble,\r\n        bool foodSafety\r\n    ) public payable{\r\n        require( Iuser.isPlayer(msg.sender) == true, \"Player not in the system.\");\r\n        require( Iuser.isMaker(msg.sender) == true, \"Only Maker can add Printers.\");\r\n\r\n        Printer memory newPrinter = Printer(\r\n                                            name,\r\n                                            suppertedMaterial,\r\n                                            NONE, \r\n                                            nozzles, \r\n                                            nozzlesMounted, \r\n                                            printTemperature, \r\n                                            bedTemperature, \r\n                                            volume, \r\n                                            soluble, \r\n                                            foodSafety,\r\n                                            true\r\n                                            );\r\n        printers[msg.sender][printerAddress] = (newPrinter);  \r\n        isPrinter[msg.sender] = true;\r\n        makerPrinters[msg.sender].push(printerAddress);\r\n\r\n\r\n        emit newPrinterAddition(msg.sender, true);\r\n    }\r\n\r\n    function getMakerPrinters() \r\n    public view \r\n    returns (Printer[] memory mprinters){\r\n        require( Iuser.isPlayer(msg.sender) == true, \"Player not in the system.\");\r\n        require( Iuser.isMaker(msg.sender) == true, \"Only Maker can get their Printers.\");\r\n        mprinters = new Printer[](makerPrinters[msg.sender].length);\r\n        for (uint i = 0; i < makerPrinters[msg.sender].length; i++) {\r\n            mprinters[i] = printers[msg.sender][makerPrinters[msg.sender][i]];\r\n        }\r\n        return mprinters;\r\n    }\r\n\r\n    function getMakerPrinter(uint256 index)\r\n    public view returns(Printer memory myPrinter)\r\n    {\r\n        require( Iuser.isPlayer(msg.sender) == true, \"Player not in the system.\");\r\n        require( Iuser.isMaker(msg.sender) == true, \"Only Maker can get their Printers.\");\r\n        myPrinter = printers[msg.sender][makerPrinters [msg.sender][index]];\r\n        return myPrinter;\r\n    }\r\n\r\n    function getMakerNPrinters()\r\n    public view\r\n    returns(uint256 Nprinters){\r\n        for (uint i = 0; i < makerPrinters[msg.sender].length; i++) {\r\n            Nprinters++;\r\n        }\r\n        return Nprinters;\r\n    }\r\n\r\n    //Functions Materials\r\n    function checkMaterial(bytes32 name) \r\n    public view returns(bool){\r\n        bool response = false;\r\n        for(uint i = 0; i < materialsName[msg.sender].length; i++ ){\r\n            if (materialsName[msg.sender][i] == name){\r\n                response = true;\r\n            }\r\n        }\r\n        return response;\r\n    }\r\n\r\n    function addMaterials(bytes32 name, MaterialType mType, MaterialColor mColor, uint256 quantityKG, uint256 printTemp, uint256 bedTemp)\r\n    public payable{\r\n        require( Iuser.isMaker(msg.sender) == true, \"Only Maker can add Material.\");\r\n        require(mColor != MaterialColor.NONE, \"Color not valid\");\r\n        require(checkMaterial(name) == false, \"There is already a material with this name\");\r\n        MaterialDetails memory newMaterial = MaterialDetails(name, mType,mColor, quantityKG, printTemp, bedTemp);    \r\n        materials[msg.sender][mType].push(newMaterial);\r\n        materialsName[msg.sender].push(name);\r\n    }\r\n\r\n    function getMaterialsName()\r\n    public view returns (bytes32 [] memory mats){\r\n        return materialsName[msg.sender];\r\n    }\r\n\r\n    function getMaterials()\r\n    public view\r\n    returns (MaterialDetails[] memory av_materials){\r\n        \r\n        uint256 n_materials = materials[msg.sender][MaterialType.ABS].length+materials[msg.sender][MaterialType.PETG].length+materials[msg.sender][MaterialType.PLA].length;\r\n        av_materials = new MaterialDetails[](n_materials);\r\n        uint256 x = 0;\r\n        for (uint i = 0; i < 3; i++){\r\n            for(uint j=0; j < materials[msg.sender][MaterialType(i)].length; j++){\r\n                av_materials[x] = materials[msg.sender][MaterialType(i)][j];\r\n                x++;\r\n            }\r\n        }\r\n        return av_materials;\r\n    }\r\n\r\n    function updateMaterial(bytes32 name, MaterialType mType, MaterialColor mColor, uint256 quantityKG, uint256 printTemp, uint256 bedTemp)\r\n    public payable{\r\n        require( Iuser.isMaker(msg.sender) == true, \"Only Maker can update Materials.\");\r\n        require(checkMaterial(name) == true, \"No material with this name\");\r\n\r\n        for(uint j=0; j < materials[msg.sender][mType].length; j++){\r\n            if (materials[msg.sender][mType][j].name==name){\r\n                materials[msg.sender][mType][j] = MaterialDetails(name,mType, mColor, quantityKG, printTemp, bedTemp); \r\n            }\r\n        }\r\n    }\r\n\r\n    function getMaterial(uint256 index)\r\n    public payable{\r\n\r\n    }\r\n\r\n    \r\n    function removeMaterial(bytes32 name, MaterialType mType) \r\n    public payable{\r\n        require( Iuser.isMaker(msg.sender) == true, \"Only Maker can delete Materials.\");\r\n        require(checkMaterial(name) == true, \"No material with this name\");\r\n\r\n        /*for(uint j=0; j < materials[msg.sender][mType].length; j++){\r\n            if (materials[msg.sender][mType][j].name==name){\r\n                materials[msg.sender][mType][j] = NONE;\r\n            }\r\n        }*/\r\n                for(uint j=0; j < materials[msg.sender][mType].length; j++){\r\n            if (materials[msg.sender][mType][j].name==name){\r\n                    materials[msg.sender][mType][j]=materials[msg.sender][mType] [materials[msg.sender][mType].length-1];\r\n                    materials[msg.sender][mType].pop();\r\n            }\r\n        }\r\n        \r\n        for(uint256 i =0; i< materialsName[msg.sender].length;i++){\r\n            if(materialsName[msg.sender][i]== name){\r\n            materialsName[msg.sender][i]=materialsName[msg.sender][materialsName[msg.sender].length-1];\r\n            materialsName[msg.sender].pop();\r\n            break;\r\n            }\r\n        }\r\n        for (uint i = 0; i < makerPrinters[msg.sender].length; i++) {\r\n            if(printers[msg.sender][makerPrinters[msg.sender][i]].mountedMaterial.name == name){\r\n                printers[msg.sender][makerPrinters[msg.sender][i]].mountedMaterial = NONE;\r\n            }\r\n        }\r\n    }\r\n\r\n    function mountMaterial(bytes32 name, MaterialType mType, uint256 printer)\r\n    public payable{\r\n        require(Iuser.isMaker(msg.sender) == true, \"Only Maker can delete Materials.\");\r\n        require(checkMaterial(name) == true, \"No material with this name\");\r\n        \r\n        for(uint j=0; j < materials[msg.sender][mType].length; j++){\r\n            if (materials[msg.sender][mType][j].name==name){\r\n                printers[msg.sender][makerPrinters [msg.sender][printer]].mountedMaterial = materials[msg.sender][mType][j];\r\n            }       \r\n\r\n        }\r\n    }\r\n\r\n    function RemovePrinter(uint256 index)\r\n    public payable{\r\n        require( Iuser.isPlayer(msg.sender) == true, \"Player not in the system.\");\r\n        require( Iuser.isMaker(msg.sender) == true, \"Only Maker can get their Printers.\");\r\n        makerPrinters[msg.sender][index]=makerPrinters[msg.sender][makerPrinters[msg.sender].length -1];\r\n        makerPrinters[msg.sender].pop();\r\n    }\r\n\r\n}",
  "sourcePath": "C:\\Users\\giova\\OneDrive\\Desktop\\Desk\\tirocinio\\prova\\smart-contract\\contracts\\1_OnBoarding\\OnBoarding.sol",
  "compiler": {
    "name": "solc",
    "version": "0.8.7+commit.e28d00a7.Emscripten.clang"
  },
  "schemaVersion": "3.4.3",
  "updatedAt": "2022-05-31T14:13:01.007Z",
  "networkType": "ethereum",
  "devdoc": {
    "kind": "dev",
    "methods": {},
    "version": 1
  },
  "userdoc": {
    "kind": "user",
    "methods": {},
    "version": 1
  }
}