{
  "contractName": "OnBoarding",
  "abi": [
    {
      "inputs": [
        {
          "internalType": "address",
          "name": "_user",
          "type": "address"
        }
      ],
      "stateMutability": "nonpayable",
      "type": "constructor"
    },
    {
      "anonymous": false,
      "inputs": [
        {
          "indexed": false,
          "internalType": "address",
          "name": "player_address",
          "type": "address"
        },
        {
          "indexed": false,
          "internalType": "bool",
          "name": "status",
          "type": "bool"
        }
      ],
      "name": "newPrinterAddition",
      "type": "event"
    },
    {
      "inputs": [
        {
          "internalType": "address",
          "name": "printerAddress",
          "type": "address"
        },
        {
          "internalType": "bytes32",
          "name": "name",
          "type": "bytes32"
        },
        {
          "internalType": "enum MaterialType[]",
          "name": "suppertedMaterial",
          "type": "uint8[]"
        },
        {
          "internalType": "uint256[]",
          "name": "nozzles",
          "type": "uint256[]"
        },
        {
          "internalType": "uint256",
          "name": "nozzlesMounted",
          "type": "uint256"
        },
        {
          "internalType": "uint256",
          "name": "printTemperature",
          "type": "uint256"
        },
        {
          "internalType": "uint256",
          "name": "bedTemperature",
          "type": "uint256"
        },
        {
          "internalType": "uint256",
          "name": "volume",
          "type": "uint256"
        },
        {
          "internalType": "bool",
          "name": "soluble",
          "type": "bool"
        },
        {
          "internalType": "bool",
          "name": "foodSafety",
          "type": "bool"
        }
      ],
      "name": "addPrinter",
      "outputs": [],
      "stateMutability": "payable",
      "type": "function",
      "payable": true
    },
    {
      "inputs": [],
      "name": "getMakerPrinters",
      "outputs": [
        {
          "components": [
            {
              "internalType": "bytes32",
              "name": "name",
              "type": "bytes32"
            },
            {
              "internalType": "enum MaterialType[]",
              "name": "supportedMaterial",
              "type": "uint8[]"
            },
            {
              "components": [
                {
                  "internalType": "bytes32",
                  "name": "name",
                  "type": "bytes32"
                },
                {
                  "internalType": "enum MaterialType",
                  "name": "mType",
                  "type": "uint8"
                },
                {
                  "internalType": "enum MaterialColor",
                  "name": "color",
                  "type": "uint8"
                },
                {
                  "internalType": "uint256",
                  "name": "quantityKG",
                  "type": "uint256"
                },
                {
                  "internalType": "uint256",
                  "name": "printTemperature",
                  "type": "uint256"
                },
                {
                  "internalType": "uint256",
                  "name": "bedTemperature",
                  "type": "uint256"
                }
              ],
              "internalType": "struct MaterialDetails",
              "name": "mountedMaterial",
              "type": "tuple"
            },
            {
              "internalType": "uint256[]",
              "name": "nozzles",
              "type": "uint256[]"
            },
            {
              "internalType": "uint256",
              "name": "mountedNozzles",
              "type": "uint256"
            },
            {
              "internalType": "uint256",
              "name": "maxPrintTemperature",
              "type": "uint256"
            },
            {
              "internalType": "uint256",
              "name": "maxBedTemperature",
              "type": "uint256"
            },
            {
              "internalType": "uint256",
              "name": "volume",
              "type": "uint256"
            },
            {
              "internalType": "bool",
              "name": "soluble",
              "type": "bool"
            },
            {
              "internalType": "bool",
              "name": "foodSafety",
              "type": "bool"
            },
            {
              "internalType": "bool",
              "name": "avaiable",
              "type": "bool"
            }
          ],
          "internalType": "struct Printer[]",
          "name": "mprinters",
          "type": "tuple[]"
        }
      ],
      "stateMutability": "view",
      "type": "function",
      "constant": true
    },
    {
      "inputs": [
        {
          "internalType": "uint256",
          "name": "index",
          "type": "uint256"
        }
      ],
      "name": "getMakerPrinter",
      "outputs": [
        {
          "components": [
            {
              "internalType": "bytes32",
              "name": "name",
              "type": "bytes32"
            },
            {
              "internalType": "enum MaterialType[]",
              "name": "supportedMaterial",
              "type": "uint8[]"
            },
            {
              "components": [
                {
                  "internalType": "bytes32",
                  "name": "name",
                  "type": "bytes32"
                },
                {
                  "internalType": "enum MaterialType",
                  "name": "mType",
                  "type": "uint8"
                },
                {
                  "internalType": "enum MaterialColor",
                  "name": "color",
                  "type": "uint8"
                },
                {
                  "internalType": "uint256",
                  "name": "quantityKG",
                  "type": "uint256"
                },
                {
                  "internalType": "uint256",
                  "name": "printTemperature",
                  "type": "uint256"
                },
                {
                  "internalType": "uint256",
                  "name": "bedTemperature",
                  "type": "uint256"
                }
              ],
              "internalType": "struct MaterialDetails",
              "name": "mountedMaterial",
              "type": "tuple"
            },
            {
              "internalType": "uint256[]",
              "name": "nozzles",
              "type": "uint256[]"
            },
            {
              "internalType": "uint256",
              "name": "mountedNozzles",
              "type": "uint256"
            },
            {
              "internalType": "uint256",
              "name": "maxPrintTemperature",
              "type": "uint256"
            },
            {
              "internalType": "uint256",
              "name": "maxBedTemperature",
              "type": "uint256"
            },
            {
              "internalType": "uint256",
              "name": "volume",
              "type": "uint256"
            },
            {
              "internalType": "bool",
              "name": "soluble",
              "type": "bool"
            },
            {
              "internalType": "bool",
              "name": "foodSafety",
              "type": "bool"
            },
            {
              "internalType": "bool",
              "name": "avaiable",
              "type": "bool"
            }
          ],
          "internalType": "struct Printer",
          "name": "myPrinter",
          "type": "tuple"
        }
      ],
      "stateMutability": "view",
      "type": "function",
      "constant": true
    },
    {
      "inputs": [],
      "name": "getMakerNPrinters",
      "outputs": [
        {
          "internalType": "uint256",
          "name": "Nprinters",
          "type": "uint256"
        }
      ],
      "stateMutability": "view",
      "type": "function",
      "constant": true
    },
    {
      "inputs": [
        {
          "internalType": "bytes32",
          "name": "name",
          "type": "bytes32"
        }
      ],
      "name": "checkMaterial",
      "outputs": [
        {
          "internalType": "bool",
          "name": "",
          "type": "bool"
        }
      ],
      "stateMutability": "view",
      "type": "function",
      "constant": true
    },
    {
      "inputs": [
        {
          "internalType": "bytes32",
          "name": "name",
          "type": "bytes32"
        },
        {
          "internalType": "enum MaterialType",
          "name": "mType",
          "type": "uint8"
        },
        {
          "internalType": "enum MaterialColor",
          "name": "mColor",
          "type": "uint8"
        },
        {
          "internalType": "uint256",
          "name": "quantityKG",
          "type": "uint256"
        },
        {
          "internalType": "uint256",
          "name": "printTemp",
          "type": "uint256"
        },
        {
          "internalType": "uint256",
          "name": "bedTemp",
          "type": "uint256"
        }
      ],
      "name": "addMaterials",
      "outputs": [],
      "stateMutability": "payable",
      "type": "function",
      "payable": true
    },
    {
      "inputs": [],
      "name": "getMaterialsName",
      "outputs": [
        {
          "internalType": "bytes32[]",
          "name": "mats",
          "type": "bytes32[]"
        }
      ],
      "stateMutability": "view",
      "type": "function",
      "constant": true
    },
    {
      "inputs": [
        {
          "internalType": "uint256",
          "name": "index",
          "type": "uint256"
        },
        {
          "internalType": "bool",
          "name": "soluble",
          "type": "bool"
        },
        {
          "internalType": "bool",
          "name": "foodSafety",
          "type": "bool"
        },
        {
          "internalType": "uint256",
          "name": "mountedNozzles",
          "type": "uint256"
        },
        {
          "components": [
            {
              "internalType": "bytes32",
              "name": "name",
              "type": "bytes32"
            },
            {
              "internalType": "enum MaterialType",
              "name": "mType",
              "type": "uint8"
            },
            {
              "internalType": "enum MaterialColor",
              "name": "color",
              "type": "uint8"
            },
            {
              "internalType": "uint256",
              "name": "quantityKG",
              "type": "uint256"
            },
            {
              "internalType": "uint256",
              "name": "printTemperature",
              "type": "uint256"
            },
            {
              "internalType": "uint256",
              "name": "bedTemperature",
              "type": "uint256"
            }
          ],
          "internalType": "struct MaterialDetails",
          "name": "mountedMaterial",
          "type": "tuple"
        }
      ],
      "name": "ModifyPrinter",
      "outputs": [],
      "stateMutability": "payable",
      "type": "function",
      "payable": true
    },
    {
      "inputs": [],
      "name": "getMaterials",
      "outputs": [
        {
          "components": [
            {
              "internalType": "bytes32",
              "name": "name",
              "type": "bytes32"
            },
            {
              "internalType": "enum MaterialType",
              "name": "mType",
              "type": "uint8"
            },
            {
              "internalType": "enum MaterialColor",
              "name": "color",
              "type": "uint8"
            },
            {
              "internalType": "uint256",
              "name": "quantityKG",
              "type": "uint256"
            },
            {
              "internalType": "uint256",
              "name": "printTemperature",
              "type": "uint256"
            },
            {
              "internalType": "uint256",
              "name": "bedTemperature",
              "type": "uint256"
            }
          ],
          "internalType": "struct MaterialDetails[]",
          "name": "av_materials",
          "type": "tuple[]"
        }
      ],
      "stateMutability": "view",
      "type": "function",
      "constant": true
    },
    {
      "inputs": [
        {
          "internalType": "bytes32",
          "name": "name",
          "type": "bytes32"
        },
        {
          "internalType": "enum MaterialType",
          "name": "mType",
          "type": "uint8"
        },
        {
          "internalType": "enum MaterialColor",
          "name": "mColor",
          "type": "uint8"
        },
        {
          "internalType": "uint256",
          "name": "quantityKG",
          "type": "uint256"
        },
        {
          "internalType": "uint256",
          "name": "printTemp",
          "type": "uint256"
        },
        {
          "internalType": "uint256",
          "name": "bedTemp",
          "type": "uint256"
        }
      ],
      "name": "updateMaterial",
      "outputs": [],
      "stateMutability": "payable",
      "type": "function",
      "payable": true
    },
    {
      "inputs": [
        {
          "internalType": "bytes32",
          "name": "name",
          "type": "bytes32"
        }
      ],
      "name": "getMaterial",
      "outputs": [
        {
          "components": [
            {
              "internalType": "bytes32",
              "name": "name",
              "type": "bytes32"
            },
            {
              "internalType": "enum MaterialType",
              "name": "mType",
              "type": "uint8"
            },
            {
              "internalType": "enum MaterialColor",
              "name": "color",
              "type": "uint8"
            },
            {
              "internalType": "uint256",
              "name": "quantityKG",
              "type": "uint256"
            },
            {
              "internalType": "uint256",
              "name": "printTemperature",
              "type": "uint256"
            },
            {
              "internalType": "uint256",
              "name": "bedTemperature",
              "type": "uint256"
            }
          ],
          "internalType": "struct MaterialDetails",
          "name": "myMaterial",
          "type": "tuple"
        }
      ],
      "stateMutability": "view",
      "type": "function",
      "constant": true
    },
    {
      "inputs": [
        {
          "internalType": "bytes32",
          "name": "name",
          "type": "bytes32"
        },
        {
          "internalType": "enum MaterialType",
          "name": "mType",
          "type": "uint8"
        }
      ],
      "name": "removeMaterial",
      "outputs": [],
      "stateMutability": "payable",
      "type": "function",
      "payable": true
    },
    {
      "inputs": [
        {
          "internalType": "bytes32",
          "name": "name",
          "type": "bytes32"
        },
        {
          "internalType": "enum MaterialType",
          "name": "mType",
          "type": "uint8"
        },
        {
          "internalType": "uint256",
          "name": "printer",
          "type": "uint256"
        }
      ],
      "name": "mountMaterial",
      "outputs": [],
      "stateMutability": "payable",
      "type": "function",
      "payable": true
    },
    {
      "inputs": [
        {
          "internalType": "uint256",
          "name": "index",
          "type": "uint256"
        }
      ],
      "name": "RemovePrinter",
      "outputs": [],
      "stateMutability": "payable",
      "type": "function",
      "payable": true
    }
  ],
  "bytecode": "0x6101406040526000608081905260a081905260c081905260e08190526101008190526101208190528080556001805461ffff19169055600281905560038190556004553480156200004f57600080fd5b506040516200369238038062003692833981016040819052620000729162000098565b600a80546001600160a01b0319166001600160a01b0392909216919091179055620000ca565b600060208284031215620000ab57600080fd5b81516001600160a01b0381168114620000c357600080fd5b9392505050565b6135b880620000da6000396000f3fe6080604052600436106100dd5760003560e01c80636b04fb471161007f578063a6bc773811610059578063a6bc773814610201578063a901c12614610214578063b0980fdf14610241578063b23bcdb61461026e57600080fd5b80636b04fb47146101a95780637be8eb45146101cc57806380dfedcd146101df57600080fd5b80633bdda5e2116100bb5780633bdda5e21461014e57806351f8162d1461016157806354bf7965146101835780635582e5431461019657600080fd5b80630eb201fe146100e257806315e10e991461011757806320b83e211461012c575b600080fd5b3480156100ee57600080fd5b506101026100fd366004612f0e565b610281565b60405190151581526020015b60405180910390f35b61012a610125366004612fab565b6102f0565b005b34801561013857600080fd5b506101416105fc565b60405161010e9190613308565b61012a61015c366004612e22565b610a2f565b34801561016d57600080fd5b50610176610f2a565b60405161010e9190613282565b61012a610191366004612f53565b610f8b565b61012a6101a4366004612f0e565b61126a565b3480156101b557600080fd5b506101be611474565b60405190815260200161010e565b61012a6101da366004612f53565b6114af565b3480156101eb57600080fd5b506101f46117b0565b60405161010e91906132c6565b61012a61020f366004612f27565b611a23565b34801561022057600080fd5b5061023461022f366004612f0e565b61207f565b60405161010e919061341a565b34801561024d57600080fd5b5061026161025c366004612f0e565b6123a1565b60405161010e9190613428565b61012a61027c366004612fe0565b61272d565b600080805b336000908152600960205260409020548110156102e9573360009081526009602052604090208054859190839081106102c1576102c1613545565b906000526020600020015414156102d757600191505b806102e1816134e8565b915050610286565b5092915050565b600a5460405163e75600c360e01b81523360048201526001600160a01b039091169063e75600c39060240160206040518083038186803b15801561033357600080fd5b505afa158015610347573d6000803e3d6000fd5b505050506040513d601f19601f8201168201806040525081019061036b9190612eea565b15156001146103c15760405162461bcd60e51b815260206004820181905260248201527f4f6e6c79204d616b65722063616e2064656c657465204d6174657269616c732e60448201526064015b60405180910390fd5b6103ca83610281565b15156001146103eb5760405162461bcd60e51b81526004016103b89061336a565b60005b3360009081526008602052604081209084600281111561041057610410613519565b600281111561042157610421613519565b81526020810191909152604001600020548110156105f657336000908152600860205260408120859185600281111561045c5761045c613519565b600281111561046d5761046d613519565b8152602001908152602001600020828154811061048c5761048c613545565b90600052602060002090600502016000015414156105e457336000908152600860205260408120908460028111156104c6576104c6613519565b60028111156104d7576104d7613519565b815260200190815260200160002081815481106104f6576104f6613545565b6000918252602080832033845260058083526040808620600790945285208054949091029091019391928690811061053057610530613545565b60009182526020808320909101546001600160a01b0316835282019290925260400190208154600280830191825560018481015460039094018054939460ff1693909260ff199091169190849081111561058c5761058c613519565b0217905550600182810154908201805460ff61010093849004169261ff00199091169083600b8111156105c1576105c1613519565b021790555060028281015490820155600380830154908201556004918201549101555b806105ee816134e8565b9150506103ee565b50505050565b600a54604051629c95e160e41b81523360048201526060916001600160a01b0316906309c95e109060240160206040518083038186803b15801561063f57600080fd5b505afa158015610653573d6000803e3d6000fd5b505050506040513d601f19601f820116820180604052508101906106779190612eea565b15156001146106985760405162461bcd60e51b81526004016103b8906133a1565b600a5460405163e75600c360e01b81523360048201526001600160a01b039091169063e75600c39060240160206040518083038186803b1580156106db57600080fd5b505afa1580156106ef573d6000803e3d6000fd5b505050506040513d601f19601f820116820180604052508101906107139190612eea565b15156001146107345760405162461bcd60e51b81526004016103b8906133d8565b3360009081526007602052604090205467ffffffffffffffff81111561075c5761075c61355b565b60405190808252806020026020018201604052801561079557816020015b610782612b68565b81526020019060019003908161077a5790505b50905060005b33600090815260076020526040902054811015610a2b57336000908152600560209081526040808320600790925282208054919291849081106107e0576107e0613545565b60009182526020808320909101546001600160a01b03168352828101939093526040918201902081516101608101835281548152600182018054845181870281018701909552808552919492938584019390929083018282801561089357602002820191906000526020600020906000905b82829054906101000a900460ff16600281111561087157610871613519565b8152602060019283018181049485019490930390920291018084116108525790505b50505050508152602001600282016040518060c0016040529081600082015481526020016001820160009054906101000a900460ff1660028111156108da576108da613519565b60028111156108eb576108eb613519565b81526020016001820160019054906101000a900460ff16600b81111561091357610913613519565b600b81111561092457610924613519565b8152602001600282015481526020016003820154815260200160048201548152505081526020016007820180548060200260200160405190810160405280929190818152602001828054801561099957602002820191906000526020600020905b815481526020019060010190808311610985575b50505091835250506008820154602082015260098201546040820152600a8201546060820152600b8201546080820152600c9091015460ff808216151560a084015261010082048116151560c08401526201000090910416151560e0909101528251839083908110610a0d57610a0d613545565b60200260200101819052508080610a23906134e8565b91505061079b565b5090565b600a54604051629c95e160e41b81523360048201526001600160a01b03909116906309c95e109060240160206040518083038186803b158015610a7157600080fd5b505afa158015610a85573d6000803e3d6000fd5b505050506040513d601f19601f82011682018060405250810190610aa99190612eea565b1515600114610aca5760405162461bcd60e51b81526004016103b8906133a1565b600a5460405163e75600c360e01b81523360048201526001600160a01b039091169063e75600c39060240160206040518083038186803b158015610b0d57600080fd5b505afa158015610b21573d6000803e3d6000fd5b505050506040513d601f19601f82011682018060405250810190610b459190612eea565b1515600114610b965760405162461bcd60e51b815260206004820152601c60248201527f4f6e6c79204d616b65722063616e20616464205072696e746572732e0000000060448201526064016103b8565b60408051610160810182528a815260208082018b9052825160c081018452600080548252600154909484019285919083019060ff166002811115610bdc57610bdc613519565b6002811115610bed57610bed613519565b81526020016001820160019054906101000a900460ff16600b811115610c1557610c15613519565b600b811115610c2657610c26613519565b815260200160028201548152602001600382015481526020016004820154815250508152602001898152602001888152602001878152602001868152602001858152602001841515815260200183151581526020016001151581525090508060056000336001600160a01b03166001600160a01b0316815260200190815260200160002060008d6001600160a01b03166001600160a01b03168152602001908152602001600020600082015181600001556020820151816001019080519060200190610cf3929190612bcd565b5060408201518051600280840191825560208301516003850180549192909160ff1916906001908490811115610d2b57610d2b613519565b0217905550604082015160018201805461ff00191661010083600b811115610d5557610d55613519565b021790555060608281015160028301556080830151600383015560a0909201516004909101558201518051610d94916007840191602090910190612c7d565b506080820151816008015560a0820151816009015560c082015181600a015560e082015181600b015561010082015181600c0160006101000a81548160ff02191690831515021790555061012082015181600c0160016101000a81548160ff02191690831515021790555061014082015181600c0160026101000a81548160ff021916908315150217905550905050600160066000336001600160a01b03166001600160a01b0316815260200190815260200160002060006101000a81548160ff02191690831515021790555060076000336001600160a01b03166001600160a01b031681526020019081526020016000208b9080600181540180825580915050600190039060005260206000200160009091909190916101000a8154816001600160a01b0302191690836001600160a01b031602179055507f68f1f4a765c80cce6152bba70adcfe422531198b0d733f8555bd9b2f1c0feb44336001604051610f159291906001600160a01b039290921682521515602082015260400190565b60405180910390a15050505050505050505050565b33600090815260096020908152604091829020805483518184028101840190945280845260609392830182828015610f8157602002820191906000526020600020905b815481526020019060010190808311610f6d575b5050505050905090565b600a5460405163e75600c360e01b81523360048201526001600160a01b039091169063e75600c39060240160206040518083038186803b158015610fce57600080fd5b505afa158015610fe2573d6000803e3d6000fd5b505050506040513d601f19601f820116820180604052508101906110069190612eea565b15156001146110575760405162461bcd60e51b815260206004820152601c60248201527f4f6e6c79204d616b65722063616e20616464204d6174657269616c2e0000000060448201526064016103b8565b600084600b81111561106b5761106b613519565b14156110ab5760405162461bcd60e51b815260206004820152600f60248201526e10dbdb1bdc881b9bdd081d985b1a59608a1b60448201526064016103b8565b6110b486610281565b156111145760405162461bcd60e51b815260206004820152602a60248201527f546865726520697320616c72656164792061206d6174657269616c20776974686044820152692074686973206e616d6560b01b60648201526084016103b8565b60006040518060c0016040528088815260200187600281111561113957611139613519565b815260200186600b81111561115057611150613519565b8152602080820187905260408083018790526060909201859052336000908152600890915290812091925087600281111561118d5761118d613519565b600281111561119e5761119e613519565b81526020808201929092526040016000908120805460018181018355918352918390208451600590930201918255918301518183018054859460ff19909116908360028111156111f0576111f0613519565b0217905550604082015160018201805461ff00191661010083600b81111561121a5761121a613519565b0217905550606082015160028201556080820151600382015560a0909101516004909101555050336000908152600960209081526040822080546001810182559083529120019490945550505050565b600a54604051629c95e160e41b81523360048201526001600160a01b03909116906309c95e109060240160206040518083038186803b1580156112ac57600080fd5b505afa1580156112c0573d6000803e3d6000fd5b505050506040513d601f19601f820116820180604052508101906112e49190612eea565b15156001146113055760405162461bcd60e51b81526004016103b8906133a1565b600a5460405163e75600c360e01b81523360048201526001600160a01b039091169063e75600c39060240160206040518083038186803b15801561134857600080fd5b505afa15801561135c573d6000803e3d6000fd5b505050506040513d601f19601f820116820180604052508101906113809190612eea565b15156001146113a15760405162461bcd60e51b81526004016103b8906133d8565b33600090815260076020526040902080546113be906001906134d1565b815481106113ce576113ce613545565b60009182526020808320909101543383526007909152604090912080546001600160a01b03909216918390811061140757611407613545565b600091825260208083209190910180546001600160a01b0319166001600160a01b03949094169390931790925533815260079091526040902080548061144f5761144f61352f565b600082815260209020810160001990810180546001600160a01b031916905501905550565b6000805b33600090815260076020526040902054811015610a2b5781611499816134e8565b92505080806114a7906134e8565b915050611478565b600a5460405163e75600c360e01b81523360048201526001600160a01b039091169063e75600c39060240160206040518083038186803b1580156114f257600080fd5b505afa158015611506573d6000803e3d6000fd5b505050506040513d601f19601f8201168201806040525081019061152a9190612eea565b151560011461157b5760405162461bcd60e51b815260206004820181905260248201527f4f6e6c79204d616b65722063616e20757064617465204d6174657269616c732e60448201526064016103b8565b61158486610281565b15156001146115a55760405162461bcd60e51b81526004016103b89061336a565b60005b336000908152600860205260408120908760028111156115ca576115ca613519565b60028111156115db576115db613519565b81526020810191909152604001600020548110156117a757336000908152600860205260408120889188600281111561161657611616613519565b600281111561162757611627613519565b8152602001908152602001600020828154811061164657611646613545565b9060005260206000209060050201600001541415611795576040518060c0016040528088815260200187600281111561168157611681613519565b815260200186600b81111561169857611698613519565b81526020808201879052604080830187905260609092018590523360009081526008909152908120908860028111156116d3576116d3613519565b60028111156116e4576116e4613519565b8152602001908152602001600020828154811061170357611703613545565b90600052602060002090600502016000820151816000015560208201518160010160006101000a81548160ff0219169083600281111561174557611745613519565b0217905550604082015160018201805461ff00191661010083600b81111561176f5761176f613519565b0217905550606082015160028201556080820151600382015560a0909101516004909101555b8061179f816134e8565b9150506115a8565b50505050505050565b3360009081526008602090815260408083206001845290915280822054600283528183205483805291832054606093926117e9916134b9565b6117f391906134b9565b90508067ffffffffffffffff81111561180e5761180e61355b565b60405190808252806020026020018201604052801561184757816020015b611834612cb8565b81526020019060019003908161182c5790505b5091506000805b6003811015611a1d5760005b3360009081526008602052604081209083600281111561187c5761187c613519565b600281111561188d5761188d613519565b600281111561189e5761189e613519565b8152602081019190915260400160002054811015611a0a57336000908152600860205260408120908360028111156118d8576118d8613519565b60028111156118e9576118e9613519565b60028111156118fa576118fa613519565b8152602001908152602001600020818154811061191957611919613545565b90600052602060002090600502016040518060c0016040529081600082015481526020016001820160009054906101000a900460ff16600281111561196057611960613519565b600281111561197157611971613519565b81526020016001820160019054906101000a900460ff16600b81111561199957611999613519565b600b8111156119aa576119aa613519565b815260200160028201548152602001600382015481526020016004820154815250508584815181106119de576119de613545565b602002602001018190525082806119f4906134e8565b9350508080611a02906134e8565b91505061185a565b5080611a15816134e8565b91505061184e565b50505090565b600a5460405163e75600c360e01b81523360048201526001600160a01b039091169063e75600c39060240160206040518083038186803b158015611a6657600080fd5b505afa158015611a7a573d6000803e3d6000fd5b505050506040513d601f19601f82011682018060405250810190611a9e9190612eea565b1515600114611aef5760405162461bcd60e51b815260206004820181905260248201527f4f6e6c79204d616b65722063616e2064656c657465204d6174657269616c732e60448201526064016103b8565b611af882610281565b1515600114611b195760405162461bcd60e51b81526004016103b89061336a565b60005b33600090815260086020526040812090836002811115611b3e57611b3e613519565b6002811115611b4f57611b4f613519565b8152602081019190915260400160002054811015611e0b573360009081526008602052604081208491846002811115611b8a57611b8a613519565b6002811115611b9b57611b9b613519565b81526020019081526020016000208281548110611bba57611bba613545565b9060005260206000209060050201600001541415611df95733600090815260086020526040812090836002811115611bf457611bf4613519565b6002811115611c0557611c05613519565b8152602080820192909252604090810160009081203382526008909352908120600191856002811115611c3a57611c3a613519565b6002811115611c4b57611c4b613519565b8152602081019190915260400160002054611c6691906134d1565b81548110611c7657611c76613545565b6000918252602080832033845260089091526040832060059092020191846002811115611ca557611ca5613519565b6002811115611cb657611cb6613519565b81526020019081526020016000208281548110611cd557611cd5613545565b600091825260209091208254600590920201908155600180830154818301805460ff90921692909160ff191690836002811115611d1457611d14613519565b0217905550600182810154908201805460ff61010093849004169261ff00199091169083600b811115611d4957611d49613519565b021790555060028281015482820155600380840154908301556004928301549290910191909155336000908152600860205260408120918490811115611d9157611d91613519565b6002811115611da257611da2613519565b8152602001908152602001600020805480611dbf57611dbf61352f565b60008281526020812060056000199093019283020181815560018101805461ffff1916905560028101829055600381018290556004015590555b80611e03816134e8565b915050611b1c565b5060005b33600090815260096020526040902054811015611f0e57336000908152600960205260409020805484919083908110611e4a57611e4a613545565b90600052602060002001541415611efc573360009081526009602052604090208054611e78906001906134d1565b81548110611e8857611e88613545565b600091825260208083209091015433835260099091526040909120805483908110611eb557611eb5613545565b6000918252602080832090910192909255338152600990915260409020805480611ee157611ee161352f565b60019003818190600052602060002001600090559055611f0e565b80611f06816134e8565b915050611e0f565b5060005b3360009081526007602052604090205481101561207a573360009081526005602090815260408083206007909252822080548693919085908110611f5857611f58613545565b60009182526020808320909101546001600160a01b0316835282019290925260400190206002015414156120685733600090815260056020908152604080832060079092528220805483919085908110611fb457611fb4613545565b60009182526020808320909101546001600160a01b0316835282019290925260400190208154600280830191825560018481015460039094018054939460ff1693909260ff199091169190849081111561201057612010613519565b0217905550600182810154908201805460ff61010093849004169261ff00199091169083600b81111561204557612045613519565b021790555060028281015490820155600380830154908201556004918201549101555b80612072816134e8565b915050611f12565b505050565b612087612cb8565b600a5460405163e75600c360e01b81523360048201526001600160a01b039091169063e75600c39060240160206040518083038186803b1580156120ca57600080fd5b505afa1580156120de573d6000803e3d6000fd5b505050506040513d601f19601f820116820180604052508101906121029190612eea565b15156001146121475760405162461bcd60e51b815260206004820152601160248201527027b832b930ba34b7b7103232b734b2b21760791b60448201526064016103b8565b61215082610281565b15156001146121715760405162461bcd60e51b81526004016103b89061336a565b60005b600381101561239b5760005b336000908152600860205260408120908360028111156121a2576121a2613519565b60028111156121b3576121b3613519565b60028111156121c4576121c4613519565b81526020810191909152604001600020548110156123885733600090815260086020526040812085918460028111156121ff576121ff613519565b600281111561221057612210613519565b600281111561222157612221613519565b8152602001908152602001600020828154811061224057612240613545565b9060005260206000209060050201600001541415612376573360009081526008602052604081209083600281111561227a5761227a613519565b600281111561228b5761228b613519565b600281111561229c5761229c613519565b815260200190815260200160002081815481106122bb576122bb613545565b90600052602060002090600502016040518060c0016040529081600082015481526020016001820160009054906101000a900460ff16600281111561230257612302613519565b600281111561231357612313613519565b81526020016001820160019054906101000a900460ff16600b81111561233b5761233b613519565b600b81111561234c5761234c613519565b81526002820154602082015260038201546040820152600490910154606090910152949350505050565b80612380816134e8565b915050612180565b5080612393816134e8565b915050612174565b50919050565b6123a9612b68565b600a54604051629c95e160e41b81523360048201526001600160a01b03909116906309c95e109060240160206040518083038186803b1580156123eb57600080fd5b505afa1580156123ff573d6000803e3d6000fd5b505050506040513d601f19601f820116820180604052508101906124239190612eea565b15156001146124445760405162461bcd60e51b81526004016103b8906133a1565b600a5460405163e75600c360e01b81523360048201526001600160a01b039091169063e75600c39060240160206040518083038186803b15801561248757600080fd5b505afa15801561249b573d6000803e3d6000fd5b505050506040513d601f19601f820116820180604052508101906124bf9190612eea565b15156001146124e05760405162461bcd60e51b81526004016103b8906133d8565b3360009081526005602090815260408083206007909252822080549192918590811061250e5761250e613545565b60009182526020808320909101546001600160a01b0316835282810193909352604091820190208151610160810183528154815260018201805484518187028101870190955280855291949293858401939092908301828280156125c157602002820191906000526020600020906000905b82829054906101000a900460ff16600281111561259f5761259f613519565b8152602060019283018181049485019490930390920291018084116125805790505b50505050508152602001600282016040518060c0016040529081600082015481526020016001820160009054906101000a900460ff16600281111561260857612608613519565b600281111561261957612619613519565b81526020016001820160019054906101000a900460ff16600b81111561264157612641613519565b600b81111561265257612652613519565b815260200160028201548152602001600382015481526020016004820154815250508152602001600782018054806020026020016040519081016040528092919081815260200182805480156126c757602002820191906000526020600020905b8154815260200190600101908083116126b3575b50505091835250506008820154602082015260098201546040820152600a8201546060820152600b8201546080820152600c9091015460ff808216151560a084015261010082048116151560c08401526201000090910416151560e09091015292915050565b600a54604051629c95e160e41b81523360048201526001600160a01b03909116906309c95e109060240160206040518083038186803b15801561276f57600080fd5b505afa158015612783573d6000803e3d6000fd5b505050506040513d601f19601f820116820180604052508101906127a79190612eea565b15156001146127c85760405162461bcd60e51b81526004016103b8906133a1565b600a5460405163e75600c360e01b81523360048201526001600160a01b039091169063e75600c39060240160206040518083038186803b15801561280b57600080fd5b505afa15801561281f573d6000803e3d6000fd5b505050506040513d601f19601f820116820180604052508101906128439190612eea565b15156001146128645760405162461bcd60e51b81526004016103b8906133d8565b3360009081526005602090815260408083206007909252822080546128c3929184918a90811061289657612896613545565b60009182526020808320909101546001600160a01b03168352820192909252604001902060020183612acb565b9050806129a257336000908152600560209081526040808320600790925282208054859391908a9081106128f9576128f9613545565b60009182526020808320909101546001600160a01b0316835282810193909352604090910190208251600280830191825592840151600390920180549193909160ff191690600190849081111561295257612952613519565b0217905550604082015160018201805461ff00191661010083600b81111561297c5761297c613519565b0217905550606082015160028201556080820151600382015560a0909101516004909101555b336000908152600560209081526040808320600790925282208054889391908a9081106129d1576129d1613545565b6000918252602080832091909101546001600160a01b031683528281019390935260409182018120600c01805460ff19169415159490941790935533835260058252808320600790925282208054879391908a908110612a3357612a33613545565b60009182526020808320909101546001600160a01b031683528281019390935260409182018120600c0180549415156101000261ff00199095169490941790935533835260058252808320600790925282208054869391908a908110612a9b57612a9b613545565b60009182526020808320909101546001600160a01b03168352820192909252604001902060080155505050505050565b80516020808301516040808501516060860151608087015160a08801519351600097612afb97909695910161322d565b60408051601f19818403018152908290528051602091820120855460018701546002880154600389015460048a01549496612b4896949560ff80861696610100909604169490910161322d565b604051602081830303815290604052805190602001201490505b92915050565b60408051610160810182526000815260606020820152908101612b89612cb8565b815260200160608152602001600081526020016000815260200160008152602001600081526020016000151581526020016000151581526020016000151581525090565b82805482825590600052602060002090601f01602090048101928215612c715791602002820160005b83821115612c4257835183826101000a81548160ff02191690836002811115612c2157612c21613519565b02179055509260200192600101602081600001049283019260010302612bf6565b8015612c6f5782816101000a81549060ff0219169055600101602081600001049283019260010302612c42565b505b50610a2b929150612cef565b828054828255906000526020600020908101928215612c71579160200282015b82811115612c71578251825591602001919060010190612c9d565b6040805160c08101909152600080825260208201908152602001600081526020016000815260200160008152602001600081525090565b5b80821115610a2b5760008155600101612cf0565b80356001600160a01b0381168114612d1b57600080fd5b919050565b600082601f830112612d3157600080fd5b81356020612d46612d4183613495565b613464565b80838252828201915082860187848660051b8901011115612d6657600080fd5b60005b85811015612d8c57612d7a82612e13565b84529284019290840190600101612d69565b5090979650505050505050565b600082601f830112612daa57600080fd5b81356020612dba612d4183613495565b80838252828201915082860187848660051b8901011115612dda57600080fd5b60005b85811015612d8c57813584529284019290840190600101612ddd565b8035612d1b81613571565b8035600c8110612d1b57600080fd5b803560038110612d1b57600080fd5b6000806000806000806000806000806101408b8d031215612e4257600080fd5b612e4b8b612d04565b995060208b0135985060408b013567ffffffffffffffff80821115612e6f57600080fd5b612e7b8e838f01612d20565b995060608d0135915080821115612e9157600080fd5b50612e9e8d828e01612d99565b97505060808b0135955060a08b0135945060c08b0135935060e08b01359250612eca6101008c01612df9565b9150612ed96101208c01612df9565b90509295989b9194979a5092959850565b600060208284031215612efc57600080fd5b8151612f0781613571565b9392505050565b600060208284031215612f2057600080fd5b5035919050565b60008060408385031215612f3a57600080fd5b82359150612f4a60208401612e13565b90509250929050565b60008060008060008060c08789031215612f6c57600080fd5b86359550612f7c60208801612e13565b9450612f8a60408801612e04565b9350606087013592506080870135915060a087013590509295509295509295565b600080600060608486031215612fc057600080fd5b83359250612fd060208501612e13565b9150604084013590509250925092565b6000806000806000858703610140811215612ffa57600080fd5b86359550602087013561300c81613571565b9450604087013561301c81613571565b93506060870135925060c0607f198201121561303757600080fd5b5061304061343b565b6080870135815261305360a08801612e13565b602082015261306460c08801612e04565b604082015260e0870135606082015261010087013560808201526101209096013560a08701525092959194509290565b600081518084526020808501945080840160005b838110156130cb576130bb878351613106565b95820195908201906001016130a8565b509495945050505050565b600081518084526020808501945080840160005b838110156130cb578151875295820195908201906001016130ea565b6003811061311657613116613519565b9052565b8051825260208101516131306020840182613106565b506040810151600c811061314657613146613519565b6040830152606081810151908301526080808201519083015260a090810151910152565b600061020082518452602083015181602086015261318a82860182613094565b915050604083015161319f604086018261311a565b506060830151610100858303818701526131b983836130d6565b925060808501519150610120828188015260a08601519250610140838189015260c087015161016089015260e08701516101808901528287015193506132046101a089018515159052565b9086015115156101c08801528501518015156101e088015291506132259050565b509392505050565b86815260006003871061324257613242613519565b8660f81b6020830152600c861061325b5761325b613519565b5060f89490941b602185015260228401929092526042830152606282015260820192915050565b6020808252825182820181905260009190848201906040850190845b818110156132ba5783518352928401929184019160010161329e565b50909695505050505050565b6020808252825182820181905260009190848201906040850190845b818110156132ba576132f583855161311a565b9284019260c092909201916001016132e2565b6000602080830181845280855180835260408601915060408160051b870101925083870160005b8281101561335d57603f1988860301845261334b85835161316a565b9450928501929085019060010161332f565b5092979650505050505050565b6020808252601a908201527f4e6f206d6174657269616c20776974682074686973206e616d65000000000000604082015260600190565b60208082526019908201527f506c61796572206e6f7420696e207468652073797374656d2e00000000000000604082015260600190565b60208082526022908201527f4f6e6c79204d616b65722063616e20676574207468656972205072696e746572604082015261399760f11b606082015260800190565b60c08101612b62828461311a565b602081526000612f07602083018461316a565b60405160c0810167ffffffffffffffff8111828210171561345e5761345e61355b565b60405290565b604051601f8201601f1916810167ffffffffffffffff8111828210171561348d5761348d61355b565b604052919050565b600067ffffffffffffffff8211156134af576134af61355b565b5060051b60200190565b600082198211156134cc576134cc613503565b500190565b6000828210156134e3576134e3613503565b500390565b60006000198214156134fc576134fc613503565b5060010190565b634e487b7160e01b600052601160045260246000fd5b634e487b7160e01b600052602160045260246000fd5b634e487b7160e01b600052603160045260246000fd5b634e487b7160e01b600052603260045260246000fd5b634e487b7160e01b600052604160045260246000fd5b801515811461357f57600080fd5b5056fea2646970667358221220545b4b65872132587b5a1e80cdd6b5ad564fac63b35ffd43e8cea55951828bc764736f6c63430008070033",
  "immutableReferences": {},
  "source": "/*\r\n * @author Pipitone Antonio \r\n * @SPDX-License-Identifier: UNLICENSED\r\n */\r\npragma solidity >=0.4.22 <0.9.0;\r\npragma experimental ABIEncoderV2;\r\n\r\nimport \"./Structs/OnBoardingStructs.sol\";\r\n\r\nabstract contract IUser{\r\n    mapping (address => bool) public isPlayer;\r\n    function isMaker(address adr) virtual public view returns(bool);\r\n}\r\n\r\ncontract OnBoarding {\r\n    //Printer\r\n    MaterialDetails private NONE = MaterialDetails(\"\",MaterialType.ABS,MaterialColor.NONE,0,0,0);\r\n\r\n     //Printers\r\n    mapping (address => mapping(address => Printer)) private printers;\r\n    mapping (address => bool) private isPrinter;\r\n    mapping (address => address[]) private makerPrinters;\r\n\r\n    //Material\r\n    mapping (address => mapping (MaterialType => MaterialDetails[]) ) private materials;\r\n    mapping (address => bytes32[]) private materialsName;\r\n\r\n    event newPrinterAddition(address player_address, bool status);\r\n\r\n    IUser private Iuser;\r\n    constructor(address _user){\r\n        Iuser = IUser(_user);\r\n    }\r\n\r\n\r\n    //Functions Printers\r\n    function addPrinter(\r\n        address printerAddress,\r\n        bytes32 name, \r\n        MaterialType[] memory suppertedMaterial,\r\n        uint256[] memory nozzles,\r\n        uint256 nozzlesMounted, \r\n        uint256 printTemperature, \r\n        uint256 bedTemperature, \r\n        uint256 volume, \r\n        bool soluble,\r\n        bool foodSafety\r\n    ) public payable{\r\n        require( Iuser.isPlayer(msg.sender) == true, \"Player not in the system.\");\r\n        require( Iuser.isMaker(msg.sender) == true, \"Only Maker can add Printers.\");\r\n\r\n        Printer memory newPrinter = Printer(\r\n                                            name,\r\n                                            suppertedMaterial,\r\n                                            NONE, \r\n                                            nozzles, \r\n                                            nozzlesMounted, \r\n                                            printTemperature, \r\n                                            bedTemperature, \r\n                                            volume, \r\n                                            soluble, \r\n                                            foodSafety,\r\n                                            true\r\n                                            );\r\n        printers[msg.sender][printerAddress] = (newPrinter);  \r\n        isPrinter[msg.sender] = true;\r\n        makerPrinters[msg.sender].push(printerAddress);\r\n\r\n\r\n        emit newPrinterAddition(msg.sender, true);\r\n    }\r\n\r\n\r\n\r\n    function getMakerPrinters() \r\n    public view \r\n    returns (Printer[] memory mprinters){\r\n        require( Iuser.isPlayer(msg.sender) == true, \"Player not in the system.\");\r\n        require( Iuser.isMaker(msg.sender) == true, \"Only Maker can get their Printers.\");\r\n        mprinters = new Printer[](makerPrinters[msg.sender].length);\r\n        for (uint i = 0; i < makerPrinters[msg.sender].length; i++) {\r\n            mprinters[i] = printers[msg.sender][makerPrinters[msg.sender][i]];\r\n        }\r\n        return mprinters;\r\n    }\r\n\r\n    function getMakerPrinter(uint256 index)\r\n    public view returns(Printer memory myPrinter)\r\n    {\r\n        require( Iuser.isPlayer(msg.sender) == true, \"Player not in the system.\");\r\n        require( Iuser.isMaker(msg.sender) == true, \"Only Maker can get their Printers.\");\r\n        myPrinter = printers[msg.sender][makerPrinters [msg.sender][index]];\r\n        return myPrinter;\r\n    }\r\n\r\n    function getMakerNPrinters()\r\n    public view\r\n    returns(uint256 Nprinters){\r\n        for (uint i = 0; i < makerPrinters[msg.sender].length; i++) {\r\n            Nprinters++;\r\n        }\r\n        return Nprinters;\r\n    }\r\n\r\n    //Functions Materials\r\n    function checkMaterial(bytes32 name) \r\n    public view returns(bool){\r\n        bool response = false;\r\n        for(uint i = 0; i < materialsName[msg.sender].length; i++ ){\r\n            if (materialsName[msg.sender][i] == name){\r\n                response = true;\r\n            }\r\n        }\r\n        return response;\r\n    }\r\n\r\n    function addMaterials(bytes32 name, MaterialType mType, MaterialColor mColor, uint256 quantityKG, uint256 printTemp, uint256 bedTemp)\r\n    public payable{\r\n        require( Iuser.isMaker(msg.sender) == true, \"Only Maker can add Material.\");\r\n        require(mColor != MaterialColor.NONE, \"Color not valid\");\r\n        require(checkMaterial(name) == false, \"There is already a material with this name\");\r\n        MaterialDetails memory newMaterial = MaterialDetails(name, mType,mColor, quantityKG, printTemp, bedTemp);    \r\n        materials[msg.sender][mType].push(newMaterial);\r\n        materialsName[msg.sender].push(name);\r\n    }\r\n\r\n    function getMaterialsName()\r\n    public view returns (bytes32 [] memory mats){\r\n        return materialsName[msg.sender];\r\n    }\r\n\r\n        function equals(MaterialDetails storage _first,MaterialDetails memory _second) internal view returns (bool) {\r\n        // Just compare the output of hashing all fields packed\r\n        return(keccak256(abi.encodePacked(_first.name, _first.mType,_first.color,_first.quantityKG,_first.printTemperature,_first.bedTemperature)) == keccak256(abi.encodePacked(_second.name, _second.mType,_second.color,_second.quantityKG,_second.printTemperature,_second.bedTemperature)));\r\n    }\r\n\r\n\r\n    function ModifyPrinter(uint256 index, bool soluble,bool foodSafety, uint256 mountedNozzles, MaterialDetails memory mountedMaterial)\r\n    public payable{\r\n        require( Iuser.isPlayer(msg.sender) == true, \"Player not in the system.\");\r\n        require( Iuser.isMaker(msg.sender) == true, \"Only Maker can get their Printers.\");\r\n        bool flag = equals(printers[msg.sender][makerPrinters [msg.sender][index]].mountedMaterial, mountedMaterial);\r\n        if(!flag){\r\n            printers[msg.sender][makerPrinters [msg.sender][index]].mountedMaterial = mountedMaterial;\r\n        }\r\n        printers[msg.sender][makerPrinters [msg.sender][index]].soluble = soluble;\r\n        printers[msg.sender][makerPrinters [msg.sender][index]].foodSafety = foodSafety;\r\n        printers[msg.sender][makerPrinters[msg.sender][index]].mountedNozzles = mountedNozzles;\r\n    }\r\n\r\n    function getMaterials()\r\n    public view\r\n    returns (MaterialDetails[] memory av_materials){\r\n        \r\n        uint256 n_materials = materials[msg.sender][MaterialType.ABS].length+materials[msg.sender][MaterialType.PETG].length+materials[msg.sender][MaterialType.PLA].length;\r\n        av_materials = new MaterialDetails[](n_materials);\r\n        uint256 x = 0;\r\n        for (uint i = 0; i < 3; i++){\r\n            for(uint j=0; j < materials[msg.sender][MaterialType(i)].length; j++){\r\n                av_materials[x] = materials[msg.sender][MaterialType(i)][j];\r\n                x++;\r\n            }\r\n        }\r\n        return av_materials;\r\n    }\r\n\r\n    function updateMaterial(bytes32 name, MaterialType mType, MaterialColor mColor, uint256 quantityKG, uint256 printTemp, uint256 bedTemp)\r\n    public payable{\r\n        require( Iuser.isMaker(msg.sender) == true, \"Only Maker can update Materials.\");\r\n        require(checkMaterial(name) == true, \"No material with this name\");\r\n\r\n        for(uint j=0; j < materials[msg.sender][mType].length; j++){\r\n            if (materials[msg.sender][mType][j].name==name){\r\n                materials[msg.sender][mType][j] = MaterialDetails(name,mType, mColor, quantityKG, printTemp, bedTemp); \r\n            }\r\n        }\r\n    }\r\n\r\nfunction getMaterial(bytes32 name)public view returns(MaterialDetails memory myMaterial){\r\n        require( Iuser.isMaker(msg.sender) == true, \"Operation denied.\");\r\n        require(checkMaterial(name) == true, \"No material with this name\");\r\n        for (uint i = 0; i < 3; i++){\r\n            for(uint j=0; j < materials[msg.sender][MaterialType(i)].length; j++){\r\n                if (materials[msg.sender][MaterialType(i)][j].name==name){\r\n                    return materials[msg.sender][MaterialType(i)][j];\r\n                }\r\n        }\r\n        \r\n    }\r\n    }\r\n    \r\n    function removeMaterial(bytes32 name, MaterialType mType) \r\n    public payable{\r\n        require( Iuser.isMaker(msg.sender) == true, \"Only Maker can delete Materials.\");\r\n        require(checkMaterial(name) == true, \"No material with this name\");\r\n\r\n        /*for(uint j=0; j < materials[msg.sender][mType].length; j++){\r\n            if (materials[msg.sender][mType][j].name==name){\r\n                materials[msg.sender][mType][j] = NONE;\r\n            }\r\n        }*/\r\n                for(uint j=0; j < materials[msg.sender][mType].length; j++){\r\n            if (materials[msg.sender][mType][j].name==name){\r\n                    materials[msg.sender][mType][j]=materials[msg.sender][mType] [materials[msg.sender][mType].length-1];\r\n                    materials[msg.sender][mType].pop();\r\n            }\r\n        }\r\n        \r\n        for(uint256 i =0; i< materialsName[msg.sender].length;i++){\r\n            if(materialsName[msg.sender][i]== name){\r\n            materialsName[msg.sender][i]=materialsName[msg.sender][materialsName[msg.sender].length-1];\r\n            materialsName[msg.sender].pop();\r\n            break;\r\n            }\r\n        }\r\n        for (uint i = 0; i < makerPrinters[msg.sender].length; i++) {\r\n            if(printers[msg.sender][makerPrinters[msg.sender][i]].mountedMaterial.name == name){\r\n                printers[msg.sender][makerPrinters[msg.sender][i]].mountedMaterial = NONE;\r\n            }\r\n        }\r\n    }\r\n\r\n    function mountMaterial(bytes32 name, MaterialType mType, uint256 printer)\r\n    public payable{\r\n        require(Iuser.isMaker(msg.sender) == true, \"Only Maker can delete Materials.\");\r\n        require(checkMaterial(name) == true, \"No material with this name\");\r\n        \r\n        for(uint j=0; j < materials[msg.sender][mType].length; j++){\r\n            if (materials[msg.sender][mType][j].name==name){\r\n                printers[msg.sender][makerPrinters [msg.sender][printer]].mountedMaterial = materials[msg.sender][mType][j];\r\n            }       \r\n\r\n        }\r\n    }\r\n\r\n    function RemovePrinter(uint256 index)\r\n    public payable{\r\n        require( Iuser.isPlayer(msg.sender) == true, \"Player not in the system.\");\r\n        require( Iuser.isMaker(msg.sender) == true, \"Only Maker can get their Printers.\");\r\n        makerPrinters[msg.sender][index]=makerPrinters[msg.sender][makerPrinters[msg.sender].length -1];\r\n        makerPrinters[msg.sender].pop();\r\n    }\r\n\r\n}",
  "sourcePath": "C:\\Users\\giova\\OneDrive\\Desktop\\Desk\\tirocinio\\prova\\smart-contract\\contracts\\1_OnBoarding\\OnBoarding.sol",
  "compiler": {
    "name": "solc",
    "version": "0.8.7+commit.e28d00a7.Emscripten.clang"
  },
  "schemaVersion": "3.4.3",
  "updatedAt": "2022-06-28T16:39:15.136Z",
  "networkType": "ethereum",
  "devdoc": {
    "kind": "dev",
    "methods": {},
    "version": 1
  },
  "userdoc": {
    "kind": "user",
    "methods": {},
    "version": 1
  }
}