{
  "contractName": "OnBoarding",
  "abi": [
    {
      "inputs": [
        {
          "internalType": "address",
          "name": "_user",
          "type": "address"
        }
      ],
      "stateMutability": "nonpayable",
      "type": "constructor"
    },
    {
      "anonymous": false,
      "inputs": [
        {
          "indexed": false,
          "internalType": "address",
          "name": "player_address",
          "type": "address"
        },
        {
          "indexed": false,
          "internalType": "bool",
          "name": "status",
          "type": "bool"
        }
      ],
      "name": "newPrinterAddition",
      "type": "event"
    },
    {
      "inputs": [
        {
          "internalType": "address",
          "name": "printerAddress",
          "type": "address"
        },
        {
          "internalType": "bytes32",
          "name": "name",
          "type": "bytes32"
        },
        {
          "internalType": "enum MaterialType[]",
          "name": "suppertedMaterial",
          "type": "uint8[]"
        },
        {
          "internalType": "uint256[]",
          "name": "nozzles",
          "type": "uint256[]"
        },
        {
          "internalType": "uint256",
          "name": "nozzlesMounted",
          "type": "uint256"
        },
        {
          "internalType": "uint256",
          "name": "printTemperature",
          "type": "uint256"
        },
        {
          "internalType": "uint256",
          "name": "bedTemperature",
          "type": "uint256"
        },
        {
          "internalType": "uint256",
          "name": "volume",
          "type": "uint256"
        },
        {
          "internalType": "bool",
          "name": "soluble",
          "type": "bool"
        },
        {
          "internalType": "bool",
          "name": "foodSafety",
          "type": "bool"
        }
      ],
      "name": "addPrinter",
      "outputs": [],
      "stateMutability": "payable",
      "type": "function",
      "payable": true
    },
    {
      "inputs": [],
      "name": "getMakerPrinters",
      "outputs": [
        {
          "components": [
            {
              "internalType": "bytes32",
              "name": "name",
              "type": "bytes32"
            },
            {
              "internalType": "enum MaterialType[]",
              "name": "supportedMaterial",
              "type": "uint8[]"
            },
            {
              "components": [
                {
                  "internalType": "bytes32",
                  "name": "name",
                  "type": "bytes32"
                },
                {
                  "internalType": "enum MaterialType",
                  "name": "mType",
                  "type": "uint8"
                },
                {
                  "internalType": "enum MaterialColor",
                  "name": "color",
                  "type": "uint8"
                },
                {
                  "internalType": "uint256",
                  "name": "quantityKG",
                  "type": "uint256"
                },
                {
                  "internalType": "uint256",
                  "name": "printTemperature",
                  "type": "uint256"
                },
                {
                  "internalType": "uint256",
                  "name": "bedTemperature",
                  "type": "uint256"
                }
              ],
              "internalType": "struct MaterialDetails",
              "name": "mountedMaterial",
              "type": "tuple"
            },
            {
              "internalType": "uint256[]",
              "name": "nozzles",
              "type": "uint256[]"
            },
            {
              "internalType": "uint256",
              "name": "mountedNozzles",
              "type": "uint256"
            },
            {
              "internalType": "uint256",
              "name": "maxPrintTemperature",
              "type": "uint256"
            },
            {
              "internalType": "uint256",
              "name": "maxBedTemperature",
              "type": "uint256"
            },
            {
              "internalType": "uint256",
              "name": "volume",
              "type": "uint256"
            },
            {
              "internalType": "bool",
              "name": "soluble",
              "type": "bool"
            },
            {
              "internalType": "bool",
              "name": "foodSafety",
              "type": "bool"
            },
            {
              "internalType": "bool",
              "name": "avaiable",
              "type": "bool"
            }
          ],
          "internalType": "struct Printer[]",
          "name": "mprinters",
          "type": "tuple[]"
        }
      ],
      "stateMutability": "view",
      "type": "function",
      "constant": true
    },
    {
      "inputs": [
        {
          "internalType": "uint256",
          "name": "index",
          "type": "uint256"
        }
      ],
      "name": "getMakerPrinter",
      "outputs": [
        {
          "components": [
            {
              "internalType": "bytes32",
              "name": "name",
              "type": "bytes32"
            },
            {
              "internalType": "enum MaterialType[]",
              "name": "supportedMaterial",
              "type": "uint8[]"
            },
            {
              "components": [
                {
                  "internalType": "bytes32",
                  "name": "name",
                  "type": "bytes32"
                },
                {
                  "internalType": "enum MaterialType",
                  "name": "mType",
                  "type": "uint8"
                },
                {
                  "internalType": "enum MaterialColor",
                  "name": "color",
                  "type": "uint8"
                },
                {
                  "internalType": "uint256",
                  "name": "quantityKG",
                  "type": "uint256"
                },
                {
                  "internalType": "uint256",
                  "name": "printTemperature",
                  "type": "uint256"
                },
                {
                  "internalType": "uint256",
                  "name": "bedTemperature",
                  "type": "uint256"
                }
              ],
              "internalType": "struct MaterialDetails",
              "name": "mountedMaterial",
              "type": "tuple"
            },
            {
              "internalType": "uint256[]",
              "name": "nozzles",
              "type": "uint256[]"
            },
            {
              "internalType": "uint256",
              "name": "mountedNozzles",
              "type": "uint256"
            },
            {
              "internalType": "uint256",
              "name": "maxPrintTemperature",
              "type": "uint256"
            },
            {
              "internalType": "uint256",
              "name": "maxBedTemperature",
              "type": "uint256"
            },
            {
              "internalType": "uint256",
              "name": "volume",
              "type": "uint256"
            },
            {
              "internalType": "bool",
              "name": "soluble",
              "type": "bool"
            },
            {
              "internalType": "bool",
              "name": "foodSafety",
              "type": "bool"
            },
            {
              "internalType": "bool",
              "name": "avaiable",
              "type": "bool"
            }
          ],
          "internalType": "struct Printer",
          "name": "myPrinter",
          "type": "tuple"
        }
      ],
      "stateMutability": "view",
      "type": "function",
      "constant": true
    },
    {
      "inputs": [],
      "name": "getMakerNPrinters",
      "outputs": [
        {
          "internalType": "uint256",
          "name": "Nprinters",
          "type": "uint256"
        }
      ],
      "stateMutability": "view",
      "type": "function",
      "constant": true
    },
    {
      "inputs": [
        {
          "internalType": "bytes32",
          "name": "name",
          "type": "bytes32"
        }
      ],
      "name": "checkMaterial",
      "outputs": [
        {
          "internalType": "bool",
          "name": "",
          "type": "bool"
        }
      ],
      "stateMutability": "view",
      "type": "function",
      "constant": true
    },
    {
      "inputs": [
        {
          "internalType": "bytes32",
          "name": "name",
          "type": "bytes32"
        },
        {
          "internalType": "enum MaterialType",
          "name": "mType",
          "type": "uint8"
        },
        {
          "internalType": "enum MaterialColor",
          "name": "mColor",
          "type": "uint8"
        },
        {
          "internalType": "uint256",
          "name": "quantityKG",
          "type": "uint256"
        },
        {
          "internalType": "uint256",
          "name": "printTemp",
          "type": "uint256"
        },
        {
          "internalType": "uint256",
          "name": "bedTemp",
          "type": "uint256"
        }
      ],
      "name": "addMaterials",
      "outputs": [],
      "stateMutability": "payable",
      "type": "function",
      "payable": true
    },
    {
      "inputs": [],
      "name": "getMaterials",
      "outputs": [
        {
          "components": [
            {
              "internalType": "bytes32",
              "name": "name",
              "type": "bytes32"
            },
            {
              "internalType": "enum MaterialType",
              "name": "mType",
              "type": "uint8"
            },
            {
              "internalType": "enum MaterialColor",
              "name": "color",
              "type": "uint8"
            },
            {
              "internalType": "uint256",
              "name": "quantityKG",
              "type": "uint256"
            },
            {
              "internalType": "uint256",
              "name": "printTemperature",
              "type": "uint256"
            },
            {
              "internalType": "uint256",
              "name": "bedTemperature",
              "type": "uint256"
            }
          ],
          "internalType": "struct MaterialDetails[]",
          "name": "av_materials",
          "type": "tuple[]"
        }
      ],
      "stateMutability": "view",
      "type": "function",
      "constant": true
    },
    {
      "inputs": [
        {
          "internalType": "bytes32",
          "name": "name",
          "type": "bytes32"
        },
        {
          "internalType": "enum MaterialType",
          "name": "mType",
          "type": "uint8"
        },
        {
          "internalType": "enum MaterialColor",
          "name": "mColor",
          "type": "uint8"
        },
        {
          "internalType": "uint256",
          "name": "quantityKG",
          "type": "uint256"
        },
        {
          "internalType": "uint256",
          "name": "printTemp",
          "type": "uint256"
        },
        {
          "internalType": "uint256",
          "name": "bedTemp",
          "type": "uint256"
        }
      ],
      "name": "updateMaterial",
      "outputs": [],
      "stateMutability": "payable",
      "type": "function",
      "payable": true
    },
    {
      "inputs": [
        {
          "internalType": "bytes32",
          "name": "name",
          "type": "bytes32"
        },
        {
          "internalType": "enum MaterialType",
          "name": "mType",
          "type": "uint8"
        },
        {
          "internalType": "uint256",
          "name": "index",
          "type": "uint256"
        }
      ],
      "name": "removeMaterial",
      "outputs": [],
      "stateMutability": "payable",
      "type": "function",
      "payable": true
    },
    {
      "inputs": [
        {
          "internalType": "bytes32",
          "name": "name",
          "type": "bytes32"
        },
        {
          "internalType": "enum MaterialType",
          "name": "mType",
          "type": "uint8"
        },
        {
          "internalType": "uint256",
          "name": "printer",
          "type": "uint256"
        }
      ],
      "name": "mountMaterial",
      "outputs": [],
      "stateMutability": "payable",
      "type": "function",
      "payable": true
    },
    {
      "inputs": [
        {
          "internalType": "uint256",
          "name": "index",
          "type": "uint256"
        }
      ],
      "name": "RemovePrinter",
      "outputs": [],
      "stateMutability": "payable",
      "type": "function",
      "payable": true
    }
  ],
  "bytecode": "0x6101406040526000608081905260a081905260c081905260e08190526101008190526101208190528080556001805461ffff19169055600281905560038190556004553480156200004f57600080fd5b5060405162002bcf38038062002bcf833981016040819052620000729162000098565b600a80546001600160a01b0319166001600160a01b0392909216919091179055620000ca565b600060208284031215620000ab57600080fd5b81516001600160a01b0381168114620000c357600080fd5b9392505050565b612af580620000da6000396000f3fe60806040526004361061009c5760003560e01c806354bf79651161006457806354bf7965146101335780635582e543146101465780636b04fb47146101595780637be8eb451461017c57806380dfedcd1461018f578063b0980fdf146101b157600080fd5b8063017a33d5146100a15780630eb201fe146100b657806315e10e99146100eb57806320b83e21146100fe5780633bdda5e214610120575b600080fd5b6100b46100af366004612660565b6101de565b005b3480156100c257600080fd5b506100d66100d13660046125e9565b61076a565b60405190151581526020015b60405180910390f35b6100b46100f9366004612660565b6107d9565b34801561010a57600080fd5b50610113610ada565b6040516100e2919061287c565b6100b461012e3660046124fd565b610f0d565b6100b4610141366004612602565b611408565b6100b46101543660046125e9565b6116e7565b34801561016557600080fd5b5061016e6118f1565b6040519081526020016100e2565b6100b461018a366004612602565b61192c565b34801561019b57600080fd5b506101a4611c2d565b6040516100e2919061282e565b3480156101bd57600080fd5b506101d16101cc3660046125e9565b611ecb565b6040516100e2919061298e565b600a5460405163e75600c360e01b81523360048201526001600160a01b039091169063e75600c39060240160206040518083038186803b15801561022157600080fd5b505afa158015610235573d6000803e3d6000fd5b505050506040513d601f19601f8201168201806040525081019061025991906125c5565b15156001146102af5760405162461bcd60e51b815260206004820181905260248201527f4f6e6c79204d616b65722063616e2064656c657465204d6174657269616c732e60448201526064015b60405180910390fd5b6102b88361076a565b15156001146102d95760405162461bcd60e51b81526004016102a6906128de565b336000908152600860205260408120908360028111156102fb576102fb612a56565b600281111561030c5761030c612a56565b815260208082019290925260409081016000908120338252600890935290812060019185600281111561034157610341612a56565b600281111561035257610352612a56565b815260208101919091526040016000205461036d9190612a0e565b8154811061037d5761037d612a82565b60009182526020808320338452600890915260408320600590920201918460028111156103ac576103ac612a56565b60028111156103bd576103bd612a56565b815260200190815260200160002082815481106103dc576103dc612a82565b600091825260209091208254600590920201908155600180830154818301805460ff90921692909160ff19169083600281111561041b5761041b612a56565b0217905550600182810154908201805460ff61010093849004169261ff00199091169083600b81111561045057610450612a56565b02179055506002828101548282015560038084015490830155600492830154929091019190915533600090815260086020526040812091849081111561049857610498612a56565b60028111156104a9576104a9612a56565b81526020019081526020016000208054806104c6576104c6612a6c565b60008281526020812060056000199093019283020181815560018101805461ffff19169055600281018290556003810182905560040181905591555b336000908152600960205260409020548110156105f85733600090815260096020526040902080548591908390811061053d5761053d612a82565b906000526020600020015414156105e657336000908152600960205260409020805461056b90600190612a0e565b8154811061057b5761057b612a82565b6000918252602080832090910154338352600990915260409091208054839081106105a8576105a8612a82565b50503360009081526009602052604090208054909150806105cb576105cb612a6c565b600190038181906000526020600020016000905590556105f8565b806105f081612a25565b915050610502565b5060005b3360009081526007602052604090205481101561076457336000908152600560209081526040808320600790925282208054879391908590811061064257610642612a82565b60009182526020808320909101546001600160a01b031683528201929092526040019020600201541415610752573360009081526005602090815260408083206007909252822080548391908590811061069e5761069e612a82565b60009182526020808320909101546001600160a01b0316835282019290925260400190208154600280830191825560018481015460039094018054939460ff1693909260ff19909116919084908111156106fa576106fa612a56565b0217905550600182810154908201805460ff61010093849004169261ff00199091169083600b81111561072f5761072f612a56565b021790555060028281015490820155600380830154908201556004918201549101555b8061075c81612a25565b9150506105fc565b50505050565b600080805b336000908152600960205260409020548110156107d2573360009081526009602052604090208054859190839081106107aa576107aa612a82565b906000526020600020015414156107c057600191505b806107ca81612a25565b91505061076f565b5092915050565b600a5460405163e75600c360e01b81523360048201526001600160a01b039091169063e75600c39060240160206040518083038186803b15801561081c57600080fd5b505afa158015610830573d6000803e3d6000fd5b505050506040513d601f19601f8201168201806040525081019061085491906125c5565b15156001146108a55760405162461bcd60e51b815260206004820181905260248201527f4f6e6c79204d616b65722063616e2064656c657465204d6174657269616c732e60448201526064016102a6565b6108ae8361076a565b15156001146108cf5760405162461bcd60e51b81526004016102a6906128de565b60005b336000908152600860205260408120908460028111156108f4576108f4612a56565b600281111561090557610905612a56565b815260208101919091526040016000205481101561076457336000908152600860205260408120859185600281111561094057610940612a56565b600281111561095157610951612a56565b8152602001908152602001600020828154811061097057610970612a82565b9060005260206000209060050201600001541415610ac857336000908152600860205260408120908460028111156109aa576109aa612a56565b60028111156109bb576109bb612a56565b815260200190815260200160002081815481106109da576109da612a82565b60009182526020808320338452600580835260408086206007909452852080549490910290910193919286908110610a1457610a14612a82565b60009182526020808320909101546001600160a01b0316835282019290925260400190208154600280830191825560018481015460039094018054939460ff1693909260ff1990911691908490811115610a7057610a70612a56565b0217905550600182810154908201805460ff61010093849004169261ff00199091169083600b811115610aa557610aa5612a56565b021790555060028281015490820155600380830154908201556004918201549101555b80610ad281612a25565b9150506108d2565b600a54604051629c95e160e41b81523360048201526060916001600160a01b0316906309c95e109060240160206040518083038186803b158015610b1d57600080fd5b505afa158015610b31573d6000803e3d6000fd5b505050506040513d601f19601f82011682018060405250810190610b5591906125c5565b1515600114610b765760405162461bcd60e51b81526004016102a690612915565b600a5460405163e75600c360e01b81523360048201526001600160a01b039091169063e75600c39060240160206040518083038186803b158015610bb957600080fd5b505afa158015610bcd573d6000803e3d6000fd5b505050506040513d601f19601f82011682018060405250810190610bf191906125c5565b1515600114610c125760405162461bcd60e51b81526004016102a69061294c565b3360009081526007602052604090205467ffffffffffffffff811115610c3a57610c3a612a98565b604051908082528060200260200182016040528015610c7357816020015b610c60612257565b815260200190600190039081610c585790505b50905060005b33600090815260076020526040902054811015610f095733600090815260056020908152604080832060079092528220805491929184908110610cbe57610cbe612a82565b60009182526020808320909101546001600160a01b031683528281019390935260409182019020815161016081018352815481526001820180548451818702810187019095528085529194929385840193909290830182828015610d7157602002820191906000526020600020906000905b82829054906101000a900460ff166002811115610d4f57610d4f612a56565b815260206001928301818104948501949093039092029101808411610d305790505b50505050508152602001600282016040518060c0016040529081600082015481526020016001820160009054906101000a900460ff166002811115610db857610db8612a56565b6002811115610dc957610dc9612a56565b81526020016001820160019054906101000a900460ff16600b811115610df157610df1612a56565b600b811115610e0257610e02612a56565b81526020016002820154815260200160038201548152602001600482015481525050815260200160078201805480602002602001604051908101604052809291908181526020018280548015610e7757602002820191906000526020600020905b815481526020019060010190808311610e63575b50505091835250506008820154602082015260098201546040820152600a8201546060820152600b8201546080820152600c9091015460ff808216151560a084015261010082048116151560c08401526201000090910416151560e0909101528251839083908110610eeb57610eeb612a82565b60200260200101819052508080610f0190612a25565b915050610c79565b5090565b600a54604051629c95e160e41b81523360048201526001600160a01b03909116906309c95e109060240160206040518083038186803b158015610f4f57600080fd5b505afa158015610f63573d6000803e3d6000fd5b505050506040513d601f19601f82011682018060405250810190610f8791906125c5565b1515600114610fa85760405162461bcd60e51b81526004016102a690612915565b600a5460405163e75600c360e01b81523360048201526001600160a01b039091169063e75600c39060240160206040518083038186803b158015610feb57600080fd5b505afa158015610fff573d6000803e3d6000fd5b505050506040513d601f19601f8201168201806040525081019061102391906125c5565b15156001146110745760405162461bcd60e51b815260206004820152601c60248201527f4f6e6c79204d616b65722063616e20616464205072696e746572732e0000000060448201526064016102a6565b60408051610160810182528a815260208082018b9052825160c081018452600080548252600154909484019285919083019060ff1660028111156110ba576110ba612a56565b60028111156110cb576110cb612a56565b81526020016001820160019054906101000a900460ff16600b8111156110f3576110f3612a56565b600b81111561110457611104612a56565b815260200160028201548152602001600382015481526020016004820154815250508152602001898152602001888152602001878152602001868152602001858152602001841515815260200183151581526020016001151581525090508060056000336001600160a01b03166001600160a01b0316815260200190815260200160002060008d6001600160a01b03166001600160a01b031681526020019081526020016000206000820151816000015560208201518160010190805190602001906111d19291906122ee565b5060408201518051600280840191825560208301516003850180549192909160ff191690600190849081111561120957611209612a56565b0217905550604082015160018201805461ff00191661010083600b81111561123357611233612a56565b021790555060608281015160028301556080830151600383015560a090920151600490910155820151805161127291600784019160209091019061239e565b506080820151816008015560a0820151816009015560c082015181600a015560e082015181600b015561010082015181600c0160006101000a81548160ff02191690831515021790555061012082015181600c0160016101000a81548160ff02191690831515021790555061014082015181600c0160026101000a81548160ff021916908315150217905550905050600160066000336001600160a01b03166001600160a01b0316815260200190815260200160002060006101000a81548160ff02191690831515021790555060076000336001600160a01b03166001600160a01b031681526020019081526020016000208b9080600181540180825580915050600190039060005260206000200160009091909190916101000a8154816001600160a01b0302191690836001600160a01b031602179055507f68f1f4a765c80cce6152bba70adcfe422531198b0d733f8555bd9b2f1c0feb443360016040516113f39291906001600160a01b039290921682521515602082015260400190565b60405180910390a15050505050505050505050565b600a5460405163e75600c360e01b81523360048201526001600160a01b039091169063e75600c39060240160206040518083038186803b15801561144b57600080fd5b505afa15801561145f573d6000803e3d6000fd5b505050506040513d601f19601f8201168201806040525081019061148391906125c5565b15156001146114d45760405162461bcd60e51b815260206004820152601c60248201527f4f6e6c79204d616b65722063616e20616464204d6174657269616c2e0000000060448201526064016102a6565b600084600b8111156114e8576114e8612a56565b14156115285760405162461bcd60e51b815260206004820152600f60248201526e10dbdb1bdc881b9bdd081d985b1a59608a1b60448201526064016102a6565b6115318661076a565b156115915760405162461bcd60e51b815260206004820152602a60248201527f546865726520697320616c72656164792061206d6174657269616c20776974686044820152692074686973206e616d6560b01b60648201526084016102a6565b60006040518060c001604052808881526020018760028111156115b6576115b6612a56565b815260200186600b8111156115cd576115cd612a56565b8152602080820187905260408083018790526060909201859052336000908152600890915290812091925087600281111561160a5761160a612a56565b600281111561161b5761161b612a56565b81526020808201929092526040016000908120805460018181018355918352918390208451600590930201918255918301518183018054859460ff199091169083600281111561166d5761166d612a56565b0217905550604082015160018201805461ff00191661010083600b81111561169757611697612a56565b0217905550606082015160028201556080820151600382015560a0909101516004909101555050336000908152600960209081526040822080546001810182559083529120019490945550505050565b600a54604051629c95e160e41b81523360048201526001600160a01b03909116906309c95e109060240160206040518083038186803b15801561172957600080fd5b505afa15801561173d573d6000803e3d6000fd5b505050506040513d601f19601f8201168201806040525081019061176191906125c5565b15156001146117825760405162461bcd60e51b81526004016102a690612915565b600a5460405163e75600c360e01b81523360048201526001600160a01b039091169063e75600c39060240160206040518083038186803b1580156117c557600080fd5b505afa1580156117d9573d6000803e3d6000fd5b505050506040513d601f19601f820116820180604052508101906117fd91906125c5565b151560011461181e5760405162461bcd60e51b81526004016102a69061294c565b336000908152600760205260409020805461183b90600190612a0e565b8154811061184b5761184b612a82565b60009182526020808320909101543383526007909152604090912080546001600160a01b03909216918390811061188457611884612a82565b600091825260208083209190910180546001600160a01b0319166001600160a01b0394909416939093179092553381526007909152604090208054806118cc576118cc612a6c565b600082815260209020810160001990810180546001600160a01b031916905501905550565b6000805b33600090815260076020526040902054811015610f09578161191681612a25565b925050808061192490612a25565b9150506118f5565b600a5460405163e75600c360e01b81523360048201526001600160a01b039091169063e75600c39060240160206040518083038186803b15801561196f57600080fd5b505afa158015611983573d6000803e3d6000fd5b505050506040513d601f19601f820116820180604052508101906119a791906125c5565b15156001146119f85760405162461bcd60e51b815260206004820181905260248201527f4f6e6c79204d616b65722063616e20757064617465204d6174657269616c732e60448201526064016102a6565b611a018661076a565b1515600114611a225760405162461bcd60e51b81526004016102a6906128de565b60005b33600090815260086020526040812090876002811115611a4757611a47612a56565b6002811115611a5857611a58612a56565b8152602081019190915260400160002054811015611c24573360009081526008602052604081208891886002811115611a9357611a93612a56565b6002811115611aa457611aa4612a56565b81526020019081526020016000208281548110611ac357611ac3612a82565b9060005260206000209060050201600001541415611c12576040518060c00160405280888152602001876002811115611afe57611afe612a56565b815260200186600b811115611b1557611b15612a56565b8152602080820187905260408083018790526060909201859052336000908152600890915290812090886002811115611b5057611b50612a56565b6002811115611b6157611b61612a56565b81526020019081526020016000208281548110611b8057611b80612a82565b90600052602060002090600502016000820151816000015560208201518160010160006101000a81548160ff02191690836002811115611bc257611bc2612a56565b0217905550604082015160018201805461ff00191661010083600b811115611bec57611bec612a56565b0217905550606082015160028201556080820151600382015560a0909101516004909101555b80611c1c81612a25565b915050611a25565b50505050505050565b336000908152600860209081526040808320600184529091528082205460028352818320548380529183205460609392611c66916129f6565b611c7091906129f6565b90508067ffffffffffffffff811115611c8b57611c8b612a98565b604051908082528060200260200182016040528015611cf657816020015b611ce36040805160c08101909152600080825260208201908152602001600081526020016000815260200160008152602001600081525090565b815260200190600190039081611ca95790505b50915060005b6003811015611ec65760005b33600090815260086020526040812090836002811115611d2a57611d2a612a56565b6002811115611d3b57611d3b612a56565b6002811115611d4c57611d4c612a56565b8152602081019190915260400160002054811015611eb35733600090815260086020526040812090836002811115611d8657611d86612a56565b6002811115611d9757611d97612a56565b6002811115611da857611da8612a56565b81526020019081526020016000208181548110611dc757611dc7612a82565b90600052602060002090600502016040518060c0016040529081600082015481526020016001820160009054906101000a900460ff166002811115611e0e57611e0e612a56565b6002811115611e1f57611e1f612a56565b81526020016001820160019054906101000a900460ff16600b811115611e4757611e47612a56565b600b811115611e5857611e58612a56565b8152600282015460208201526003820154604082015260049091015460609091015284611e8583856129f6565b81518110611e9557611e95612a82565b60200260200101819052508080611eab90612a25565b915050611d08565b5080611ebe81612a25565b915050611cfc565b505090565b611ed3612257565b600a54604051629c95e160e41b81523360048201526001600160a01b03909116906309c95e109060240160206040518083038186803b158015611f1557600080fd5b505afa158015611f29573d6000803e3d6000fd5b505050506040513d601f19601f82011682018060405250810190611f4d91906125c5565b1515600114611f6e5760405162461bcd60e51b81526004016102a690612915565b600a5460405163e75600c360e01b81523360048201526001600160a01b039091169063e75600c39060240160206040518083038186803b158015611fb157600080fd5b505afa158015611fc5573d6000803e3d6000fd5b505050506040513d601f19601f82011682018060405250810190611fe991906125c5565b151560011461200a5760405162461bcd60e51b81526004016102a69061294c565b3360009081526005602090815260408083206007909252822080549192918590811061203857612038612a82565b60009182526020808320909101546001600160a01b0316835282810193909352604091820190208151610160810183528154815260018201805484518187028101870190955280855291949293858401939092908301828280156120eb57602002820191906000526020600020906000905b82829054906101000a900460ff1660028111156120c9576120c9612a56565b8152602060019283018181049485019490930390920291018084116120aa5790505b50505050508152602001600282016040518060c0016040529081600082015481526020016001820160009054906101000a900460ff16600281111561213257612132612a56565b600281111561214357612143612a56565b81526020016001820160019054906101000a900460ff16600b81111561216b5761216b612a56565b600b81111561217c5761217c612a56565b815260200160028201548152602001600382015481526020016004820154815250508152602001600782018054806020026020016040519081016040528092919081815260200182805480156121f157602002820191906000526020600020905b8154815260200190600101908083116121dd575b50505091835250506008820154602082015260098201546040820152600a8201546060820152600b8201546080820152600c9091015460ff808216151560a084015261010082048116151560c08401526201000090910416151560e09091015292915050565b604080516101608101825260008152606060208201529081016122aa6040805160c08101909152600080825260208201908152602001600081526020016000815260200160008152602001600081525090565b815260200160608152602001600081526020016000815260200160008152602001600081526020016000151581526020016000151581526020016000151581525090565b82805482825590600052602060002090601f016020900481019282156123925791602002820160005b8382111561236357835183826101000a81548160ff0219169083600281111561234257612342612a56565b02179055509260200192600101602081600001049283019260010302612317565b80156123905782816101000a81549060ff0219169055600101602081600001049283019260010302612363565b505b50610f099291506123d9565b828054828255906000526020600020908101928215612392579160200282015b828111156123925782518255916020019190600101906123be565b5b80821115610f0957600081556001016123da565b80356001600160a01b038116811461240557600080fd5b919050565b600082601f83011261241b57600080fd5b8135602061243061242b836129d2565b6129a1565b80838252828201915082860187848660051b890101111561245057600080fd5b60005b8581101561247657612464826124ee565b84529284019290840190600101612453565b5090979650505050505050565b600082601f83011261249457600080fd5b813560206124a461242b836129d2565b80838252828201915082860187848660051b89010111156124c457600080fd5b60005b85811015612476578135845292840192908401906001016124c7565b803561240581612aae565b80356003811061240557600080fd5b6000806000806000806000806000806101408b8d03121561251d57600080fd5b6125268b6123ee565b995060208b0135985060408b013567ffffffffffffffff8082111561254a57600080fd5b6125568e838f0161240a565b995060608d013591508082111561256c57600080fd5b506125798d828e01612483565b97505060808b0135955060a08b0135945060c08b0135935060e08b013592506125a56101008c016124e3565b91506125b46101208c016124e3565b90509295989b9194979a5092959850565b6000602082840312156125d757600080fd5b81516125e281612aae565b9392505050565b6000602082840312156125fb57600080fd5b5035919050565b60008060008060008060c0878903121561261b57600080fd5b8635955061262b602088016124ee565b94506040870135600c811061263f57600080fd5b959894975094956060810135955060808101359460a0909101359350915050565b60008060006060848603121561267557600080fd5b83359250612685602085016124ee565b9150604084013590509250925092565b600081518084526020808501945080840160005b838110156126cc576126bc878351612707565b95820195908201906001016126a9565b509495945050505050565b600081518084526020808501945080840160005b838110156126cc578151875295820195908201906001016126eb565b6003811061271757612717612a56565b9052565b8051825260208101516127316020840182612707565b506040810151600c811061274757612747612a56565b6040830152606081810151908301526080808201519083015260a090810151910152565b600061020082518452602083015181602086015261278b82860182612695565b91505060408301516127a0604086018261271b565b506060830151610100858303818701526127ba83836126d7565b925060808501519150610120828188015260a08601519250610140838189015260c087015161016089015260e08701516101808901528287015193506128056101a089018515159052565b9086015115156101c08801528501518015156101e088015291506128269050565b509392505050565b6020808252825182820181905260009190848201906040850190845b818110156128705761285d83855161271b565b9284019260c0929092019160010161284a565b50909695505050505050565b6000602080830181845280855180835260408601915060408160051b870101925083870160005b828110156128d157603f198886030184526128bf85835161276b565b945092850192908501906001016128a3565b5092979650505050505050565b6020808252601a908201527f4e6f206d6174657269616c20776974682074686973206e616d65000000000000604082015260600190565b60208082526019908201527f506c61796572206e6f7420696e207468652073797374656d2e00000000000000604082015260600190565b60208082526022908201527f4f6e6c79204d616b65722063616e20676574207468656972205072696e746572604082015261399760f11b606082015260800190565b6020815260006125e2602083018461276b565b604051601f8201601f1916810167ffffffffffffffff811182821017156129ca576129ca612a98565b604052919050565b600067ffffffffffffffff8211156129ec576129ec612a98565b5060051b60200190565b60008219821115612a0957612a09612a40565b500190565b600082821015612a2057612a20612a40565b500390565b6000600019821415612a3957612a39612a40565b5060010190565b634e487b7160e01b600052601160045260246000fd5b634e487b7160e01b600052602160045260246000fd5b634e487b7160e01b600052603160045260246000fd5b634e487b7160e01b600052603260045260246000fd5b634e487b7160e01b600052604160045260246000fd5b8015158114612abc57600080fd5b5056fea264697066735822122098af090849968075791ae8b8bdb9eb1ccb934774ec8eb6d269cde8b4063dd14064736f6c63430008070033",
  "immutableReferences": {},
  "source": "/*\r\n * @author Pipitone Antonio \r\n * @SPDX-License-Identifier: UNLICENSED\r\n */\r\npragma solidity >=0.4.22 <0.9.0;\r\npragma experimental ABIEncoderV2;\r\n\r\nimport \"./Structs/OnBoardingStructs.sol\";\r\n\r\nabstract contract IUser{\r\n    mapping (address => bool) public isPlayer;\r\n    function isMaker(address adr) virtual public view returns(bool);\r\n}\r\n\r\ncontract OnBoarding {\r\n    //Printer\r\n    MaterialDetails private NONE = MaterialDetails(\"\",MaterialType.ABS,MaterialColor.NONE,0,0,0);\r\n\r\n     //Printers\r\n    mapping (address => mapping(address => Printer)) private printers;\r\n    mapping (address => bool) private isPrinter;\r\n    mapping (address => address[]) private makerPrinters;\r\n\r\n    //Material\r\n    mapping (address => mapping (MaterialType => MaterialDetails[]) ) private materials;\r\n    mapping (address => bytes32[]) private materialsName;\r\n\r\n    event newPrinterAddition(address player_address, bool status);\r\n\r\n    IUser private Iuser;\r\n    constructor(address _user){\r\n        Iuser = IUser(_user);\r\n    }\r\n\r\n\r\n    //Functions Printers\r\n    function addPrinter(\r\n        address printerAddress,\r\n        bytes32 name, \r\n        MaterialType[] memory suppertedMaterial,\r\n        uint256[] memory nozzles,\r\n        uint256 nozzlesMounted, \r\n        uint256 printTemperature, \r\n        uint256 bedTemperature, \r\n        uint256 volume, \r\n        bool soluble,\r\n        bool foodSafety\r\n    ) public payable{\r\n        require( Iuser.isPlayer(msg.sender) == true, \"Player not in the system.\");\r\n        require( Iuser.isMaker(msg.sender) == true, \"Only Maker can add Printers.\");\r\n\r\n        Printer memory newPrinter = Printer(\r\n                                            name,\r\n                                            suppertedMaterial,\r\n                                            NONE, \r\n                                            nozzles, \r\n                                            nozzlesMounted, \r\n                                            printTemperature, \r\n                                            bedTemperature, \r\n                                            volume, \r\n                                            soluble, \r\n                                            foodSafety,\r\n                                            true\r\n                                            );\r\n        printers[msg.sender][printerAddress] = (newPrinter);  \r\n        isPrinter[msg.sender] = true;\r\n        makerPrinters[msg.sender].push(printerAddress);\r\n\r\n\r\n        emit newPrinterAddition(msg.sender, true);\r\n    }\r\n\r\n    function getMakerPrinters() \r\n    public view \r\n    returns (Printer[] memory mprinters){\r\n        require( Iuser.isPlayer(msg.sender) == true, \"Player not in the system.\");\r\n        require( Iuser.isMaker(msg.sender) == true, \"Only Maker can get their Printers.\");\r\n        mprinters = new Printer[](makerPrinters[msg.sender].length);\r\n        for (uint i = 0; i < makerPrinters[msg.sender].length; i++) {\r\n            mprinters[i] = printers[msg.sender][makerPrinters[msg.sender][i]];\r\n        }\r\n        return mprinters;\r\n    }\r\n\r\n    function getMakerPrinter(uint256 index)\r\n    public view returns(Printer memory myPrinter)\r\n    {\r\n        require( Iuser.isPlayer(msg.sender) == true, \"Player not in the system.\");\r\n        require( Iuser.isMaker(msg.sender) == true, \"Only Maker can get their Printers.\");\r\n        myPrinter = printers[msg.sender][makerPrinters [msg.sender][index]];\r\n        return myPrinter;\r\n    }\r\n\r\n    function getMakerNPrinters()\r\n    public view\r\n    returns(uint256 Nprinters){\r\n        for (uint i = 0; i < makerPrinters[msg.sender].length; i++) {\r\n            Nprinters++;\r\n        }\r\n        return Nprinters;\r\n    }\r\n\r\n    //Functions Materials\r\n    function checkMaterial(bytes32 name) \r\n    public view returns(bool){\r\n        bool response = false;\r\n        for(uint i = 0; i < materialsName[msg.sender].length; i++ ){\r\n            if (materialsName[msg.sender][i] == name){\r\n                response = true;\r\n            }\r\n        }\r\n        return response;\r\n    }\r\n\r\n    function addMaterials(bytes32 name, MaterialType mType, MaterialColor mColor, uint256 quantityKG, uint256 printTemp, uint256 bedTemp)\r\n    public payable{\r\n        require( Iuser.isMaker(msg.sender) == true, \"Only Maker can add Material.\");\r\n        require(mColor != MaterialColor.NONE, \"Color not valid\");\r\n        require(checkMaterial(name) == false, \"There is already a material with this name\");\r\n        MaterialDetails memory newMaterial = MaterialDetails(name, mType,mColor, quantityKG, printTemp, bedTemp);    \r\n        materials[msg.sender][mType].push(newMaterial);\r\n        materialsName[msg.sender].push(name);\r\n    }\r\n\r\n    function getMaterials()\r\n    public view\r\n    returns (MaterialDetails[] memory av_materials){\r\n        \r\n        uint256 n_materials = materials[msg.sender][MaterialType.ABS].length+materials[msg.sender][MaterialType.PETG].length+materials[msg.sender][MaterialType.PLA].length;\r\n        av_materials = new MaterialDetails[](n_materials);\r\n        for (uint i = 0; i < 3; i++){\r\n            for(uint j=0; j < materials[msg.sender][MaterialType(i)].length; j++){\r\n                av_materials[i+j] = materials[msg.sender][MaterialType(i)][j];\r\n            }\r\n        }\r\n        return av_materials;\r\n    }\r\n\r\n    function updateMaterial(bytes32 name, MaterialType mType, MaterialColor mColor, uint256 quantityKG, uint256 printTemp, uint256 bedTemp)\r\n    public payable{\r\n        require( Iuser.isMaker(msg.sender) == true, \"Only Maker can update Materials.\");\r\n        require(checkMaterial(name) == true, \"No material with this name\");\r\n\r\n        for(uint j=0; j < materials[msg.sender][mType].length; j++){\r\n            if (materials[msg.sender][mType][j].name==name){\r\n                materials[msg.sender][mType][j] = MaterialDetails(name,mType, mColor, quantityKG, printTemp, bedTemp); \r\n            }\r\n        }\r\n    }\r\n\r\n    function removeMaterial(bytes32 name, MaterialType mType, uint256 index) \r\n    public payable{\r\n        require( Iuser.isMaker(msg.sender) == true, \"Only Maker can delete Materials.\");\r\n        require(checkMaterial(name) == true, \"No material with this name\");\r\n\r\n        /*for(uint j=0; j < materials[msg.sender][mType].length; j++){\r\n            if (materials[msg.sender][mType][j].name==name){\r\n                materials[msg.sender][mType][j] = NONE;\r\n            }\r\n        }*/\r\n        materials[msg.sender][mType][index]=materials[msg.sender][mType] [materials[msg.sender][mType].length-1];\r\n        materials[msg.sender][mType].pop();\r\n        for(uint256 i =0; i< materialsName[msg.sender].length;i++){\r\n            if(materialsName[msg.sender][i]== name){\r\n            materialsName[msg.sender][i]==materialsName[msg.sender][materialsName[msg.sender].length-1];\r\n            materialsName[msg.sender].pop();\r\n            break;\r\n            }\r\n        }\r\n        for (uint i = 0; i < makerPrinters[msg.sender].length; i++) {\r\n            if(printers[msg.sender][makerPrinters[msg.sender][i]].mountedMaterial.name == name){\r\n                printers[msg.sender][makerPrinters[msg.sender][i]].mountedMaterial = NONE;\r\n            }\r\n        }\r\n    }\r\n\r\n    function mountMaterial(bytes32 name, MaterialType mType, uint256 printer)\r\n    public payable{\r\n        require(Iuser.isMaker(msg.sender) == true, \"Only Maker can delete Materials.\");\r\n        require(checkMaterial(name) == true, \"No material with this name\");\r\n        \r\n        for(uint j=0; j < materials[msg.sender][mType].length; j++){\r\n            if (materials[msg.sender][mType][j].name==name){\r\n                printers[msg.sender][makerPrinters [msg.sender][printer]].mountedMaterial = materials[msg.sender][mType][j];\r\n            }       \r\n\r\n        }\r\n    }\r\n\r\n    function RemovePrinter(uint256 index)\r\n    public payable{\r\n        require( Iuser.isPlayer(msg.sender) == true, \"Player not in the system.\");\r\n        require( Iuser.isMaker(msg.sender) == true, \"Only Maker can get their Printers.\");\r\n        makerPrinters[msg.sender][index]=makerPrinters[msg.sender][makerPrinters[msg.sender].length -1];\r\n        makerPrinters[msg.sender].pop();\r\n    }\r\n\r\n}",
  "sourcePath": "C:\\Users\\giova\\OneDrive\\Desktop\\tirocinio\\prova\\smart-contract\\contracts\\1_OnBoarding\\OnBoarding.sol",
  "compiler": {
    "name": "solc",
    "version": "0.8.7+commit.e28d00a7.Emscripten.clang"
  },
  "schemaVersion": "3.4.3",
  "updatedAt": "2022-05-27T08:01:41.072Z",
  "networkType": "ethereum",
  "devdoc": {
    "kind": "dev",
    "methods": {},
    "version": 1
  },
  "userdoc": {
    "kind": "user",
    "methods": {},
    "version": 1
  }
}