{
  "contractName": "VotingSystem",
  "abi": [
    {
      "inputs": [
        {
          "internalType": "address",
          "name": "_address",
          "type": "address"
        }
      ],
      "stateMutability": "nonpayable",
      "type": "constructor"
    },
    {
      "anonymous": false,
      "inputs": [
        {
          "indexed": false,
          "internalType": "bytes32",
          "name": "file_hash",
          "type": "bytes32"
        },
        {
          "indexed": false,
          "internalType": "uint256",
          "name": "design_number",
          "type": "uint256"
        },
        {
          "indexed": false,
          "internalType": "address",
          "name": "creator",
          "type": "address"
        }
      ],
      "name": "newDesignAvailable",
      "type": "event"
    },
    {
      "anonymous": false,
      "inputs": [
        {
          "indexed": false,
          "internalType": "address",
          "name": "player_address",
          "type": "address"
        },
        {
          "indexed": false,
          "internalType": "bool",
          "name": "status",
          "type": "bool"
        }
      ],
      "name": "newPlayerAddition",
      "type": "event"
    },
    {
      "anonymous": false,
      "inputs": [
        {
          "indexed": false,
          "internalType": "address",
          "name": "player_address",
          "type": "address"
        },
        {
          "indexed": false,
          "internalType": "uint256",
          "name": "design_number",
          "type": "uint256"
        },
        {
          "indexed": false,
          "internalType": "bool",
          "name": "status",
          "type": "bool"
        }
      ],
      "name": "newPlayerRegistration",
      "type": "event"
    },
    {
      "anonymous": false,
      "inputs": [
        {
          "indexed": false,
          "internalType": "address",
          "name": "player_address",
          "type": "address"
        },
        {
          "indexed": false,
          "internalType": "bool",
          "name": "status",
          "type": "bool"
        }
      ],
      "name": "newPrinterAddition",
      "type": "event"
    },
    {
      "anonymous": false,
      "inputs": [
        {
          "indexed": false,
          "internalType": "uint256",
          "name": "design_number",
          "type": "uint256"
        },
        {
          "indexed": false,
          "internalType": "address",
          "name": "vendor",
          "type": "address"
        },
        {
          "indexed": false,
          "internalType": "uint256",
          "name": "time",
          "type": "uint256"
        }
      ],
      "name": "phase2Begin",
      "type": "event"
    },
    {
      "anonymous": false,
      "inputs": [
        {
          "indexed": false,
          "internalType": "uint256",
          "name": "design_number",
          "type": "uint256"
        },
        {
          "indexed": false,
          "internalType": "address",
          "name": "player_address",
          "type": "address"
        }
      ],
      "name": "playerCommitted",
      "type": "event"
    },
    {
      "anonymous": false,
      "inputs": [
        {
          "indexed": false,
          "internalType": "uint256",
          "name": "design_number",
          "type": "uint256"
        },
        {
          "indexed": false,
          "internalType": "address",
          "name": "player_address",
          "type": "address"
        }
      ],
      "name": "playerDesignReceived",
      "type": "event"
    },
    {
      "anonymous": false,
      "inputs": [
        {
          "indexed": false,
          "internalType": "uint256",
          "name": "design_number",
          "type": "uint256"
        },
        {
          "indexed": false,
          "internalType": "address",
          "name": "player_address",
          "type": "address"
        }
      ],
      "name": "playerRevealed",
      "type": "event"
    },
    {
      "anonymous": false,
      "inputs": [
        {
          "indexed": false,
          "internalType": "uint256",
          "name": "design_number",
          "type": "uint256"
        },
        {
          "indexed": false,
          "internalType": "address",
          "name": "player_address",
          "type": "address"
        },
        {
          "indexed": false,
          "internalType": "address",
          "name": "printer_address",
          "type": "address"
        }
      ],
      "name": "proofAdded",
      "type": "event"
    },
    {
      "anonymous": false,
      "inputs": [
        {
          "indexed": false,
          "internalType": "bytes32",
          "name": "file_hash",
          "type": "bytes32"
        },
        {
          "indexed": false,
          "internalType": "uint256",
          "name": "design_number",
          "type": "uint256"
        },
        {
          "indexed": false,
          "internalType": "address",
          "name": "creator",
          "type": "address"
        }
      ],
      "name": "resultCalculated",
      "type": "event"
    },
    {
      "anonymous": false,
      "inputs": [
        {
          "indexed": false,
          "internalType": "address",
          "name": "_output",
          "type": "address"
        }
      ],
      "name": "tempOutput",
      "type": "event"
    },
    {
      "anonymous": false,
      "inputs": [
        {
          "indexed": false,
          "internalType": "int256",
          "name": "result",
          "type": "int256"
        }
      ],
      "name": "votingResult",
      "type": "event"
    },
    {
      "inputs": [
        {
          "internalType": "address",
          "name": "",
          "type": "address"
        },
        {
          "internalType": "address",
          "name": "",
          "type": "address"
        }
      ],
      "name": "AllDesign",
      "outputs": [
        {
          "internalType": "bytes32",
          "name": "filehash",
          "type": "bytes32"
        },
        {
          "internalType": "address",
          "name": "vendor",
          "type": "address"
        },
        {
          "internalType": "uint256",
          "name": "timestamp",
          "type": "uint256"
        },
        {
          "internalType": "uint256",
          "name": "balance",
          "type": "uint256"
        },
        {
          "components": [
            {
              "internalType": "uint256",
              "name": "statusPhase_1",
              "type": "uint256"
            },
            {
              "internalType": "uint256",
              "name": "statusPhase_2",
              "type": "uint256"
            }
          ],
          "internalType": "struct status",
          "name": "statusPhase",
          "type": "tuple"
        },
        {
          "internalType": "uint256",
          "name": "taup",
          "type": "uint256"
        },
        {
          "internalType": "uint256",
          "name": "taur",
          "type": "uint256"
        },
        {
          "internalType": "uint256",
          "name": "deltaExp",
          "type": "uint256"
        },
        {
          "internalType": "uint256",
          "name": "deltaReveal",
          "type": "uint256"
        },
        {
          "components": [
            {
              "internalType": "int256",
              "name": "resultPhase_1",
              "type": "int256"
            },
            {
              "internalType": "int256",
              "name": "resultPhase_2",
              "type": "int256"
            }
          ],
          "internalType": "struct voteVerdict",
          "name": "result1",
          "type": "tuple"
        },
        {
          "internalType": "enum votingState",
          "name": "phase",
          "type": "uint8"
        }
      ],
      "stateMutability": "view",
      "type": "function",
      "constant": true
    },
    {
      "inputs": [
        {
          "internalType": "uint256",
          "name": "",
          "type": "uint256"
        },
        {
          "internalType": "address",
          "name": "",
          "type": "address"
        }
      ],
      "name": "TcheckPlayers",
      "outputs": [
        {
          "internalType": "bytes32",
          "name": "filehash",
          "type": "bytes32"
        },
        {
          "internalType": "address",
          "name": "vendor",
          "type": "address"
        },
        {
          "internalType": "uint256",
          "name": "timestamp",
          "type": "uint256"
        },
        {
          "internalType": "uint256",
          "name": "balance",
          "type": "uint256"
        },
        {
          "components": [
            {
              "internalType": "uint256",
              "name": "statusPhase_1",
              "type": "uint256"
            },
            {
              "internalType": "uint256",
              "name": "statusPhase_2",
              "type": "uint256"
            }
          ],
          "internalType": "struct status",
          "name": "statusPhase",
          "type": "tuple"
        },
        {
          "internalType": "uint256",
          "name": "taup",
          "type": "uint256"
        },
        {
          "internalType": "uint256",
          "name": "taur",
          "type": "uint256"
        },
        {
          "internalType": "uint256",
          "name": "deltaExp",
          "type": "uint256"
        },
        {
          "internalType": "uint256",
          "name": "deltaReveal",
          "type": "uint256"
        },
        {
          "components": [
            {
              "internalType": "int256",
              "name": "resultPhase_1",
              "type": "int256"
            },
            {
              "internalType": "int256",
              "name": "resultPhase_2",
              "type": "int256"
            }
          ],
          "internalType": "struct voteVerdict",
          "name": "result1",
          "type": "tuple"
        },
        {
          "internalType": "enum votingState",
          "name": "phase",
          "type": "uint8"
        }
      ],
      "stateMutability": "view",
      "type": "function",
      "constant": true
    },
    {
      "inputs": [
        {
          "internalType": "address",
          "name": "",
          "type": "address"
        },
        {
          "internalType": "uint256",
          "name": "",
          "type": "uint256"
        }
      ],
      "name": "UserDesign",
      "outputs": [
        {
          "internalType": "address",
          "name": "",
          "type": "address"
        }
      ],
      "stateMutability": "view",
      "type": "function",
      "constant": true
    },
    {
      "inputs": [
        {
          "internalType": "uint256",
          "name": "",
          "type": "uint256"
        },
        {
          "internalType": "address",
          "name": "",
          "type": "address"
        }
      ],
      "name": "checkPlayer",
      "outputs": [
        {
          "internalType": "bool",
          "name": "",
          "type": "bool"
        }
      ],
      "stateMutability": "view",
      "type": "function",
      "constant": true
    },
    {
      "inputs": [
        {
          "internalType": "uint256",
          "name": "",
          "type": "uint256"
        }
      ],
      "name": "designes",
      "outputs": [
        {
          "internalType": "bytes32",
          "name": "filehash",
          "type": "bytes32"
        },
        {
          "internalType": "address",
          "name": "vendor",
          "type": "address"
        },
        {
          "internalType": "uint256",
          "name": "timestamp",
          "type": "uint256"
        },
        {
          "internalType": "uint256",
          "name": "balance",
          "type": "uint256"
        },
        {
          "components": [
            {
              "internalType": "uint256",
              "name": "statusPhase_1",
              "type": "uint256"
            },
            {
              "internalType": "uint256",
              "name": "statusPhase_2",
              "type": "uint256"
            }
          ],
          "internalType": "struct status",
          "name": "statusPhase",
          "type": "tuple"
        },
        {
          "internalType": "uint256",
          "name": "taup",
          "type": "uint256"
        },
        {
          "internalType": "uint256",
          "name": "taur",
          "type": "uint256"
        },
        {
          "internalType": "uint256",
          "name": "deltaExp",
          "type": "uint256"
        },
        {
          "internalType": "uint256",
          "name": "deltaReveal",
          "type": "uint256"
        },
        {
          "components": [
            {
              "internalType": "int256",
              "name": "resultPhase_1",
              "type": "int256"
            },
            {
              "internalType": "int256",
              "name": "resultPhase_2",
              "type": "int256"
            }
          ],
          "internalType": "struct voteVerdict",
          "name": "result1",
          "type": "tuple"
        },
        {
          "internalType": "enum votingState",
          "name": "phase",
          "type": "uint8"
        }
      ],
      "stateMutability": "view",
      "type": "function",
      "constant": true
    },
    {
      "inputs": [],
      "name": "numDesignes",
      "outputs": [
        {
          "internalType": "uint256",
          "name": "",
          "type": "uint256"
        }
      ],
      "stateMutability": "view",
      "type": "function",
      "constant": true
    },
    {
      "inputs": [
        {
          "internalType": "address",
          "name": "",
          "type": "address"
        },
        {
          "internalType": "uint256",
          "name": "",
          "type": "uint256"
        }
      ],
      "name": "playerVote",
      "outputs": [
        {
          "internalType": "int256",
          "name": "votingStage1",
          "type": "int256"
        },
        {
          "internalType": "int256",
          "name": "votingStage2",
          "type": "int256"
        },
        {
          "internalType": "enum votingState",
          "name": "phase",
          "type": "uint8"
        },
        {
          "internalType": "enum revealVote",
          "name": "reveal_1",
          "type": "uint8"
        },
        {
          "internalType": "enum revealVote",
          "name": "reveal_2",
          "type": "uint8"
        }
      ],
      "stateMutability": "view",
      "type": "function",
      "constant": true
    },
    {
      "inputs": [
        {
          "internalType": "uint256",
          "name": "",
          "type": "uint256"
        },
        {
          "internalType": "uint256",
          "name": "",
          "type": "uint256"
        }
      ],
      "name": "regPlayers",
      "outputs": [
        {
          "internalType": "address",
          "name": "",
          "type": "address"
        }
      ],
      "stateMutability": "view",
      "type": "function",
      "constant": true
    },
    {
      "inputs": [
        {
          "internalType": "address",
          "name": "",
          "type": "address"
        },
        {
          "internalType": "uint256",
          "name": "",
          "type": "uint256"
        }
      ],
      "name": "userDesignCommitment",
      "outputs": [
        {
          "internalType": "bytes32",
          "name": "",
          "type": "bytes32"
        }
      ],
      "stateMutability": "view",
      "type": "function",
      "constant": true
    },
    {
      "inputs": [],
      "name": "getPlayer",
      "outputs": [
        {
          "internalType": "bool",
          "name": "",
          "type": "bool"
        }
      ],
      "stateMutability": "view",
      "type": "function",
      "constant": true
    },
    {
      "inputs": [
        {
          "internalType": "bytes32",
          "name": "_fileHash",
          "type": "bytes32"
        },
        {
          "internalType": "uint256",
          "name": "_timestamp",
          "type": "uint256"
        },
        {
          "internalType": "uint256",
          "name": "_commitment",
          "type": "uint256"
        },
        {
          "internalType": "uint256",
          "name": "_taur",
          "type": "uint256"
        },
        {
          "internalType": "uint256",
          "name": "_taup",
          "type": "uint256"
        }
      ],
      "name": "announce",
      "outputs": [],
      "stateMutability": "payable",
      "type": "function",
      "payable": true
    },
    {
      "inputs": [],
      "name": "getDesignes",
      "outputs": [
        {
          "components": [
            {
              "internalType": "bytes32",
              "name": "filehash",
              "type": "bytes32"
            },
            {
              "internalType": "address",
              "name": "vendor",
              "type": "address"
            },
            {
              "internalType": "uint256",
              "name": "timestamp",
              "type": "uint256"
            },
            {
              "internalType": "uint256",
              "name": "balance",
              "type": "uint256"
            },
            {
              "components": [
                {
                  "internalType": "uint256",
                  "name": "statusPhase_1",
                  "type": "uint256"
                },
                {
                  "internalType": "uint256",
                  "name": "statusPhase_2",
                  "type": "uint256"
                }
              ],
              "internalType": "struct status",
              "name": "statusPhase",
              "type": "tuple"
            },
            {
              "internalType": "uint256",
              "name": "taup",
              "type": "uint256"
            },
            {
              "internalType": "uint256",
              "name": "taur",
              "type": "uint256"
            },
            {
              "internalType": "uint256",
              "name": "deltaExp",
              "type": "uint256"
            },
            {
              "internalType": "uint256",
              "name": "deltaReveal",
              "type": "uint256"
            },
            {
              "components": [
                {
                  "internalType": "int256",
                  "name": "resultPhase_1",
                  "type": "int256"
                },
                {
                  "internalType": "int256",
                  "name": "resultPhase_2",
                  "type": "int256"
                }
              ],
              "internalType": "struct voteVerdict",
              "name": "result1",
              "type": "tuple"
            },
            {
              "internalType": "enum votingState",
              "name": "phase",
              "type": "uint8"
            }
          ],
          "internalType": "struct designState[]",
          "name": "mdesign",
          "type": "tuple[]"
        }
      ],
      "stateMutability": "view",
      "type": "function",
      "constant": true
    },
    {
      "inputs": [],
      "name": "getNumDesignes",
      "outputs": [
        {
          "internalType": "uint256",
          "name": "",
          "type": "uint256"
        }
      ],
      "stateMutability": "view",
      "type": "function",
      "constant": true
    },
    {
      "inputs": [
        {
          "internalType": "uint256",
          "name": "_index",
          "type": "uint256"
        }
      ],
      "name": "getDesigne",
      "outputs": [
        {
          "components": [
            {
              "internalType": "bytes32",
              "name": "filehash",
              "type": "bytes32"
            },
            {
              "internalType": "address",
              "name": "vendor",
              "type": "address"
            },
            {
              "internalType": "uint256",
              "name": "timestamp",
              "type": "uint256"
            },
            {
              "internalType": "uint256",
              "name": "balance",
              "type": "uint256"
            },
            {
              "components": [
                {
                  "internalType": "uint256",
                  "name": "statusPhase_1",
                  "type": "uint256"
                },
                {
                  "internalType": "uint256",
                  "name": "statusPhase_2",
                  "type": "uint256"
                }
              ],
              "internalType": "struct status",
              "name": "statusPhase",
              "type": "tuple"
            },
            {
              "internalType": "uint256",
              "name": "taup",
              "type": "uint256"
            },
            {
              "internalType": "uint256",
              "name": "taur",
              "type": "uint256"
            },
            {
              "internalType": "uint256",
              "name": "deltaExp",
              "type": "uint256"
            },
            {
              "internalType": "uint256",
              "name": "deltaReveal",
              "type": "uint256"
            },
            {
              "components": [
                {
                  "internalType": "int256",
                  "name": "resultPhase_1",
                  "type": "int256"
                },
                {
                  "internalType": "int256",
                  "name": "resultPhase_2",
                  "type": "int256"
                }
              ],
              "internalType": "struct voteVerdict",
              "name": "result1",
              "type": "tuple"
            },
            {
              "internalType": "enum votingState",
              "name": "phase",
              "type": "uint8"
            }
          ],
          "internalType": "struct designState",
          "name": "",
          "type": "tuple"
        }
      ],
      "stateMutability": "view",
      "type": "function",
      "constant": true
    },
    {
      "inputs": [
        {
          "internalType": "address",
          "name": "_playerAddress",
          "type": "address"
        },
        {
          "internalType": "uint256",
          "name": "_designNo",
          "type": "uint256"
        }
      ],
      "name": "getPlayerVotePhase1",
      "outputs": [
        {
          "internalType": "int256",
          "name": "",
          "type": "int256"
        }
      ],
      "stateMutability": "view",
      "type": "function",
      "constant": true
    },
    {
      "inputs": [
        {
          "internalType": "address",
          "name": "_playerAddress",
          "type": "address"
        },
        {
          "internalType": "uint256",
          "name": "_designNo",
          "type": "uint256"
        }
      ],
      "name": "getPlayerVotePhase2",
      "outputs": [
        {
          "internalType": "int256",
          "name": "",
          "type": "int256"
        }
      ],
      "stateMutability": "view",
      "type": "function",
      "constant": true
    },
    {
      "inputs": [
        {
          "internalType": "uint256",
          "name": "_designNo",
          "type": "uint256"
        },
        {
          "internalType": "int256",
          "name": "_vote",
          "type": "int256"
        },
        {
          "internalType": "uint256",
          "name": "_timestamp",
          "type": "uint256"
        },
        {
          "internalType": "uint256",
          "name": "_commitment",
          "type": "uint256"
        }
      ],
      "name": "vote",
      "outputs": [],
      "stateMutability": "payable",
      "type": "function",
      "payable": true
    },
    {
      "inputs": [
        {
          "internalType": "uint256",
          "name": "_designNo",
          "type": "uint256"
        },
        {
          "internalType": "uint256",
          "name": "_timestamp",
          "type": "uint256"
        }
      ],
      "name": "reveal",
      "outputs": [],
      "stateMutability": "nonpayable",
      "type": "function"
    },
    {
      "inputs": [
        {
          "internalType": "uint256",
          "name": "_designNo",
          "type": "uint256"
        }
      ],
      "name": "checkPhase",
      "outputs": [
        {
          "internalType": "enum votingState",
          "name": "",
          "type": "uint8"
        }
      ],
      "stateMutability": "view",
      "type": "function",
      "constant": true
    },
    {
      "inputs": [
        {
          "internalType": "uint256",
          "name": "_designNo",
          "type": "uint256"
        },
        {
          "internalType": "uint256",
          "name": "_timestamp",
          "type": "uint256"
        }
      ],
      "name": "playerCheckResult1",
      "outputs": [
        {
          "internalType": "int256",
          "name": "",
          "type": "int256"
        }
      ],
      "stateMutability": "view",
      "type": "function",
      "constant": true
    },
    {
      "inputs": [
        {
          "internalType": "uint256",
          "name": "_designNo",
          "type": "uint256"
        },
        {
          "internalType": "uint256",
          "name": "_timestamp",
          "type": "uint256"
        }
      ],
      "name": "playerCheckResult2",
      "outputs": [
        {
          "internalType": "int256",
          "name": "",
          "type": "int256"
        }
      ],
      "stateMutability": "view",
      "type": "function",
      "constant": true
    },
    {
      "inputs": [
        {
          "internalType": "address",
          "name": "player",
          "type": "address"
        },
        {
          "internalType": "int256",
          "name": "reputation",
          "type": "int256"
        }
      ],
      "name": "setPlayerReputation",
      "outputs": [],
      "stateMutability": "view",
      "type": "function",
      "constant": true
    },
    {
      "inputs": [
        {
          "internalType": "address",
          "name": "player",
          "type": "address"
        },
        {
          "internalType": "uint256",
          "name": "weight",
          "type": "uint256"
        }
      ],
      "name": "setPlayerWeight",
      "outputs": [],
      "stateMutability": "view",
      "type": "function",
      "constant": true
    },
    {
      "inputs": [
        {
          "internalType": "address",
          "name": "_playerAddress",
          "type": "address"
        }
      ],
      "name": "getPlayerReputation",
      "outputs": [
        {
          "internalType": "int256",
          "name": "reputation",
          "type": "int256"
        }
      ],
      "stateMutability": "view",
      "type": "function",
      "constant": true
    },
    {
      "inputs": [
        {
          "internalType": "address",
          "name": "_playerAddress",
          "type": "address"
        }
      ],
      "name": "getPlayerWeight",
      "outputs": [
        {
          "internalType": "uint256",
          "name": "weight",
          "type": "uint256"
        }
      ],
      "stateMutability": "view",
      "type": "function",
      "constant": true
    },
    {
      "inputs": [
        {
          "internalType": "uint256",
          "name": "_designNo",
          "type": "uint256"
        },
        {
          "internalType": "uint256",
          "name": "_timestamp",
          "type": "uint256"
        }
      ],
      "name": "calculateResult",
      "outputs": [],
      "stateMutability": "nonpayable",
      "type": "function"
    },
    {
      "inputs": [
        {
          "internalType": "uint256",
          "name": "_designNo",
          "type": "uint256"
        },
        {
          "internalType": "int256",
          "name": "result",
          "type": "int256"
        }
      ],
      "name": "setPlayerRep_Weight",
      "outputs": [],
      "stateMutability": "view",
      "type": "function",
      "constant": true
    },
    {
      "inputs": [
        {
          "internalType": "uint256",
          "name": "_designNo",
          "type": "uint256"
        },
        {
          "internalType": "uint256",
          "name": "_timestamp",
          "type": "uint256"
        },
        {
          "internalType": "int256",
          "name": "result",
          "type": "int256"
        }
      ],
      "name": "updateDesignBalance",
      "outputs": [],
      "stateMutability": "nonpayable",
      "type": "function"
    }
  ],
  "bytecode": "0x608060405260006007553480156200001657600080fd5b5060405162002c7838038062002c7883398101604081905262000039916200005f565b600080546001600160a01b0319166001600160a01b039290921691909117905562000091565b6000602082840312156200007257600080fd5b81516001600160a01b03811681146200008a57600080fd5b9392505050565b612bd780620000a16000396000f3fe6080604052600436106101b75760003560e01c806353093048116100ec578063b646f5be1161008a578063ead1205411610064578063ead12054146106d5578063ebc0ccf2146106e8578063eee4ffb914610708578063fb7380ac146107b857600080fd5b8063b646f5be146105de578063bc4f1013146105f1578063c5ce42611461069a57600080fd5b80638bcad672116100c65780638bcad672146104bf5780639348cef7146104d457806393cfdc18146104f4578063994063f11461051457600080fd5b8063530930481461043a578063532af7d214610467578063614d51b91461048757600080fd5b8063278cf3d2116101595780633aa25fbd116101335780633aa25fbd1461039e5780634aae74e4146103b45780634b990f87146103fa5780634de499111461041a57600080fd5b8063278cf3d2146103195780633308f42d146103395780633822a88c1461035e57600080fd5b80631c928f84116101955780631c928f84146102315780631d454ce0146102695780631e7425fc146102d7578063225f16d5146102f757600080fd5b806302ccf95b146101bc57806305fd65df146101ef57806315253a891461020f575b600080fd5b3480156101c857600080fd5b506101dc6101d73660046124ad565b6107fb565b6040519081526020015b60405180910390f35b3480156101fb57600080fd5b506101dc61020a3660046125de565b610880565b34801561021b57600080fd5b50610224610922565b6040516101e69190612735565b34801561023d57600080fd5b5061025161024c366004612502565b610a9f565b6040516001600160a01b0390911681526020016101e6565b34801561027557600080fd5b506102c6610284366004612502565b600460209081526000928352604080842090915290825290208054600182015460029092015490919060ff808216916101008104821691620100009091041685565b6040516101e695949392919061281e565b3480156102e357600080fd5b506102516102f23660046125de565b610ad7565b34801561030357600080fd5b50610317610312366004612502565b610af3565b005b34801561032557600080fd5b50610317610334366004612502565b610b5c565b34801561034557600080fd5b5061034e610b95565b60405190151581526020016101e6565b34801561036a57600080fd5b506103916103793660046125a2565b6000908152600660205260409020600c015460ff1690565b6040516101e69190612810565b3480156103aa57600080fd5b506101dc60075481565b3480156103c057600080fd5b506101dc6103cf366004612502565b6001600160a01b03919091166000908152600460209081526040808320938352929052206001015490565b34801561040657600080fd5b506101dc6104153660046125de565b610c15565b34801561042657600080fd5b506103176104353660046125de565b610ccb565b34801561044657600080fd5b5061045a6104553660046125a2565b611121565b6040516101e691906129be565b34801561047357600080fd5b506103176104823660046125de565b611211565b34801561049357600080fd5b506101dc6104a2366004612502565b600360209081526000928352604080842090915290825290205481565b3480156104cb57600080fd5b506007546101dc565b3480156104e057600080fd5b506103176104ef3660046125de565b6117d2565b34801561050057600080fd5b5061031761050f366004612632565b611903565b34801561052057600080fd5b506105c761052f3660046124cf565b6008602081815260009384526040808520825292845292829020805460018201546002830154600384015486518088018852600486015481526005860154818a0152600686015460078701549787015460098801548a51808c01909b52600a8901548b52600b8901549b8b019b909b52600c9097015495996001600160a01b0390951698939792969195909492939192919060ff168b565b6040516101e69b9a99989796959493929190612784565b6103176105ec36600461254e565b611bf2565b3480156105fd57600080fd5b506105c761060c3660046125a2565b60066020818152600092835260409283902080546001820154600283015460038401548751808901895260048601548152600586015481880152968501546007860154600887015460098801548b51808d01909c52600a8901548c52600b890154998c0199909952600c9097015495996001600160a01b039095169893979296939591949093929160ff168b565b3480156106a657600080fd5b5061034e6106b53660046125bb565b600160209081526000928352604080842090915290825290205460ff1681565b6103176106e3366004612600565b611e07565b3480156106f457600080fd5b506101dc6107033660046124ad565b6123db565b34801561071457600080fd5b506105c76107233660046125bb565b600260208181526000938452604080852082529284529282902080546001820154928201546003830154855180870187526004850154815260058501548189015260068501546007860154600887015460098801548a51808c01909b52600a8901548b52600b8901549b8b019b909b52600c9097015495996001600160a01b0390981698949793969295919490939160ff168b565b3480156107c457600080fd5b506101dc6107d3366004612502565b6001600160a01b03919091166000908152600460209081526040808320938352929052205490565b600080546040516302ccf95b60e01b81526001600160a01b038481166004830152909116906302ccf95b906024015b60206040518083038186803b15801561084257600080fd5b505afa158015610856573d6000803e3d6000fd5b505050506040513d601f19601f8201168201806040525081019061087a9190612589565b92915050565b60008281526006602052604081206009810154600882015460029092015490916108a991612a0e565b6108b39190612a0e565b82116108da5760405162461bcd60e51b81526004016108d1906128f2565b60405180910390fd5b60008381526006602052604090206004015460011461090b5760405162461bcd60e51b81526004016108d190612937565b50506000908152600660205260409020600a015490565b606060075467ffffffffffffffff81111561093f5761093f612b8b565b60405190808252806020026020018201604052801561097857816020015b61096561240e565b81526020019060019003908161095d5790505b50905060005b600754811015610a9b576000818152600660208181526040928390208351610160810185528154815260018201546001600160a01b0316818401526002808301548287015260038301546060830152855180870187526004840154815260058401548186015260808301529382015460a0820152600782015460c0820152600882015460e082015260098201546101008201528451808601909552600a8201548552600b82015492850192909252610120820193909352600c83015490929161014084019160ff1690811115610a5657610a56612b5f565b6002811115610a6757610a67612b5f565b81525050828281518110610a7d57610a7d612b75565b60200260200101819052508080610a9390612b04565b91505061097e565b5090565b60096020528160005260406000208181548110610abb57600080fd5b6000918252602090912001546001600160a01b03169150829050565b60056020528160005260406000208181548110610abb57600080fd5b6000546040516308678d1760e31b81526001600160a01b038481166004830152602482018490529091169063433c68b8906044015b60006040518083038186803b158015610b4057600080fd5b505afa158015610b54573d6000803e3d6000fd5b505050505050565b6000546040516313c679e960e11b81526001600160a01b038481166004830152602482018490529091169063278cf3d290604401610b28565b60008054604051629c95e160e41b81523360048201526001600160a01b03909116906309c95e109060240160206040518083038186803b158015610bd857600080fd5b505afa158015610bec573d6000803e3d6000fd5b505050506040513d601f19601f82011682018060405250810190610c10919061252c565b905090565b6000828152600660205260408120600981015460088201546002909201549091610c3e91612a0e565b610c489190612a0e565b8211610c665760405162461bcd60e51b81526004016108d1906128f2565b6000838152600660205260409020600501546001148015610c9857506000838152600660205260409020600401546001145b610cb45760405162461bcd60e51b81526004016108d190612937565b50506000908152600660205260409020600b015490565b60005b60008381526005602052604090205481101561111c5760008381526005602052604081208054600491839185908110610d0957610d09612b75565b60009182526020808320909101546001600160a01b031683528281019390935260409182018120878252909252902054138015610d6b575060016000848152600660205260409020600c015460ff166002811115610d6957610d69612b5f565b145b15610eaf5760008381526005602052604090208054610e0d919083908110610d9557610d95612b75565b600091825260208083209091015486835260059091526040822080546001600160a01b039092169286926004929087908110610dd357610dd3612b75565b60009182526020808320909101546001600160a01b0316835282810193909352604091820181208982529092529020546103349190612a68565b60008381526005602052604090208054610eaa919083908110610e3257610e32612b75565b600091825260208083209091015486835260059091526040822080546001600160a01b039092169286926004929087908110610e7057610e70612b75565b60009182526020808320909101546001600160a01b0316835282810193909352604091820181208982529092529020546103129190612a68565b61110a565b60008381526005602052604081208054600491839185908110610ed457610ed4612b75565b60009182526020808320909101546001600160a01b031683528281019390935260409182018120878252909252902060010154138015610f39575060026000848152600660205260409020600c015460ff166002811115610f3757610f37612b5f565b145b1561107e5760008381526005602052604090208054610fde919083908110610f6357610f63612b75565b600091825260208083209091015486835260059091526040822080546001600160a01b039092169286926004929087908110610fa157610fa1612b75565b60009182526020808320909101546001600160a01b0316835282810193909352604091820181208982529092529020600101546103349190612a68565b60008381526005602052604090208054610eaa91908390811061100357611003612b75565b600091825260208083209091015486835260059091526040822080546001600160a01b03909216928692600492908790811061104157611041612b75565b60009182526020808320909101546001600160a01b0316835282810193909352604091820181208982529092529020600101546103129190612a68565b600083815260056020526040902080546110c49190839081106110a3576110a3612b75565b6000918252602090912001546001600160a01b031661033484600019612a68565b6000838152600560205260409020805461110a9190839081106110e9576110e9612b75565b6000918252602090912001546001600160a01b031661031284600019612a68565b8061111481612b04565b915050610cce565b505050565b61112961240e565b6000828152600660208181526040928390208351610160810185528154815260018201546001600160a01b0316818401526002808301548287015260038301546060830152855180870187526004840154815260058401548186015260808301529382015460a0820152600782015460c0820152600882015460e082015260098201546101008201528451808601909552600a8201548552600b82015492850192909252610120820193909352600c83015490929161014084019160ff16908111156111f7576111f7612b5f565b600281111561120857611208612b5f565b90525092915050565b60016000838152600660205260409020600c015460ff16600281111561123957611239612b5f565b148061126a575060026000838152600660205260409020600c015460ff16600281111561126857611268612b5f565b145b6112a95760405162461bcd60e51b815260206004820152601060248201526f13dc195c985d1a5bdb8819985a5b195960821b60448201526064016108d1565b6000828152600660205260409020600101546001600160a01b031633146113265760405162461bcd60e51b815260206004820152602b60248201527f4f6e6c792074686520616e6e6f756e6365722063616e2063616c63756c61746560448201526a081d1a19481c995cdd5b1d60aa1b60648201526084016108d1565b60008281526006602052604090206004015415806113535750600082815260066020526040902060050154155b6113c55760405162461bcd60e51b815260206004820152603860248201527f54686520766f74696e6720697320616c72656164792066696e6973686564206160448201527f6e6420726573756c747320617265206465636c617265642e000000000000000060648201526084016108d1565b600082815260066020526040902060088101546002909101546113e89190612a0e565b81116114065760405162461bcd60e51b81526004016108d19061285d565b60008060008060005b60008781526005602052604090205481101561161e576000878152600560205260409020805461146491908390811061144a5761144a612b75565b6000918252602090912001546001600160a01b03166107fb565b600088815260056020526040902080549194506114a5918390811061148b5761148b612b75565b6000918252602090912001546001600160a01b03166123db565b915060016000888152600660205260409020600c015460ff1660028111156114cf576114cf612b5f565b141561154d576000878152600560205260408120805485928592600492869081106114fc576114fc612b75565b60009182526020808320909101546001600160a01b0316835282810193909352604091820181208c82529092529020546115369190612a68565b6115409190612a68565b61154a90866129cd565b94505b60026000888152600660205260409020600c015460ff16600281111561157557611575612b5f565b14156115f6576000878152600560205260408120805484928692600492869081106115a2576115a2612b75565b60009182526020808320909101546001600160a01b0316835282810193909352604091820181208c82529092529020600101546115df9190612a68565b6115e99190612a68565b6115f390866129cd565b94505b6116008284612a68565b61160a90856129cd565b93508061161681612b04565b91505061140f565b50600061162c846002612a68565b61163685876129cd565b6116409190612a26565b9050600061164f856002612a68565b61165986886129cd565b6116639190612b1f565b9050600082600114806116765750858212155b1561171457600160008a8152600660205260409020600c015460ff1660028111156116a3576116a3612b5f565b14156116c7575060008881526006602052604090206001600a9091018190556117b2565b600260008a8152600660205260409020600c015460ff1660028111156116ef576116ef612b5f565b141561170f575060008881526006602052604090206001600b9091018190555b6117b2565b858212156117b257600160008a8152600660205260409020600c015460ff16600281111561174457611744612b5f565b141561176957506000888152600660205260409020600019600a9091018190556117b2565b600260008a8152600660205260409020600c015460ff16600281111561179157611791612b5f565b14156117b257506000888152600660205260409020600019600b9091018190555b6117bc8982610ccb565b6117c7898983611903565b505050505050505050565b600082815260066020526040902060088101546002909101546117f59190612a0e565b81116118135760405162461bcd60e51b81526004016108d19061285d565b60016000838152600660205260409020600c015460ff16600281111561183b5761183b612b5f565b141561186c573360009081526004602090815260408083208584529091529020600201805461ff0019166101001790555b60026000838152600660205260409020600c015460ff16600281111561189457611894612b5f565b14156118c7573360009081526004602090815260408083208584529091529020600201805462ff00001916620100001790555b604080518381523360208201527fdef66c77ffe1a02e4aa7028bba0b6e9919e3f7cbfc96c028d7f06e84db64a013910160405180910390a15050565b60005b600084815260056020526040902054811015611abf5760016000858152600660205260409020600c015460ff16600281111561194457611944612b5f565b14156119e957816004600060056000888152602001908152602001600020848154811061197357611973612b75565b60009182526020808320909101546001600160a01b0316835282810193909352604091820181208882529092529020546119ad9190612a68565b600114156119e4576000848152600660205260408120600781015460039091018054919290916119de908490612aed565b90915550505b611aad565b60026000858152600660205260409020600c015460ff166002811115611a1157611a11612b5f565b1415611a7d578160046000600560008881526020019081526020016000208481548110611a4057611a40612b75565b60009182526020808320909101546001600160a01b0316835282810193909352604091820181208882529092529020600101546119ad9190612a68565b60008481526006602081905260408220908101546003909101805491929091611aa7908490612a0e565b90915550505b80611ab781612b04565b915050611906565b5060016000848152600660205260409020600c015460ff166002811115611ae857611ae8612b5f565b1415611b0557600083815260066020526040902060016004909101555b60026000848152600660205260409020600c015460ff166002811115611b2d57611b2d612b5f565b1415611b4a57600083815260066020526040902060016005909101555b6000838152600660205260409020600a01546001148015611b90575060016000848152600660205260409020600c015460ff166002811115611b8e57611b8e612b5f565b145b15611bba576000838152600660205260409020600c8101805460ff19166002908117909155018290555b6040518181527fbd9785037e1262e9a00f3274afb543f70050db0c0a99864959f281c5348621e99060200160405180910390a1505050565b600054604051629c95e160e41b81523360048201526001600160a01b03909116906309c95e109060240160206040518083038186803b158015611c3457600080fd5b505afa158015611c48573d6000803e3d6000fd5b505050506040513d601f19601f82011682018060405250810190611c6c919061252c565b1515600114611cb05760405162461bcd60e51b815260206004820152601060248201526f13dc195c985d1a5bdb8819195b9a595960821b60448201526064016108d1565b60008311611cd05760405162461bcd60e51b81526004016108d1906128ad565b6007546000818152600660205260408120600180820180546001600160a01b031916331790556002820188905560038201879055600c8201805460ff19169091179055600a015582611d3e576000818152600660205260409020670de0b6b3a7640000600790910155611d53565b60008181526006602052604090206007018390555b81611d7a576000818152600660208190526040909120670de0b6b3a7640000910155611d90565b6000818152600660208190526040909120018290555b6000818152600660205260409020614e206008820155610258600990910155600754611dbd906001612a0e565b6007556040805187815260208101839052338183015290517f6de6dd265a66870495db47d80136a9abe827e8d8f6f7dc77dc787a810a99d2269181900360600190a1505050505050565b60016000858152600660205260409020600c015460ff166002811115611e2f57611e2f612b5f565b1480611e60575060026000858152600660205260409020600c015460ff166002811115611e5e57611e5e612b5f565b145b611eac5760405162461bcd60e51b815260206004820152601e60248201527f4e6f20766f74696e672061766961626c6520666f722064657369676e2e20000060448201526064016108d1565b6000848152600660205260409020600401541580611ed95750600084815260066020526040902060050154155b611f195760405162461bcd60e51b815260206004820152601160248201527027b832b930ba34b7b7103330b4b632b21760791b60448201526064016108d1565b6000848152600660205260409020600981015460088201546002909201549091611f4291612a0e565b611f4c9190612a0e565b821115611f935760405162461bcd60e51b81526020600482015260156024820152742a3432903a34b6b2903430b99032bc3834b932b21760591b60448201526064016108d1565b600054604051629c95e160e41b81523360048201526001600160a01b03909116906309c95e109060240160206040518083038186803b158015611fd557600080fd5b505afa158015611fe9573d6000803e3d6000fd5b505050506040513d601f19601f8201168201806040525081019061200d919061252c565b15156001146120515760405162461bcd60e51b815260206004820152601060248201526f13dc195c985d1a5bdb8819195b9a595960821b60448201526064016108d1565b600081116120715760405162461bcd60e51b81526004016108d1906128ad565b8034146120d85760405162461bcd60e51b815260206004820152602f60248201527f54686520726567697374726174696f6e206469646e277420726563656976652060448201526e3a34329031b7b6b6b4ba36b2b73a1760891b60648201526084016108d1565b600084815260066020819052604090912001548110156121555760405162461bcd60e51b815260206004820152603260248201527f54686520636f6d6d69746d656e742073686f756c642062652067726561746572604482015271103a3430b7103a3432903832b730b63a3c9760711b60648201526084016108d1565b600084815260066020526040902060078101546003909101546121789190612a54565b600085815260056020526040902054106121a45760405162461bcd60e51b81526004016108d19061297b565b600084815260016020908152604080832033845290915290205460ff161561220e5760405162461bcd60e51b815260206004820152601a60248201527f506c6179657220616c726561647920726567697374657265642e00000000000060448201526064016108d1565b600084815260066020526040902060078101546003909101546122319190612a54565b6000858152600560205260409020541061225d5760405162461bcd60e51b81526004016108d19061297b565b600084815260016020818152604080842033808652908352818520805460ff19168517905588855260058352818520805480860182559086529483902090940180546001600160a01b0319168517905580519384529083018790528201527f5f142c525761e989ef9a126c95a342ee74c720a7272ea67127ed34660df2d7dc9060600160405180910390a160016000858152600660205260409020600c015460ff16600281111561231057612310612b5f565b1415612340573360009081526004602090815260408083208784529091529020838155600201805461ff00191690555b60016000858152600660205260409020600c015460ff16600281111561236857612368612b5f565b141561239d57336000908152600460209081526040808320878452909152902060018101849055600201805462ff0000191690555b604080518581523360208201527fdef66c77ffe1a02e4aa7028bba0b6e9919e3f7cbfc96c028d7f06e84db64a013910160405180910390a150505050565b600080546040516375e0667960e11b81526001600160a01b0384811660048301529091169063ebc0ccf29060240161082a565b604080516101608101825260008082526020808301829052828401829052606083018290528351808501909452818452830152906080820190815260200160008152602001600081526020016000815260200160008152602001612485604051806040016040528060008152602001600081525090565b81526020016000905290565b80356001600160a01b03811681146124a857600080fd5b919050565b6000602082840312156124bf57600080fd5b6124c882612491565b9392505050565b600080604083850312156124e257600080fd5b6124eb83612491565b91506124f960208401612491565b90509250929050565b6000806040838503121561251557600080fd5b61251e83612491565b946020939093013593505050565b60006020828403121561253e57600080fd5b815180151581146124c857600080fd5b600080600080600060a0868803121561256657600080fd5b505083359560208501359550604085013594606081013594506080013592509050565b60006020828403121561259b57600080fd5b5051919050565b6000602082840312156125b457600080fd5b5035919050565b600080604083850312156125ce57600080fd5b823591506124f960208401612491565b600080604083850312156125f157600080fd5b50508035926020909101359150565b6000806000806080858703121561261657600080fd5b5050823594602084013594506040840135936060013592509050565b60008060006060848603121561264757600080fd5b505081359360208301359350604090920135919050565b6002811061266e5761266e612b5f565b9052565b6003811061266e5761266e612b5f565b8051825260208101516126a060208401826001600160a01b03169052565b50604081015160408301526060810151606083015260808101516126d1608084018280518252602090810151910152565b5060a081015160c083015260c081015160e083015260e08101516101008181850152808301519150506101208181850152808301519150506101406127228185018380518252602090810151910152565b820151905061111c610180840182612672565b6020808252825182820181905260009190848201906040850190845b8181101561277857612764838551612682565b928401926101a09290920191600101612751565b50909695505050505050565b8b81526001600160a01b038b166020820152604081018a9052606081018990526101a081016127c0608083018a80518252602090810151910152565b8760c08301528660e083015285610100830152846101208301526127f261014083018580518252602090810151910152565b612800610180830184612672565b9c9b505050505050505050505050565b6020810161087a8284612672565b8581526020810185905260a081016128396040830186612672565b612846606083018561265e565b612853608083018461265e565b9695505050505050565b60208082526030908201527f54686520726573756c742063616e6e6f742062652072657665616c656420626560408201526f3337b932903a34329032bc3834b93c9760811b606082015260800190565b60208082526025908201527f54686520636f6d6d69746d656e742073686f756c64206265206d6f726520746860408201526430b710181760d91b606082015260800190565b60208082526025908201527f5468652074696d6520706572696f6420686173206e6f7420657870697265642060408201526403cb2ba17160dd1b606082015260800190565b60208082526024908201527f54686520726573756c7420686173206e6f7420796574206265656e2072657665604082015263185b195960e21b606082015260800190565b60208082526023908201527f4e6f206d6f726520726567697374726174696f6e73206172652061636365707460408201526232b21760e91b606082015260800190565b6101a0810161087a8284612682565b600080821280156001600160ff1b03849003851316156129ef576129ef612b33565b600160ff1b8390038412811615612a0857612a08612b33565b50500190565b60008219821115612a2157612a21612b33565b500190565b600082612a3557612a35612b49565b600160ff1b821460001984141615612a4f57612a4f612b33565b500590565b600082612a6357612a63612b49565b500490565b60006001600160ff1b0381841382841380821686840486111615612a8e57612a8e612b33565b600160ff1b6000871282811687830589121615612aad57612aad612b33565b60008712925087820587128484161615612ac957612ac9612b33565b87850587128184161615612adf57612adf612b33565b505050929093029392505050565b600082821015612aff57612aff612b33565b500390565b6000600019821415612b1857612b18612b33565b5060010190565b600082612b2e57612b2e612b49565b500790565b634e487b7160e01b600052601160045260246000fd5b634e487b7160e01b600052601260045260246000fd5b634e487b7160e01b600052602160045260246000fd5b634e487b7160e01b600052603260045260246000fd5b634e487b7160e01b600052604160045260246000fdfea2646970667358221220050a89b9b92185c8f965fc9774f89179232b3bdd9413878ecc40560301c38a1064736f6c63430008070033",
  "immutableReferences": {},
  "source": "/**\r\n * @file marketplace.sol\r\n * @author Nachiket Tapas <ntapas@unime.it>\r\n * @date created 01 Jun 2020\r\n * @date last modified 09 Jul 2020\r\n * @SPDX-License-Identifier: UNLICENSED*/\r\n\r\n//TODO FARE LA CLAIM PER LE PERSONE CHE HANNO UN BALANCE POSITIVO\r\n//import { AntoTokenSale } from \"./AntoTokenSale.sol\";\r\n//import { TestToken } from \"./TestToken.sol\";\r\n\r\npragma solidity >=0.4.22 <0.9.0;\r\npragma experimental ABIEncoderV2;\r\n\r\nimport \"./Interfaces/IUser.sol\";\r\nimport \"./Structs/VotingSystemStructs.sol\";\r\n\r\ncontract VotingSystem{\r\n    \r\n    IUser private user;\r\n    constructor(address _address){\r\n        user = IUser(_address);\r\n    }\r\n\r\n//              TEST FUNCTION \r\n//#################################################\r\n    function getPlayer()public view returns(bool){\r\n\r\n        return user.isPlayer(msg.sender);\r\n    }\r\n//            END TEST FUNCTION    \r\n//#################################################\r\n\r\n\r\n\r\n//                  DATA SECTION  \r\n//#############################################################\r\n//#############################################################\r\n    //Mapping if the proof exists\r\n    //Mapping of design identified by design index and collection of players indexes registered to vote\r\n    mapping (uint256 => mapping(address=>bool)) public checkPlayer;\r\n    mapping (uint256 => mapping (address => designState)) public TcheckPlayers;\r\n    // This is the commitment for every design the user has committed to\r\n    mapping (address=>mapping(uint=>bytes32))public userDesignCommitment;\r\n    // At every player address we associate the corresponding vote he made for \r\n    // the specific design\r\n    mapping (address=>mapping(uint256=>votingStage)) public playerVote;\r\n    mapping (uint256 => address[]) public regPlayers;\r\n    //Design details indexed by design index\r\n    mapping (uint256 => designState) public designes;\r\n    uint256 public numDesignes = 0;\r\n    //Design mapping for take it all\r\n    mapping(address => mapping(address =>designState)) public AllDesign;\r\n    mapping(address => address[]) public UserDesign;\r\n\r\n    //IMPORTANT : USAGE REQUIRED FOR OTHER OPERATIONS \r\n    //mapping(uint256 => DataLib.DesignToken) trackDesignToken;\r\n//                  END DATA SECTION   \r\n//##############################################################\r\n//##############################################################\r\n\r\n\r\n//                   EVENT SECTION\r\n// #############################################################\r\n//##############################################################\r\n    event newPrinterAddition(address player_address, bool status);\r\n\r\n    //event newPlayerAddition(address player_address);\r\n    //Notifications for successful completion of events\r\n    event newDesignAvailable(\r\n        bytes32 file_hash,\r\n        uint256 design_number,\r\n        address creator\r\n    );\r\n    event resultCalculated(\r\n        bytes32 file_hash,\r\n        uint256 design_number,\r\n        address creator\r\n    );\r\n    event newPlayerAddition(address player_address, bool status);\r\n    event newPlayerRegistration(\r\n        address player_address,\r\n        uint256 design_number,\r\n        bool status\r\n    );\r\n    event playerDesignReceived(uint256 design_number, address player_address);\r\n    event playerCommitted(uint256 design_number, address player_address);\r\n    event playerRevealed(uint256 design_number, address player_address);\r\n    event votingResult(int256 result);\r\n    event phase2Begin(uint256 design_number, address vendor, uint256 time);\r\n\r\n    event proofAdded(\r\n        uint256 design_number,\r\n        address player_address,\r\n        address printer_address\r\n    );\r\n\r\n    event tempOutput(address _output); //, uint256 timestamp, uint256 expiry, uint256 balance);\r\n//                              END EVENT SECTION    \r\n// ##########################################################################################\r\n//###########################################################################################\r\n\r\n\r\n    //The commitment is send via the value field in the remix. If the sent value matches the commitment parameter,\r\n    //the contract announces the availability of new design for verification.\r\n    function announce(\r\n        bytes32 _fileHash,\r\n        uint256 _timestamp,\r\n        uint256 _commitment,\r\n        uint256 _taur,\r\n        uint256 _taup /*uint256 _deltaExp, uint256 _deltaReveal*/\r\n    ) public payable {\r\n        require(user.isPlayer(msg.sender) == true, \"Operation denied\");\r\n        //Check for positive commitment\r\n        require(_commitment > 0, \"The commitment should be more than 0.\");\r\n\r\n        //require( _commitment / _taur>3,\"Not enough commitment made for the design\");\r\n        //Check if the commitment parameter matches the commiment sent to the contract.\r\n       /* require(\r\n            msg.value == _commitment,\r\n            \"The announcement didn't receive the commitment.\"\r\n        );*/ //chiedere a nachiket\r\n        //require(_commitment <= ContractToken.balanceOf(msg.sender), \"doesn't have enough tokens\");\r\n        //Design index\r\n        uint256 j = numDesignes;\r\n\r\n        //Design file hash from IPFS\r\n        //designes[j].filehash = _fileHash;\r\n\r\n        //Design creator\r\n        designes[j].vendor = msg.sender;\r\n\r\n        //Creation timestamp received from the js script\r\n        designes[j].timestamp = _timestamp;\r\n\r\n        //Commitment\r\n        designes[j].balance = _commitment;\r\n\r\n        //Set a manager\r\n        //designes[j].manager = _manager;\r\n\r\n        //Set the begining of the voting phase\r\n        designes[j].phase = votingState.first;\r\n\r\n        //Set result to zero\r\n        designes[j].result1.resultPhase_1 =0 ;\r\n\r\n        //Setting the value for reward\r\n        if (_taur == 0) {\r\n            designes[j].taur = 1000000000000000000; //ContractToken.totalSupply();\r\n        } else {\r\n            designes[j].taur = _taur;\r\n        }\r\n\r\n        //Setting the value for penalty\r\n        if (_taup == 0) {\r\n            designes[j].taup = 1000000000000000000; ////ContractToken.totalSupply();\r\n        } else {\r\n            designes[j].taup = _taup;\r\n        }\r\n\r\n        //Setting the value for expiry\r\n        /* if (_deltaExp == 0) {\r\n            designes[j].deltaExp = 600;\r\n        } else {\r\n            designes[j].deltaExp = _deltaExp;\r\n        }\r\n        //Setting the value for reveal\r\n        if (_deltaReveal == 0) {\r\n            designes[j].deltaReveal = 600;\r\n        } else {\r\n            designes[j].deltaReveal = _deltaReveal;\r\n        }*/\r\n        designes[j].deltaExp = 20000;\r\n        designes[j].deltaReveal = 600;\r\n\r\n        //Set the status to be created\r\n\r\n        //Incrementing the design index\r\n        numDesignes = numDesignes + 1;\r\n\r\n        //DataLib.DesignToken storage _design = trackDesignToken[j];\r\n        //_design.committment = _commitment;\r\n\r\n        //ContractToken.transferFrom(msg.sender, address(SaleContract), _commitment);\r\n        //Emitting notification for new design creation.\r\n        //Verifiers receiving the notification can participate in the process\r\n        //Filehash to ensure file integrity\r\n        //Index to use for search\r\n        //Vendor address for source verification\r\n/*\r\n        designState memory newDesign = designState(\r\n            _fileHash,\r\n            designes[j].vendor,\r\n            designes[j].timestamp,\r\n            designes[j].balance,\r\n            designes[j].statusPhase,\r\n            designes[j].taup,\r\n            designes[j].taur,\r\n            designes[j].deltaExp,\r\n            designes[j].deltaReveal\r\n            designes[j].result1,\r\n            designes[j].statusPhase\r\n\r\n\r\n        );\r\n*/\r\n        emit newDesignAvailable(_fileHash, j, msg.sender);\r\n    }\r\n\r\n    function getDesignes()\r\n    public view\r\n    returns(designState[] memory mdesign){\r\n        mdesign = new designState[](numDesignes); \r\n        for(uint256 i = 0; i < numDesignes; i++){\r\n            mdesign[i] = designes[i];\r\n        }\r\n        return mdesign;\r\n    }\r\n\r\n    function getNumDesignes() public view returns (uint256) {\r\n        return numDesignes;\r\n    }\r\n\r\n\r\n    //Reader function to get designe details at _index\r\n    function getDesigne(uint256 _index) public view returns (designState memory) {\r\n        return designes[_index];\r\n    }\r\n\r\n    //IMPORTANT NOT USEFULL AT THE MOMENT\r\n    /*\r\n    function getPlayerCommitment(address _playerAddress, uint256 _designNo) public view returns ( bytes32 ) {\r\n        return ( userDesignCommitment[_playerAddress][_designNo] );\r\n    }\r\n    */\r\n    // Get the player vote of first phase\r\n    function getPlayerVotePhase1(address _playerAddress, uint256 _designNo) public view returns ( int ) {\r\n        return ( playerVote[_playerAddress][_designNo].votingStage1 );\r\n        }\r\n    // Get the player vote of the second phase\r\n    function getPlayerVotePhase2(address _playerAddress, uint256 _designNo) public view returns ( int ) {\r\n        return ( playerVote[_playerAddress][_designNo].votingStage2 );\r\n        }\r\n    // The function used to make a player vote for adesign\r\n    function vote(uint256 _designNo, int _vote, /*bytes32 _nonce,*/ uint256 _timestamp,uint256 _commitment)\r\n        payable public{\r\n        ///////////////////////////////////////////////////////////////////\r\n        require(designes[_designNo].phase==votingState.first||designes[_designNo].phase==votingState.second,\"No voting aviable for design. \");\r\n        require(designes[_designNo].statusPhase.statusPhase_1==0||designes[_designNo].statusPhase.statusPhase_2==0, \"Operation failed.\");\r\n        require(_timestamp <= designes[_designNo].timestamp + designes[_designNo].deltaExp + designes[_designNo].deltaReveal, \"The time has expired.\");\r\n        require(user.isPlayer(msg.sender) == true, \"Operation denied\");\r\n        require(_commitment > 0, \"The commitment should be more than 0.\");\r\n        require(msg.value == _commitment, \"The registration didn't receive the commitment.\");\r\n        require(_commitment >= designes[_designNo].taup, \"The commitment should be greater than the penalty.\");\r\n        require(regPlayers[_designNo].length < designes[_designNo].balance / designes[_designNo].taur, \"No more registrations are accepted.\");\r\n        require(checkPlayer[_designNo][msg.sender] == false, \"Player already registered.\");\r\n        require(regPlayers[_designNo].length < designes[_designNo].balance / designes[_designNo].taur, \"No more registrations are accepted.\");\r\n        \r\n        checkPlayer[_designNo][msg.sender] = true;\r\n        regPlayers[_designNo].push(msg.sender);\r\n        //trackDesignToken[_designNo].totalPlayers.push(msg.sender);\r\n        //trackDesignToken[_designNo].stakes[msg.sender] = _commitment;\r\n        emit newPlayerRegistration(msg.sender, _designNo, true);\r\n        //Store the vote by the player\r\n        //players[msg.sender].votes[_designNo] = _vote;\r\n        if(designes[_designNo].phase==votingState.first){\r\n            playerVote[msg.sender][_designNo].votingStage1 = _vote;\r\n            playerVote[msg.sender][_designNo].reveal_1=revealVote.noReveal;\r\n        }\r\n        if(designes[_designNo].phase==votingState.first){\r\n            playerVote[msg.sender][_designNo].votingStage2 = _vote;\r\n            playerVote[msg.sender][_designNo].reveal_2=revealVote.noReveal;\r\n        }\r\n        //An event emitted after successful reveal of vote\r\n        emit playerRevealed(_designNo, msg.sender);\r\n        \r\n        }\r\n\r\n    // The user can choose to reveal is vote (meaning making it public)\r\n    function reveal(uint256 _designNo,uint256 _timestamp)\r\n        public{\r\n        require(_timestamp > designes[_designNo].timestamp + designes[_designNo].deltaExp , \"The result cannot be revealed before the expiry.\");\r\n        if(designes[_designNo].phase==votingState.first){\r\n            playerVote[msg.sender][_designNo].reveal_1=revealVote.reveal;\r\n        }\r\n        if(designes[_designNo].phase==votingState.second){\r\n            playerVote[msg.sender][_designNo].reveal_2=revealVote.reveal;\r\n        }\r\n        emit playerRevealed(_designNo, msg.sender);\r\n        \r\n        }\r\n    // To check wich is the current voting phase\r\n    function checkPhase(uint256 _designNo)public view returns(votingState){\r\n        return designes[_designNo].phase;\r\n    }\r\n    // Player can check the voting result of the first phase\r\n    function playerCheckResult1(uint256 _designNo,uint256 _timestamp)public view returns(int){ \r\n        require(_timestamp>designes[_designNo].timestamp+designes[_designNo].deltaExp + designes[_designNo].deltaReveal,\"The time period has not expired yet. \");\r\n        require(designes[_designNo].statusPhase.statusPhase_1==1,\"The result has not yet been revealed\");\r\n        return designes[_designNo].result1.resultPhase_1;\r\n    }\r\n    // Player can check the voting result of the second phase\r\n    function playerCheckResult2(uint256 _designNo,uint256 _timestamp)public view returns(int){ \r\n        require(_timestamp>designes[_designNo].timestamp+designes[_designNo].deltaExp + designes[_designNo].deltaReveal,\"The time period has not expired yet. \");\r\n        require(designes[_designNo].statusPhase.statusPhase_2==1 && designes[_designNo].statusPhase.statusPhase_1==1,\"The result has not yet been revealed\");\r\n        return designes[_designNo].result1.resultPhase_2;\r\n    }\r\n\r\n    /* function getAirPlayerInfo(address _playerAddress)view public returns(.AirPlayer memory){\r\n        return isPlayer.airPlayers(_playerAddress);\r\n    }*/\r\n\r\n    function setPlayerReputation(address player,int256 reputation)view public{\r\n        user.setPlayerReputation(player, reputation);\r\n    }   \r\n\r\n    function setPlayerWeight(address player, uint256 weight)view public{\r\n        user.setPlayerWeigth(player, weight);\r\n    }\r\n    function getPlayerReputation(address _playerAddress)public view returns(int256 reputation){\r\n        return user.getPlayerReputation(_playerAddress);\r\n    }\r\n    function getPlayerWeight(address _playerAddress)public view returns(uint256 weight){\r\n        return user.getPlayerWeight(_playerAddress);\r\n    }\r\n\r\n    function calculateResult(uint256 _designNo,uint256 _timestamp)public{\r\n        \r\n        require(designes[_designNo].phase==votingState.first||designes[_designNo].phase==votingState.second,\"Operation failed\");\r\n        require(msg.sender==designes[_designNo].vendor,\"Only the announcer can calculate the result\");\r\n        //Check the status of the voting. If already completed, then this function is not run.\r\n        //require(designes[_designNo].status == 0, \"The voting is already finished and results are declared.\");\r\n        require(designes[_designNo].statusPhase.statusPhase_1 == 0 || designes[_designNo].statusPhase.statusPhase_2==0, \"The voting is already finished and results are declared.\");\r\n\r\n        //Check for expiry. The result cannot be calculated before the expiry.\r\n        require(_timestamp > designes[_designNo].timestamp + designes[_designNo].deltaExp , \"The result cannot be revealed before the expiry.\");\r\n\r\n        //Since solidity do not support floating point arithematic, we will store the value as quotient and remainder.\r\n        //Here we are calculating the numerator and denominator.\r\n        int256 playerNum = 0;\r\n        int256 playerDen = 0;\r\n        uint256 playerWeight=0;\r\n        int256 playerReput=0;\r\n        for ( uint256 i = 0; i < regPlayers[_designNo].length; i++ ) {\r\n            \r\n            playerWeight=getPlayerWeight(regPlayers[_designNo][i]);\r\n            playerReput=getPlayerReputation(regPlayers[_designNo][i]);\r\n            //playerNum  += ( players[regPlayers[_designNo][i]].votes[_designNo] * int( players[regPlayers[_designNo][i]].weight ) * players[regPlayers[_designNo][i]].reputation );\r\n            //playerDen  += int ( players[regPlayers[_designNo][i]].weight ) * players[regPlayers[_designNo][i]].reputation;\r\n            if(designes[_designNo].phase==votingState.first)\r\n                playerNum  += ( playerVote[regPlayers[_designNo][i]][_designNo].votingStage1 * ( playerReput )*int(playerWeight));\r\n            \r\n            if(designes[_designNo].phase==votingState.second)\r\n                playerNum  += ( playerVote[regPlayers[_designNo][i]][_designNo].votingStage2 * int( playerWeight) * playerReput );\r\n\r\n            playerDen  += int ( playerWeight) * playerReput;\r\n        }\r\n\r\n        int256 finalScoreQuo = ( playerNum + playerDen ) / ( 2 * playerDen );\r\n        int256 finalScoreRem = ( playerNum + playerDen ) % ( 2 * playerDen );\r\n        int result = 0;\r\n        if ( finalScoreQuo == 1 || finalScoreRem >= playerDen ) {\r\n                //designes[_designNo].result = 1;\r\n            if(designes[_designNo].phase==votingState.first){\r\n                designes[_designNo].result1.resultPhase_1=1;\r\n                result = designes[_designNo].result1.resultPhase_1;\r\n            }\r\n            else if(designes[_designNo].phase==votingState.second){\r\n                designes[_designNo].result1.resultPhase_2=1;\r\n                result = designes[_designNo].result1.resultPhase_2;\r\n            }\r\n        } else if ( finalScoreRem < playerDen ) {\r\n            //designes[_designNo].result = -1;\r\n            if(designes[_designNo].phase==votingState.first){\r\n                designes[_designNo].result1.resultPhase_1=-1;\r\n                result = designes[_designNo].result1.resultPhase_1; \r\n            }\r\n            else if(designes[_designNo].phase==votingState.second){\r\n                designes[_designNo].result1.resultPhase_2=-1;\r\n                result = designes[_designNo].result1.resultPhase_2;\r\n            }\r\n        }\r\n        setPlayerRep_Weight(_designNo,result);\r\n        updateDesignBalance(_designNo,_timestamp,result);\r\n    }\r\n\r\n    function setPlayerRep_Weight(uint256 _designNo,int256 result)public view{\r\n\r\n        for ( uint256 i = 0; i < regPlayers[_designNo].length; i++ ) {\r\n            //if(designes[_designNo].phase==votingState.first){PROBABLY SHOULD BE CHANGED BY CONSIDERING ALSO SECOND VOTING STAGE\r\n            if ( playerVote[regPlayers[_designNo][i]][_designNo].votingStage1 > 0 && designes[_designNo].phase==votingState.first ) {\r\n                    //Set new reputation\r\n\r\n                    //user.airPlayers(regPlayers[_designNo][i]).reputation += playerVote[regPlayers[_designNo][i]][_designNo].votingStage1 * result;\r\n                    setPlayerReputation(regPlayers[_designNo][i], playerVote[regPlayers[_designNo][i]][_designNo].votingStage1 * result);\r\n                    //Set new weight (we only use the player weight. The total weight, which is used as normalization factor is eliminated in the final calculation.)\r\n                    setPlayerWeight(regPlayers[_designNo][i], uint ( playerVote[regPlayers[_designNo][i]][_designNo].votingStage1 * result ));\r\n                    //user.airPlayers(regPlayers[_designNo][i]).weight += uint ( playerVote[regPlayers[_designNo][i]][_designNo].votingStage1 * result );\r\n                } \r\n            else if( playerVote[regPlayers[_designNo][i]][_designNo].votingStage2 > 0 && designes[_designNo].phase==votingState.second){\r\n                                        //Set new reputation\r\n                    \r\n                    setPlayerReputation(regPlayers[_designNo][i], playerVote[regPlayers[_designNo][i]][_designNo].votingStage2 * result);\r\n                    //playerVote[regPlayers[_designNo][i]].reputation += playerVote[regPlayers[_designNo][i]][_designNo].votingStage2 * result;\r\n                    setPlayerWeight(regPlayers[_designNo][i], uint ( playerVote[regPlayers[_designNo][i]][_designNo].votingStage2 * result ));\r\n                    //Set new weight (we only use the player weight. The total weight, which is used as normalization factor is eliminated in the final calculation.)\r\n                   // user.airPlayers(regPlayers[_designNo][i]).weight += uint ( playerVote[regPlayers[_designNo][i]][_designNo].votingStage2 * result );\r\n                }\r\n                \r\n                \r\n            else {\r\n                    //Set new reputation\r\n                    setPlayerReputation(regPlayers[_designNo][i], (-1*result));//POSSIBLE SOLUTION\r\n                    //user.airPlayers(regPlayers[_designNo][i]).reputation += -1 * result;//TO CHECK HOW TO CHANGE THEM\r\n\r\n                    //Set new weight (we only use the player weight. The total weight, which is used as normalization factor is eliminated in the final calculation.)\r\n                    setPlayerWeight(regPlayers[_designNo][i], uint(-1*result));//POSSIBLE SOLUTION\r\n                    //user.airPlayers(regPlayers[_designNo][i]).weight += uint ( -1 * result );\r\n            }\r\n            \r\n        }\r\n\r\n\r\n\r\n    }\r\n\r\n\r\n    function updateDesignBalance(uint256 _designNo,uint256 _timestamp,int256 result)public{\r\n\r\n           for ( uint256 i = 0; i < regPlayers[_designNo].length; i++ ) {\r\n            if(designes[_designNo].phase==votingState.first){\r\n                if ( playerVote[regPlayers[_designNo][i]][_designNo].votingStage1 * result == 1) { // rimuovere * result\r\n                    //players[regPlayers[_designNo][i]].balance += designes[_designNo].taur;\r\n                    //ContractToken.transferFrom(address(SaleContract), regPlayers[_designNo][i], designes[_designNo].taur);\r\n                    designes[_designNo].balance -= designes[_designNo].taur;\r\n                } \r\n            }\r\n\r\n            else if(designes[_designNo].phase==votingState.second){\r\n                if ( playerVote[regPlayers[_designNo][i]][_designNo].votingStage2 * result == 1) { // rimuovere * result\r\n                    //players[regPlayers[_designNo][i]].balance += designes[_designNo].taur;\r\n                    //ContractToken.transferFrom(address(SaleContract), regPlayers[_designNo][i], designes[_designNo].taur);\r\n                    designes[_designNo].balance -= designes[_designNo].taur;\r\n\r\n                }\r\n            }\r\n\r\n            else {\r\n                //players[regPlayers[_designNo][i]].balance -= designes[_designNo].taup;\r\n                //ContractToken.transferFrom(regPlayers[_designNo][i], address(SaleContract), designes[_designNo].taup);\r\n                designes[_designNo].balance += designes[_designNo].taup;\r\n\r\n                }\r\n            }\r\n\r\n        //Set the status to finished\r\n        //designes[_designNo].status = 1;\r\n        if(designes[_designNo].phase==votingState.first)\r\n            designes[_designNo].statusPhase.statusPhase_1 = 1;\r\n        if(designes[_designNo].phase==votingState.second)\r\n            designes[_designNo].statusPhase.statusPhase_2=1;\r\n        //Setting the new phase start\r\n        if(designes[_designNo].result1.resultPhase_1==1 && designes[_designNo].phase==votingState.first){\r\n            designes[_designNo].phase=votingState.second;\r\n            designes[_designNo].timestamp=_timestamp;\r\n\r\n        }\r\n\r\n\r\n        //Emit the notification for the result\r\n        emit votingResult(result);\r\n        }\r\n\r\n    }\r\n\r\n\r\n\r\n\r\n\r\n\r\n//####################################################################################################################################################################\r\n//####################################################################################################################################################################    \r\n    // function used for calculating the result of the votation\r\n    /*function calculateResult(uint256 _designNo, uint256 _timestamp)\r\n        public{\r\n        //Only if we are in phase 1 or 2 the result can be calculated\r\n        require(designes[_designNo].phase==votingState.first||designes[_designNo].phase==votingState.second,\"Operation failed\");\r\n        require(msg.sender==designes[_designNo].vendor,\"Only the announcer can calculate the result\");\r\n        //Check the status of the voting. If already completed, then this function is not run.\r\n        //require(designes[_designNo].status == 0, \"The voting is already finished and results are declared.\");\r\n        require(designes[_designNo].statusPhase.statusPhase_1 == 0 || designes[_designNo].statusPhase.statusPhase_2==0, \"The voting is already finished and results are declared.\");\r\n\r\n        //Check for expiry. The result cannot be calculated before the expiry.\r\n        require(_timestamp > designes[_designNo].timestamp + designes[_designNo].deltaExp , \"The result cannot be revealed before the expiry.\");\r\n\r\n        //Since solidity do not support floating point arithematic, we will store the value as quotient and remainder.\r\n        //Here we are calculating the numerator and denominator.\r\n        int256 playerNum = 0;\r\n        int256 playerDen = 0;\r\n        uint256 playerWeight=0;\r\n        int256 playerReput=0;\r\n        for ( uint256 i = 0; i < regPlayers[_designNo].length; i++ ) {\r\n            \r\n            playerWeight=getPlayerWeight(regPlayers[_designNo][i]);\r\n            playerReput=getPlayerReputation(regPlayers[_designNo][i]);\r\n            //playerNum  += ( players[regPlayers[_designNo][i]].votes[_designNo] * int( players[regPlayers[_designNo][i]].weight ) * players[regPlayers[_designNo][i]].reputation );\r\n            //playerDen  += int ( players[regPlayers[_designNo][i]].weight ) * players[regPlayers[_designNo][i]].reputation;\r\n            if(designes[_designNo].phase==votingState.first)\r\n                playerNum  += ( playerVote[regPlayers[_designNo][i]][_designNo].votingStage1 * ( playerReput )*int(playerWeight));\r\n            \r\n            if(designes[_designNo].phase==votingState.second)\r\n                playerNum  += ( playerVote[regPlayers[_designNo][i]][_designNo].votingStage2 * int( playerWeight) * playerReput );\r\n\r\n            playerDen  += int ( playerWeight) * playerReput;\r\n        }\r\n\r\n        //Here we are just calculating the remainder as the value varies from 0 to 1.\r\n        //The borderline case of same positive and negative votes is considered as correct (To be decided later)\r\n        int256 finalScoreQuo = ( playerNum + playerDen ) / ( 2 * playerDen );\r\n        int256 finalScoreRem = ( playerNum + playerDen ) % ( 2 * playerDen );\r\n        int result = 0;\r\n        if ( finalScoreQuo == 1 || finalScoreRem >= playerDen ) {\r\n                //designes[_designNo].result = 1;\r\n            if(designes[_designNo].phase==votingState.first){\r\n                designes[_designNo].result1.resultPhase_1=1;\r\n                result = designes[_designNo].result1.resultPhase_1;\r\n            }\r\n            else if(designes[_designNo].phase==votingState.second){\r\n                designes[_designNo].result1.resultPhase_2=1;\r\n                result = designes[_designNo].result1.resultPhase_2;\r\n            }\r\n        } else if ( finalScoreRem < playerDen ) {\r\n            //designes[_designNo].result = -1;\r\n            if(designes[_designNo].phase==votingState.first){\r\n                designes[_designNo].result1.resultPhase_1=-1;\r\n                result = designes[_designNo].result1.resultPhase_1; \r\n            }\r\n            else if(designes[_designNo].phase==votingState.second){\r\n                designes[_designNo].result1.resultPhase_2=-1;\r\n                result = designes[_designNo].result1.resultPhase_2;\r\n            }\r\n        }\r\n        //result = designes[_designNo].result; //PROBABILE SOLUZIONE\r\n\r\n        for ( uint256 i = 0; i < regPlayers[_designNo].length; i++ ) {\r\n            if(designes[_designNo].phase==votingState.first){//PROBABLY SHOULD BE CHANGED BY CONSIDERING ALSO SECOND VOTING STAGE\r\n                if ( playerVote[regPlayers[_designNo][i]][_designNo].votingStage1 > 0 ) {\r\n                    //Set new reputation\r\n\r\n                    //user.airPlayers(regPlayers[_designNo][i]).reputation += playerVote[regPlayers[_designNo][i]][_designNo].votingStage1 * result;\r\n                    setPlayerReputation(regPlayers[_designNo][i], playerVote[regPlayers[_designNo][i]][_designNo].votingStage1 * result);\r\n                    //Set new weight (we only use the player weight. The total weight, which is used as normalization factor is eliminated in the final calculation.)\r\n                    setPlayerWeight(regPlayers[_designNo][i], uint ( playerVote[regPlayers[_designNo][i]][_designNo].votingStage1 * result ));\r\n                    //user.airPlayers(regPlayers[_designNo][i]).weight += uint ( playerVote[regPlayers[_designNo][i]][_designNo].votingStage1 * result );\r\n                } \r\n                else if( playerVote[regPlayers[_designNo][i]][_designNo].votingStage2 > 0 ){\r\n                                        //Set new reputation\r\n                    \r\n                    setPlayerReputation(regPlayers[_designNo][i], playerVote[regPlayers[_designNo][i]][_designNo].votingStage2 * result);\r\n                    //playerVote[regPlayers[_designNo][i]].reputation += playerVote[regPlayers[_designNo][i]][_designNo].votingStage2 * result;\r\n                    setPlayerWeight(regPlayers[_designNo][i], uint ( playerVote[regPlayers[_designNo][i]][_designNo].votingStage2 * result ));\r\n                    //Set new weight (we only use the player weight. The total weight, which is used as normalization factor is eliminated in the final calculation.)\r\n                   // user.airPlayers(regPlayers[_designNo][i]).weight += uint ( playerVote[regPlayers[_designNo][i]][_designNo].votingStage2 * result );\r\n                }\r\n                \r\n                \r\n                else {\r\n                    //Set new reputation\r\n                    setPlayerReputation(regPlayers[_designNo][i], (-1*result));//POSSIBLE SOLUTION\r\n                    //user.airPlayers(regPlayers[_designNo][i]).reputation += -1 * result;//TO CHECK HOW TO CHANGE THEM\r\n\r\n                    //Set new weight (we only use the player weight. The total weight, which is used as normalization factor is eliminated in the final calculation.)\r\n                    setPlayerWeight(regPlayers[_designNo][i], uint(-1*result));//POSSIBLE SOLUTION\r\n                    //user.airPlayers(regPlayers[_designNo][i]).weight += uint ( -1 * result );\r\n                }\r\n            }\r\n        }\r\n\r\n        for ( uint256 i = 0; i < regPlayers[_designNo].length; i++ ) {\r\n            if(designes[_designNo].phase==votingState.first){\r\n                if ( playerVote[regPlayers[_designNo][i]][_designNo].votingStage1 * result == 1) { // rimuovere * result\r\n                    //players[regPlayers[_designNo][i]].balance += designes[_designNo].taur;\r\n                    //ContractToken.transferFrom(address(SaleContract), regPlayers[_designNo][i], designes[_designNo].taur);\r\n                    designes[_designNo].balance -= designes[_designNo].taur;\r\n                } \r\n            }\r\n\r\n            else if(designes[_designNo].phase==votingState.second){\r\n                if ( playerVote[regPlayers[_designNo][i]][_designNo].votingStage2 * result == 1) { // rimuovere * result\r\n                    //players[regPlayers[_designNo][i]].balance += designes[_designNo].taur;\r\n                    //ContractToken.transferFrom(address(SaleContract), regPlayers[_designNo][i], designes[_designNo].taur);\r\n                    designes[_designNo].balance -= designes[_designNo].taur;\r\n\r\n                }\r\n            }\r\n\r\n            else {\r\n                //players[regPlayers[_designNo][i]].balance -= designes[_designNo].taup;\r\n                //ContractToken.transferFrom(regPlayers[_designNo][i], address(SaleContract), designes[_designNo].taup);\r\n                designes[_designNo].balance += designes[_designNo].taup;\r\n\r\n            }\r\n        }\r\n\r\n        //Set the status to finished\r\n        //designes[_designNo].status = 1;\r\n        if(designes[_designNo].phase==votingState.first)\r\n            designes[_designNo].statusPhase.statusPhase_1 = 1;\r\n        if(designes[_designNo].phase==votingState.second)\r\n            designes[_designNo].statusPhase.statusPhase_2=1;\r\n        //Setting the new phase start\r\n        if(designes[_designNo].result1.resultPhase_1==1 && designes[_designNo].phase==votingState.first){\r\n            designes[_designNo].phase=votingState.second;\r\n            designes[_designNo].timestamp=_timestamp;\r\n\r\n        }\r\n\r\n\r\n        //Emit the notification for the result\r\n        emit votingResult(result);\r\n    }*/\r\n\r\n\r\n\r\n\r\n\r\n\r\n\r\n\r\n\r\n\r\n\r\n\r\n\r\n\r\n\r\n\r\n\r\n\r\n\r\n\r\n\r\n\r\n\r\n\r\n\r\n\r\n\r\n\r\n\r\n\r\n\r\n\r\n\r\n\r\n\r\n\r\n\r\n\r\n\r\n\r\n\r\n\r\n\r\n",
  "sourcePath": "C:\\Users\\giova\\OneDrive\\Desktop\\Desk\\tirocinio\\prova\\smart-contract\\contracts\\2_VotingSystem\\VotingSystem.sol",
  "compiler": {
    "name": "solc",
    "version": "0.8.7+commit.e28d00a7.Emscripten.clang"
  },
  "schemaVersion": "3.4.3",
  "updatedAt": "2022-06-24T14:30:18.876Z",
  "networkType": "ethereum",
  "devdoc": {
    "kind": "dev",
    "methods": {},
    "version": 1
  },
  "userdoc": {
    "kind": "user",
    "methods": {},
    "version": 1
  }
}