{
  "contractName": "OnBoarding",
  "abi": [
    {
      "inputs": [
        {
          "internalType": "address",
          "name": "_user",
          "type": "address"
        }
      ],
      "stateMutability": "nonpayable",
      "type": "constructor"
    },
    {
      "anonymous": false,
      "inputs": [
        {
          "indexed": false,
          "internalType": "address",
          "name": "player_address",
          "type": "address"
        },
        {
          "indexed": false,
          "internalType": "bool",
          "name": "status",
          "type": "bool"
        }
      ],
      "name": "newPrinterAddition",
      "type": "event"
    },
    {
      "inputs": [
        {
          "internalType": "address",
          "name": "printerAddress",
          "type": "address"
        },
        {
          "internalType": "bytes32",
          "name": "name",
          "type": "bytes32"
        },
        {
          "internalType": "enum MaterialType[]",
          "name": "suppertedMaterial",
          "type": "uint8[]"
        },
        {
          "internalType": "uint256[]",
          "name": "nozzles",
          "type": "uint256[]"
        },
        {
          "internalType": "uint256",
          "name": "nozzlesMounted",
          "type": "uint256"
        },
        {
          "internalType": "uint256",
          "name": "printTemperature",
          "type": "uint256"
        },
        {
          "internalType": "uint256",
          "name": "bedTemperature",
          "type": "uint256"
        },
        {
          "internalType": "uint256",
          "name": "volume",
          "type": "uint256"
        },
        {
          "internalType": "bool",
          "name": "soluble",
          "type": "bool"
        },
        {
          "internalType": "bool",
          "name": "foodSafety",
          "type": "bool"
        }
      ],
      "name": "addPrinter",
      "outputs": [],
      "stateMutability": "payable",
      "type": "function",
      "payable": true
    },
    {
      "inputs": [],
      "name": "getMakerPrinters",
      "outputs": [
        {
          "components": [
            {
              "internalType": "bytes32",
              "name": "name",
              "type": "bytes32"
            },
            {
              "internalType": "enum MaterialType[]",
              "name": "supportedMaterial",
              "type": "uint8[]"
            },
            {
              "components": [
                {
                  "internalType": "bytes32",
                  "name": "name",
                  "type": "bytes32"
                },
                {
                  "internalType": "enum MaterialType",
                  "name": "mType",
                  "type": "uint8"
                },
                {
                  "internalType": "enum MaterialColor",
                  "name": "color",
                  "type": "uint8"
                },
                {
                  "internalType": "uint256",
                  "name": "quantityKG",
                  "type": "uint256"
                },
                {
                  "internalType": "uint256",
                  "name": "printTemperature",
                  "type": "uint256"
                },
                {
                  "internalType": "uint256",
                  "name": "bedTemperature",
                  "type": "uint256"
                }
              ],
              "internalType": "struct MaterialDetails",
              "name": "mountedMaterial",
              "type": "tuple"
            },
            {
              "internalType": "uint256[]",
              "name": "nozzles",
              "type": "uint256[]"
            },
            {
              "internalType": "uint256",
              "name": "mountedNozzles",
              "type": "uint256"
            },
            {
              "internalType": "uint256",
              "name": "maxPrintTemperature",
              "type": "uint256"
            },
            {
              "internalType": "uint256",
              "name": "maxBedTemperature",
              "type": "uint256"
            },
            {
              "internalType": "uint256",
              "name": "volume",
              "type": "uint256"
            },
            {
              "internalType": "bool",
              "name": "soluble",
              "type": "bool"
            },
            {
              "internalType": "bool",
              "name": "foodSafety",
              "type": "bool"
            },
            {
              "internalType": "bool",
              "name": "avaiable",
              "type": "bool"
            }
          ],
          "internalType": "struct Printer[]",
          "name": "mprinters",
          "type": "tuple[]"
        }
      ],
      "stateMutability": "view",
      "type": "function",
      "constant": true
    },
    {
      "inputs": [
        {
          "internalType": "uint256",
          "name": "index",
          "type": "uint256"
        }
      ],
      "name": "getMakerPrinter",
      "outputs": [
        {
          "components": [
            {
              "internalType": "bytes32",
              "name": "name",
              "type": "bytes32"
            },
            {
              "internalType": "enum MaterialType[]",
              "name": "supportedMaterial",
              "type": "uint8[]"
            },
            {
              "components": [
                {
                  "internalType": "bytes32",
                  "name": "name",
                  "type": "bytes32"
                },
                {
                  "internalType": "enum MaterialType",
                  "name": "mType",
                  "type": "uint8"
                },
                {
                  "internalType": "enum MaterialColor",
                  "name": "color",
                  "type": "uint8"
                },
                {
                  "internalType": "uint256",
                  "name": "quantityKG",
                  "type": "uint256"
                },
                {
                  "internalType": "uint256",
                  "name": "printTemperature",
                  "type": "uint256"
                },
                {
                  "internalType": "uint256",
                  "name": "bedTemperature",
                  "type": "uint256"
                }
              ],
              "internalType": "struct MaterialDetails",
              "name": "mountedMaterial",
              "type": "tuple"
            },
            {
              "internalType": "uint256[]",
              "name": "nozzles",
              "type": "uint256[]"
            },
            {
              "internalType": "uint256",
              "name": "mountedNozzles",
              "type": "uint256"
            },
            {
              "internalType": "uint256",
              "name": "maxPrintTemperature",
              "type": "uint256"
            },
            {
              "internalType": "uint256",
              "name": "maxBedTemperature",
              "type": "uint256"
            },
            {
              "internalType": "uint256",
              "name": "volume",
              "type": "uint256"
            },
            {
              "internalType": "bool",
              "name": "soluble",
              "type": "bool"
            },
            {
              "internalType": "bool",
              "name": "foodSafety",
              "type": "bool"
            },
            {
              "internalType": "bool",
              "name": "avaiable",
              "type": "bool"
            }
          ],
          "internalType": "struct Printer",
          "name": "myPrinter",
          "type": "tuple"
        }
      ],
      "stateMutability": "view",
      "type": "function",
      "constant": true
    },
    {
      "inputs": [],
      "name": "getMakerNPrinters",
      "outputs": [
        {
          "internalType": "uint256",
          "name": "Nprinters",
          "type": "uint256"
        }
      ],
      "stateMutability": "view",
      "type": "function",
      "constant": true
    },
    {
      "inputs": [
        {
          "internalType": "bytes32",
          "name": "name",
          "type": "bytes32"
        }
      ],
      "name": "checkMaterial",
      "outputs": [
        {
          "internalType": "bool",
          "name": "",
          "type": "bool"
        }
      ],
      "stateMutability": "view",
      "type": "function",
      "constant": true
    },
    {
      "inputs": [
        {
          "internalType": "bytes32",
          "name": "name",
          "type": "bytes32"
        },
        {
          "internalType": "enum MaterialType",
          "name": "mType",
          "type": "uint8"
        },
        {
          "internalType": "enum MaterialColor",
          "name": "mColor",
          "type": "uint8"
        },
        {
          "internalType": "uint256",
          "name": "quantityKG",
          "type": "uint256"
        },
        {
          "internalType": "uint256",
          "name": "printTemp",
          "type": "uint256"
        },
        {
          "internalType": "uint256",
          "name": "bedTemp",
          "type": "uint256"
        }
      ],
      "name": "addMaterials",
      "outputs": [],
      "stateMutability": "payable",
      "type": "function",
      "payable": true
    },
    {
      "inputs": [],
      "name": "getMaterialsName",
      "outputs": [
        {
          "internalType": "bytes32[]",
          "name": "mats",
          "type": "bytes32[]"
        }
      ],
      "stateMutability": "view",
      "type": "function",
      "constant": true
    },
    {
      "inputs": [],
      "name": "getMaterials",
      "outputs": [
        {
          "components": [
            {
              "internalType": "bytes32",
              "name": "name",
              "type": "bytes32"
            },
            {
              "internalType": "enum MaterialType",
              "name": "mType",
              "type": "uint8"
            },
            {
              "internalType": "enum MaterialColor",
              "name": "color",
              "type": "uint8"
            },
            {
              "internalType": "uint256",
              "name": "quantityKG",
              "type": "uint256"
            },
            {
              "internalType": "uint256",
              "name": "printTemperature",
              "type": "uint256"
            },
            {
              "internalType": "uint256",
              "name": "bedTemperature",
              "type": "uint256"
            }
          ],
          "internalType": "struct MaterialDetails[]",
          "name": "av_materials",
          "type": "tuple[]"
        }
      ],
      "stateMutability": "view",
      "type": "function",
      "constant": true
    },
    {
      "inputs": [
        {
          "internalType": "bytes32",
          "name": "name",
          "type": "bytes32"
        },
        {
          "internalType": "enum MaterialType",
          "name": "mType",
          "type": "uint8"
        },
        {
          "internalType": "enum MaterialColor",
          "name": "mColor",
          "type": "uint8"
        },
        {
          "internalType": "uint256",
          "name": "quantityKG",
          "type": "uint256"
        },
        {
          "internalType": "uint256",
          "name": "printTemp",
          "type": "uint256"
        },
        {
          "internalType": "uint256",
          "name": "bedTemp",
          "type": "uint256"
        }
      ],
      "name": "updateMaterial",
      "outputs": [],
      "stateMutability": "payable",
      "type": "function",
      "payable": true
    },
    {
      "inputs": [
        {
          "internalType": "bytes32",
          "name": "name",
          "type": "bytes32"
        }
      ],
      "name": "getMaterial",
      "outputs": [
        {
          "components": [
            {
              "internalType": "bytes32",
              "name": "name",
              "type": "bytes32"
            },
            {
              "internalType": "enum MaterialType",
              "name": "mType",
              "type": "uint8"
            },
            {
              "internalType": "enum MaterialColor",
              "name": "color",
              "type": "uint8"
            },
            {
              "internalType": "uint256",
              "name": "quantityKG",
              "type": "uint256"
            },
            {
              "internalType": "uint256",
              "name": "printTemperature",
              "type": "uint256"
            },
            {
              "internalType": "uint256",
              "name": "bedTemperature",
              "type": "uint256"
            }
          ],
          "internalType": "struct MaterialDetails",
          "name": "myMaterial",
          "type": "tuple"
        }
      ],
      "stateMutability": "view",
      "type": "function",
      "constant": true
    },
    {
      "inputs": [
        {
          "internalType": "bytes32",
          "name": "name",
          "type": "bytes32"
        },
        {
          "internalType": "enum MaterialType",
          "name": "mType",
          "type": "uint8"
        }
      ],
      "name": "removeMaterial",
      "outputs": [],
      "stateMutability": "payable",
      "type": "function",
      "payable": true
    },
    {
      "inputs": [
        {
          "internalType": "bytes32",
          "name": "name",
          "type": "bytes32"
        },
        {
          "internalType": "enum MaterialType",
          "name": "mType",
          "type": "uint8"
        },
        {
          "internalType": "uint256",
          "name": "printer",
          "type": "uint256"
        }
      ],
      "name": "mountMaterial",
      "outputs": [],
      "stateMutability": "payable",
      "type": "function",
      "payable": true
    },
    {
      "inputs": [
        {
          "internalType": "uint256",
          "name": "index",
          "type": "uint256"
        }
      ],
      "name": "RemovePrinter",
      "outputs": [],
      "stateMutability": "payable",
      "type": "function",
      "payable": true
    }
  ],
  "bytecode": "0x6101406040526000608081905260a081905260c081905260e08190526101008190526101208190528080556001805461ffff19169055600281905560038190556004553480156200004f57600080fd5b50604051620030f4380380620030f4833981016040819052620000729162000098565b600a80546001600160a01b0319166001600160a01b0392909216919091179055620000ca565b600060208284031215620000ab57600080fd5b81516001600160a01b0381168114620000c357600080fd5b9392505050565b61301a80620000da6000396000f3fe6080604052600436106100c25760003560e01c80635582e5431161007f57806380dfedcd1161005957806380dfedcd146101c4578063a6bc7738146101e6578063a901c126146101f9578063b0980fdf1461022657600080fd5b80635582e5431461017b5780636b04fb471461018e5780637be8eb45146101b157600080fd5b80630eb201fe146100c757806315e10e99146100fc57806320b83e21146101115780633bdda5e21461013357806351f8162d1461014657806354bf796514610168575b600080fd5b3480156100d357600080fd5b506100e76100e2366004612a96565b610253565b60405190151581526020015b60405180910390f35b61010f61010a366004612b39565b6102c2565b005b34801561011d57600080fd5b506101266105ce565b6040516100f39190612d8d565b61010f6101413660046129aa565b610a01565b34801561015257600080fd5b5061015b610efc565b6040516100f39190612d07565b61010f610176366004612adb565b610f5d565b61010f610189366004612a96565b61123c565b34801561019a57600080fd5b506101a3611446565b6040519081526020016100f3565b61010f6101bf366004612adb565b611481565b3480156101d057600080fd5b506101d9611782565b6040516100f39190612d4b565b61010f6101f4366004612aaf565b6119f5565b34801561020557600080fd5b50610219610214366004612a96565b612051565b6040516100f39190612e9f565b34801561023257600080fd5b50610246610241366004612a96565b612373565b6040516100f39190612eb3565b600080805b336000908152600960205260409020548110156102bb5733600090815260096020526040902080548591908390811061029357610293612fa7565b906000526020600020015414156102a957600191505b806102b381612f4a565b915050610258565b5092915050565b600a5460405163e75600c360e01b81523360048201526001600160a01b039091169063e75600c39060240160206040518083038186803b15801561030557600080fd5b505afa158015610319573d6000803e3d6000fd5b505050506040513d601f19601f8201168201806040525081019061033d9190612a72565b15156001146103935760405162461bcd60e51b815260206004820181905260248201527f4f6e6c79204d616b65722063616e2064656c657465204d6174657269616c732e60448201526064015b60405180910390fd5b61039c83610253565b15156001146103bd5760405162461bcd60e51b815260040161038a90612def565b60005b336000908152600860205260408120908460028111156103e2576103e2612f7b565b60028111156103f3576103f3612f7b565b81526020810191909152604001600020548110156105c857336000908152600860205260408120859185600281111561042e5761042e612f7b565b600281111561043f5761043f612f7b565b8152602001908152602001600020828154811061045e5761045e612fa7565b90600052602060002090600502016000015414156105b6573360009081526008602052604081209084600281111561049857610498612f7b565b60028111156104a9576104a9612f7b565b815260200190815260200160002081815481106104c8576104c8612fa7565b6000918252602080832033845260058083526040808620600790945285208054949091029091019391928690811061050257610502612fa7565b60009182526020808320909101546001600160a01b0316835282019290925260400190208154600280830191825560018481015460039094018054939460ff1693909260ff199091169190849081111561055e5761055e612f7b565b0217905550600182810154908201805460ff61010093849004169261ff00199091169083600b81111561059357610593612f7b565b021790555060028281015490820155600380830154908201556004918201549101555b806105c081612f4a565b9150506103c0565b50505050565b600a54604051629c95e160e41b81523360048201526060916001600160a01b0316906309c95e109060240160206040518083038186803b15801561061157600080fd5b505afa158015610625573d6000803e3d6000fd5b505050506040513d601f19601f820116820180604052508101906106499190612a72565b151560011461066a5760405162461bcd60e51b815260040161038a90612e26565b600a5460405163e75600c360e01b81523360048201526001600160a01b039091169063e75600c39060240160206040518083038186803b1580156106ad57600080fd5b505afa1580156106c1573d6000803e3d6000fd5b505050506040513d601f19601f820116820180604052508101906106e59190612a72565b15156001146107065760405162461bcd60e51b815260040161038a90612e5d565b3360009081526007602052604090205467ffffffffffffffff81111561072e5761072e612fbd565b60405190808252806020026020018201604052801561076757816020015b6107546126ff565b81526020019060019003908161074c5790505b50905060005b336000908152600760205260409020548110156109fd57336000908152600560209081526040808320600790925282208054919291849081106107b2576107b2612fa7565b60009182526020808320909101546001600160a01b03168352828101939093526040918201902081516101608101835281548152600182018054845181870281018701909552808552919492938584019390929083018282801561086557602002820191906000526020600020906000905b82829054906101000a900460ff16600281111561084357610843612f7b565b8152602060019283018181049485019490930390920291018084116108245790505b50505050508152602001600282016040518060c0016040529081600082015481526020016001820160009054906101000a900460ff1660028111156108ac576108ac612f7b565b60028111156108bd576108bd612f7b565b81526020016001820160019054906101000a900460ff16600b8111156108e5576108e5612f7b565b600b8111156108f6576108f6612f7b565b8152602001600282015481526020016003820154815260200160048201548152505081526020016007820180548060200260200160405190810160405280929190818152602001828054801561096b57602002820191906000526020600020905b815481526020019060010190808311610957575b50505091835250506008820154602082015260098201546040820152600a8201546060820152600b8201546080820152600c9091015460ff808216151560a084015261010082048116151560c08401526201000090910416151560e09091015282518390839081106109df576109df612fa7565b602002602001018190525080806109f590612f4a565b91505061076d565b5090565b600a54604051629c95e160e41b81523360048201526001600160a01b03909116906309c95e109060240160206040518083038186803b158015610a4357600080fd5b505afa158015610a57573d6000803e3d6000fd5b505050506040513d601f19601f82011682018060405250810190610a7b9190612a72565b1515600114610a9c5760405162461bcd60e51b815260040161038a90612e26565b600a5460405163e75600c360e01b81523360048201526001600160a01b039091169063e75600c39060240160206040518083038186803b158015610adf57600080fd5b505afa158015610af3573d6000803e3d6000fd5b505050506040513d601f19601f82011682018060405250810190610b179190612a72565b1515600114610b685760405162461bcd60e51b815260206004820152601c60248201527f4f6e6c79204d616b65722063616e20616464205072696e746572732e00000000604482015260640161038a565b60408051610160810182528a815260208082018b9052825160c081018452600080548252600154909484019285919083019060ff166002811115610bae57610bae612f7b565b6002811115610bbf57610bbf612f7b565b81526020016001820160019054906101000a900460ff16600b811115610be757610be7612f7b565b600b811115610bf857610bf8612f7b565b815260200160028201548152602001600382015481526020016004820154815250508152602001898152602001888152602001878152602001868152602001858152602001841515815260200183151581526020016001151581525090508060056000336001600160a01b03166001600160a01b0316815260200190815260200160002060008d6001600160a01b03166001600160a01b03168152602001908152602001600020600082015181600001556020820151816001019080519060200190610cc5929190612764565b5060408201518051600280840191825560208301516003850180549192909160ff1916906001908490811115610cfd57610cfd612f7b565b0217905550604082015160018201805461ff00191661010083600b811115610d2757610d27612f7b565b021790555060608281015160028301556080830151600383015560a0909201516004909101558201518051610d66916007840191602090910190612814565b506080820151816008015560a0820151816009015560c082015181600a015560e082015181600b015561010082015181600c0160006101000a81548160ff02191690831515021790555061012082015181600c0160016101000a81548160ff02191690831515021790555061014082015181600c0160026101000a81548160ff021916908315150217905550905050600160066000336001600160a01b03166001600160a01b0316815260200190815260200160002060006101000a81548160ff02191690831515021790555060076000336001600160a01b03166001600160a01b031681526020019081526020016000208b9080600181540180825580915050600190039060005260206000200160009091909190916101000a8154816001600160a01b0302191690836001600160a01b031602179055507f68f1f4a765c80cce6152bba70adcfe422531198b0d733f8555bd9b2f1c0feb44336001604051610ee79291906001600160a01b039290921682521515602082015260400190565b60405180910390a15050505050505050505050565b33600090815260096020908152604091829020805483518184028101840190945280845260609392830182828015610f5357602002820191906000526020600020905b815481526020019060010190808311610f3f575b5050505050905090565b600a5460405163e75600c360e01b81523360048201526001600160a01b039091169063e75600c39060240160206040518083038186803b158015610fa057600080fd5b505afa158015610fb4573d6000803e3d6000fd5b505050506040513d601f19601f82011682018060405250810190610fd89190612a72565b15156001146110295760405162461bcd60e51b815260206004820152601c60248201527f4f6e6c79204d616b65722063616e20616464204d6174657269616c2e00000000604482015260640161038a565b600084600b81111561103d5761103d612f7b565b141561107d5760405162461bcd60e51b815260206004820152600f60248201526e10dbdb1bdc881b9bdd081d985b1a59608a1b604482015260640161038a565b61108686610253565b156110e65760405162461bcd60e51b815260206004820152602a60248201527f546865726520697320616c72656164792061206d6174657269616c20776974686044820152692074686973206e616d6560b01b606482015260840161038a565b60006040518060c0016040528088815260200187600281111561110b5761110b612f7b565b815260200186600b81111561112257611122612f7b565b8152602080820187905260408083018790526060909201859052336000908152600890915290812091925087600281111561115f5761115f612f7b565b600281111561117057611170612f7b565b81526020808201929092526040016000908120805460018181018355918352918390208451600590930201918255918301518183018054859460ff19909116908360028111156111c2576111c2612f7b565b0217905550604082015160018201805461ff00191661010083600b8111156111ec576111ec612f7b565b0217905550606082015160028201556080820151600382015560a0909101516004909101555050336000908152600960209081526040822080546001810182559083529120019490945550505050565b600a54604051629c95e160e41b81523360048201526001600160a01b03909116906309c95e109060240160206040518083038186803b15801561127e57600080fd5b505afa158015611292573d6000803e3d6000fd5b505050506040513d601f19601f820116820180604052508101906112b69190612a72565b15156001146112d75760405162461bcd60e51b815260040161038a90612e26565b600a5460405163e75600c360e01b81523360048201526001600160a01b039091169063e75600c39060240160206040518083038186803b15801561131a57600080fd5b505afa15801561132e573d6000803e3d6000fd5b505050506040513d601f19601f820116820180604052508101906113529190612a72565b15156001146113735760405162461bcd60e51b815260040161038a90612e5d565b336000908152600760205260409020805461139090600190612f33565b815481106113a0576113a0612fa7565b60009182526020808320909101543383526007909152604090912080546001600160a01b0390921691839081106113d9576113d9612fa7565b600091825260208083209190910180546001600160a01b0319166001600160a01b03949094169390931790925533815260079091526040902080548061142157611421612f91565b600082815260209020810160001990810180546001600160a01b031916905501905550565b6000805b336000908152600760205260409020548110156109fd578161146b81612f4a565b925050808061147990612f4a565b91505061144a565b600a5460405163e75600c360e01b81523360048201526001600160a01b039091169063e75600c39060240160206040518083038186803b1580156114c457600080fd5b505afa1580156114d8573d6000803e3d6000fd5b505050506040513d601f19601f820116820180604052508101906114fc9190612a72565b151560011461154d5760405162461bcd60e51b815260206004820181905260248201527f4f6e6c79204d616b65722063616e20757064617465204d6174657269616c732e604482015260640161038a565b61155686610253565b15156001146115775760405162461bcd60e51b815260040161038a90612def565b60005b3360009081526008602052604081209087600281111561159c5761159c612f7b565b60028111156115ad576115ad612f7b565b81526020810191909152604001600020548110156117795733600090815260086020526040812088918860028111156115e8576115e8612f7b565b60028111156115f9576115f9612f7b565b8152602001908152602001600020828154811061161857611618612fa7565b9060005260206000209060050201600001541415611767576040518060c0016040528088815260200187600281111561165357611653612f7b565b815260200186600b81111561166a5761166a612f7b565b81526020808201879052604080830187905260609092018590523360009081526008909152908120908860028111156116a5576116a5612f7b565b60028111156116b6576116b6612f7b565b815260200190815260200160002082815481106116d5576116d5612fa7565b90600052602060002090600502016000820151816000015560208201518160010160006101000a81548160ff0219169083600281111561171757611717612f7b565b0217905550604082015160018201805461ff00191661010083600b81111561174157611741612f7b565b0217905550606082015160028201556080820151600382015560a0909101516004909101555b8061177181612f4a565b91505061157a565b50505050505050565b3360009081526008602090815260408083206001845290915280822054600283528183205483805291832054606093926117bb91612f1b565b6117c59190612f1b565b90508067ffffffffffffffff8111156117e0576117e0612fbd565b60405190808252806020026020018201604052801561181957816020015b61180661284f565b8152602001906001900390816117fe5790505b5091506000805b60038110156119ef5760005b3360009081526008602052604081209083600281111561184e5761184e612f7b565b600281111561185f5761185f612f7b565b600281111561187057611870612f7b565b81526020810191909152604001600020548110156119dc57336000908152600860205260408120908360028111156118aa576118aa612f7b565b60028111156118bb576118bb612f7b565b60028111156118cc576118cc612f7b565b815260200190815260200160002081815481106118eb576118eb612fa7565b90600052602060002090600502016040518060c0016040529081600082015481526020016001820160009054906101000a900460ff16600281111561193257611932612f7b565b600281111561194357611943612f7b565b81526020016001820160019054906101000a900460ff16600b81111561196b5761196b612f7b565b600b81111561197c5761197c612f7b565b815260200160028201548152602001600382015481526020016004820154815250508584815181106119b0576119b0612fa7565b602002602001018190525082806119c690612f4a565b93505080806119d490612f4a565b91505061182c565b50806119e781612f4a565b915050611820565b50505090565b600a5460405163e75600c360e01b81523360048201526001600160a01b039091169063e75600c39060240160206040518083038186803b158015611a3857600080fd5b505afa158015611a4c573d6000803e3d6000fd5b505050506040513d601f19601f82011682018060405250810190611a709190612a72565b1515600114611ac15760405162461bcd60e51b815260206004820181905260248201527f4f6e6c79204d616b65722063616e2064656c657465204d6174657269616c732e604482015260640161038a565b611aca82610253565b1515600114611aeb5760405162461bcd60e51b815260040161038a90612def565b60005b33600090815260086020526040812090836002811115611b1057611b10612f7b565b6002811115611b2157611b21612f7b565b8152602081019190915260400160002054811015611ddd573360009081526008602052604081208491846002811115611b5c57611b5c612f7b565b6002811115611b6d57611b6d612f7b565b81526020019081526020016000208281548110611b8c57611b8c612fa7565b9060005260206000209060050201600001541415611dcb5733600090815260086020526040812090836002811115611bc657611bc6612f7b565b6002811115611bd757611bd7612f7b565b8152602080820192909252604090810160009081203382526008909352908120600191856002811115611c0c57611c0c612f7b565b6002811115611c1d57611c1d612f7b565b8152602081019190915260400160002054611c389190612f33565b81548110611c4857611c48612fa7565b6000918252602080832033845260089091526040832060059092020191846002811115611c7757611c77612f7b565b6002811115611c8857611c88612f7b565b81526020019081526020016000208281548110611ca757611ca7612fa7565b600091825260209091208254600590920201908155600180830154818301805460ff90921692909160ff191690836002811115611ce657611ce6612f7b565b0217905550600182810154908201805460ff61010093849004169261ff00199091169083600b811115611d1b57611d1b612f7b565b021790555060028281015482820155600380840154908301556004928301549290910191909155336000908152600860205260408120918490811115611d6357611d63612f7b565b6002811115611d7457611d74612f7b565b8152602001908152602001600020805480611d9157611d91612f91565b60008281526020812060056000199093019283020181815560018101805461ffff1916905560028101829055600381018290556004015590555b80611dd581612f4a565b915050611aee565b5060005b33600090815260096020526040902054811015611ee057336000908152600960205260409020805484919083908110611e1c57611e1c612fa7565b90600052602060002001541415611ece573360009081526009602052604090208054611e4a90600190612f33565b81548110611e5a57611e5a612fa7565b600091825260208083209091015433835260099091526040909120805483908110611e8757611e87612fa7565b6000918252602080832090910192909255338152600990915260409020805480611eb357611eb3612f91565b60019003818190600052602060002001600090559055611ee0565b80611ed881612f4a565b915050611de1565b5060005b3360009081526007602052604090205481101561204c573360009081526005602090815260408083206007909252822080548693919085908110611f2a57611f2a612fa7565b60009182526020808320909101546001600160a01b03168352820192909252604001902060020154141561203a5733600090815260056020908152604080832060079092528220805483919085908110611f8657611f86612fa7565b60009182526020808320909101546001600160a01b0316835282019290925260400190208154600280830191825560018481015460039094018054939460ff1693909260ff1990911691908490811115611fe257611fe2612f7b565b0217905550600182810154908201805460ff61010093849004169261ff00199091169083600b81111561201757612017612f7b565b021790555060028281015490820155600380830154908201556004918201549101555b8061204481612f4a565b915050611ee4565b505050565b61205961284f565b600a5460405163e75600c360e01b81523360048201526001600160a01b039091169063e75600c39060240160206040518083038186803b15801561209c57600080fd5b505afa1580156120b0573d6000803e3d6000fd5b505050506040513d601f19601f820116820180604052508101906120d49190612a72565b15156001146121195760405162461bcd60e51b815260206004820152601160248201527027b832b930ba34b7b7103232b734b2b21760791b604482015260640161038a565b61212282610253565b15156001146121435760405162461bcd60e51b815260040161038a90612def565b60005b600381101561236d5760005b3360009081526008602052604081209083600281111561217457612174612f7b565b600281111561218557612185612f7b565b600281111561219657612196612f7b565b815260208101919091526040016000205481101561235a5733600090815260086020526040812085918460028111156121d1576121d1612f7b565b60028111156121e2576121e2612f7b565b60028111156121f3576121f3612f7b565b8152602001908152602001600020828154811061221257612212612fa7565b9060005260206000209060050201600001541415612348573360009081526008602052604081209083600281111561224c5761224c612f7b565b600281111561225d5761225d612f7b565b600281111561226e5761226e612f7b565b8152602001908152602001600020818154811061228d5761228d612fa7565b90600052602060002090600502016040518060c0016040529081600082015481526020016001820160009054906101000a900460ff1660028111156122d4576122d4612f7b565b60028111156122e5576122e5612f7b565b81526020016001820160019054906101000a900460ff16600b81111561230d5761230d612f7b565b600b81111561231e5761231e612f7b565b81526002820154602082015260038201546040820152600490910154606090910152949350505050565b8061235281612f4a565b915050612152565b508061236581612f4a565b915050612146565b50919050565b61237b6126ff565b600a54604051629c95e160e41b81523360048201526001600160a01b03909116906309c95e109060240160206040518083038186803b1580156123bd57600080fd5b505afa1580156123d1573d6000803e3d6000fd5b505050506040513d601f19601f820116820180604052508101906123f59190612a72565b15156001146124165760405162461bcd60e51b815260040161038a90612e26565b600a5460405163e75600c360e01b81523360048201526001600160a01b039091169063e75600c39060240160206040518083038186803b15801561245957600080fd5b505afa15801561246d573d6000803e3d6000fd5b505050506040513d601f19601f820116820180604052508101906124919190612a72565b15156001146124b25760405162461bcd60e51b815260040161038a90612e5d565b336000908152600560209081526040808320600790925282208054919291859081106124e0576124e0612fa7565b60009182526020808320909101546001600160a01b03168352828101939093526040918201902081516101608101835281548152600182018054845181870281018701909552808552919492938584019390929083018282801561259357602002820191906000526020600020906000905b82829054906101000a900460ff16600281111561257157612571612f7b565b8152602060019283018181049485019490930390920291018084116125525790505b50505050508152602001600282016040518060c0016040529081600082015481526020016001820160009054906101000a900460ff1660028111156125da576125da612f7b565b60028111156125eb576125eb612f7b565b81526020016001820160019054906101000a900460ff16600b81111561261357612613612f7b565b600b81111561262457612624612f7b565b8152602001600282015481526020016003820154815260200160048201548152505081526020016007820180548060200260200160405190810160405280929190818152602001828054801561269957602002820191906000526020600020905b815481526020019060010190808311612685575b50505091835250506008820154602082015260098201546040820152600a8201546060820152600b8201546080820152600c9091015460ff808216151560a084015261010082048116151560c08401526201000090910416151560e09091015292915050565b6040805161016081018252600081526060602082015290810161272061284f565b815260200160608152602001600081526020016000815260200160008152602001600081526020016000151581526020016000151581526020016000151581525090565b82805482825590600052602060002090601f016020900481019282156128085791602002820160005b838211156127d957835183826101000a81548160ff021916908360028111156127b8576127b8612f7b565b0217905550926020019260010160208160000104928301926001030261278d565b80156128065782816101000a81549060ff02191690556001016020816000010492830192600103026127d9565b505b506109fd929150612886565b828054828255906000526020600020908101928215612808579160200282015b82811115612808578251825591602001919060010190612834565b6040805160c08101909152600080825260208201908152602001600081526020016000815260200160008152602001600081525090565b5b808211156109fd5760008155600101612887565b80356001600160a01b03811681146128b257600080fd5b919050565b600082601f8301126128c857600080fd5b813560206128dd6128d883612ef7565b612ec6565b80838252828201915082860187848660051b89010111156128fd57600080fd5b60005b85811015612923576129118261299b565b84529284019290840190600101612900565b5090979650505050505050565b600082601f83011261294157600080fd5b813560206129516128d883612ef7565b80838252828201915082860187848660051b890101111561297157600080fd5b60005b8581101561292357813584529284019290840190600101612974565b80356128b281612fd3565b8035600381106128b257600080fd5b6000806000806000806000806000806101408b8d0312156129ca57600080fd5b6129d38b61289b565b995060208b0135985060408b013567ffffffffffffffff808211156129f757600080fd5b612a038e838f016128b7565b995060608d0135915080821115612a1957600080fd5b50612a268d828e01612930565b97505060808b0135955060a08b0135945060c08b0135935060e08b01359250612a526101008c01612990565b9150612a616101208c01612990565b90509295989b9194979a5092959850565b600060208284031215612a8457600080fd5b8151612a8f81612fd3565b9392505050565b600060208284031215612aa857600080fd5b5035919050565b60008060408385031215612ac257600080fd5b82359150612ad26020840161299b565b90509250929050565b60008060008060008060c08789031215612af457600080fd5b86359550612b046020880161299b565b94506040870135600c8110612b1857600080fd5b959894975094956060810135955060808101359460a0909101359350915050565b600080600060608486031215612b4e57600080fd5b83359250612b5e6020850161299b565b9150604084013590509250925092565b600081518084526020808501945080840160005b83811015612ba557612b95878351612be0565b9582019590820190600101612b82565b509495945050505050565b600081518084526020808501945080840160005b83811015612ba557815187529582019590820190600101612bc4565b60038110612bf057612bf0612f7b565b9052565b805182526020810151612c0a6020840182612be0565b506040810151600c8110612c2057612c20612f7b565b6040830152606081810151908301526080808201519083015260a090810151910152565b6000610200825184526020830151816020860152612c6482860182612b6e565b9150506040830151612c796040860182612bf4565b50606083015161010085830381870152612c938383612bb0565b925060808501519150610120828188015260a08601519250610140838189015260c087015161016089015260e0870151610180890152828701519350612cde6101a089018515159052565b9086015115156101c08801528501518015156101e08801529150612cff9050565b509392505050565b6020808252825182820181905260009190848201906040850190845b81811015612d3f57835183529284019291840191600101612d23565b50909695505050505050565b6020808252825182820181905260009190848201906040850190845b81811015612d3f57612d7a838551612bf4565b9284019260c09290920191600101612d67565b6000602080830181845280855180835260408601915060408160051b870101925083870160005b82811015612de257603f19888603018452612dd0858351612c44565b94509285019290850190600101612db4565b5092979650505050505050565b6020808252601a908201527f4e6f206d6174657269616c20776974682074686973206e616d65000000000000604082015260600190565b60208082526019908201527f506c61796572206e6f7420696e207468652073797374656d2e00000000000000604082015260600190565b60208082526022908201527f4f6e6c79204d616b65722063616e20676574207468656972205072696e746572604082015261399760f11b606082015260800190565b60c08101612ead8284612bf4565b92915050565b602081526000612a8f6020830184612c44565b604051601f8201601f1916810167ffffffffffffffff81118282101715612eef57612eef612fbd565b604052919050565b600067ffffffffffffffff821115612f1157612f11612fbd565b5060051b60200190565b60008219821115612f2e57612f2e612f65565b500190565b600082821015612f4557612f45612f65565b500390565b6000600019821415612f5e57612f5e612f65565b5060010190565b634e487b7160e01b600052601160045260246000fd5b634e487b7160e01b600052602160045260246000fd5b634e487b7160e01b600052603160045260246000fd5b634e487b7160e01b600052603260045260246000fd5b634e487b7160e01b600052604160045260246000fd5b8015158114612fe157600080fd5b5056fea2646970667358221220d47a1a404fe5ac161c7696ad6e6256c4453d6aea8ed2a4522805e815d13000e864736f6c63430008070033",
  "immutableReferences": {},
  "source": "/*\r\n * @author Pipitone Antonio \r\n * @SPDX-License-Identifier: UNLICENSED\r\n */\r\npragma solidity >=0.4.22 <0.9.0;\r\npragma experimental ABIEncoderV2;\r\n\r\nimport \"./Structs/OnBoardingStructs.sol\";\r\n\r\nabstract contract IUser{\r\n    mapping (address => bool) public isPlayer;\r\n    function isMaker(address adr) virtual public view returns(bool);\r\n}\r\n\r\ncontract OnBoarding {\r\n    //Printer\r\n    MaterialDetails private NONE = MaterialDetails(\"\",MaterialType.ABS,MaterialColor.NONE,0,0,0);\r\n\r\n     //Printers\r\n    mapping (address => mapping(address => Printer)) private printers;\r\n    mapping (address => bool) private isPrinter;\r\n    mapping (address => address[]) private makerPrinters;\r\n\r\n    //Material\r\n    mapping (address => mapping (MaterialType => MaterialDetails[]) ) private materials;\r\n    mapping (address => bytes32[]) private materialsName;\r\n\r\n    event newPrinterAddition(address player_address, bool status);\r\n\r\n    IUser private Iuser;\r\n    constructor(address _user){\r\n        Iuser = IUser(_user);\r\n    }\r\n\r\n\r\n    //Functions Printers\r\n    function addPrinter(\r\n        address printerAddress,\r\n        bytes32 name, \r\n        MaterialType[] memory suppertedMaterial,\r\n        uint256[] memory nozzles,\r\n        uint256 nozzlesMounted, \r\n        uint256 printTemperature, \r\n        uint256 bedTemperature, \r\n        uint256 volume, \r\n        bool soluble,\r\n        bool foodSafety\r\n    ) public payable{\r\n        require( Iuser.isPlayer(msg.sender) == true, \"Player not in the system.\");\r\n        require( Iuser.isMaker(msg.sender) == true, \"Only Maker can add Printers.\");\r\n\r\n        Printer memory newPrinter = Printer(\r\n                                            name,\r\n                                            suppertedMaterial,\r\n                                            NONE, \r\n                                            nozzles, \r\n                                            nozzlesMounted, \r\n                                            printTemperature, \r\n                                            bedTemperature, \r\n                                            volume, \r\n                                            soluble, \r\n                                            foodSafety,\r\n                                            true\r\n                                            );\r\n        printers[msg.sender][printerAddress] = (newPrinter);  \r\n        isPrinter[msg.sender] = true;\r\n        makerPrinters[msg.sender].push(printerAddress);\r\n\r\n\r\n        emit newPrinterAddition(msg.sender, true);\r\n    }\r\n\r\n\r\n\r\n    function getMakerPrinters() \r\n    public view \r\n    returns (Printer[] memory mprinters){\r\n        require( Iuser.isPlayer(msg.sender) == true, \"Player not in the system.\");\r\n        require( Iuser.isMaker(msg.sender) == true, \"Only Maker can get their Printers.\");\r\n        mprinters = new Printer[](makerPrinters[msg.sender].length);\r\n        for (uint i = 0; i < makerPrinters[msg.sender].length; i++) {\r\n            mprinters[i] = printers[msg.sender][makerPrinters[msg.sender][i]];\r\n        }\r\n        return mprinters;\r\n    }\r\n\r\n    function getMakerPrinter(uint256 index)\r\n    public view returns(Printer memory myPrinter)\r\n    {\r\n        require( Iuser.isPlayer(msg.sender) == true, \"Player not in the system.\");\r\n        require( Iuser.isMaker(msg.sender) == true, \"Only Maker can get their Printers.\");\r\n        myPrinter = printers[msg.sender][makerPrinters [msg.sender][index]];\r\n        return myPrinter;\r\n    }\r\n\r\n    function getMakerNPrinters()\r\n    public view\r\n    returns(uint256 Nprinters){\r\n        for (uint i = 0; i < makerPrinters[msg.sender].length; i++) {\r\n            Nprinters++;\r\n        }\r\n        return Nprinters;\r\n    }\r\n\r\n    //Functions Materials\r\n    function checkMaterial(bytes32 name) \r\n    public view returns(bool){\r\n        bool response = false;\r\n        for(uint i = 0; i < materialsName[msg.sender].length; i++ ){\r\n            if (materialsName[msg.sender][i] == name){\r\n                response = true;\r\n            }\r\n        }\r\n        return response;\r\n    }\r\n\r\n    function addMaterials(bytes32 name, MaterialType mType, MaterialColor mColor, uint256 quantityKG, uint256 printTemp, uint256 bedTemp)\r\n    public payable{\r\n        require( Iuser.isMaker(msg.sender) == true, \"Only Maker can add Material.\");\r\n        require(mColor != MaterialColor.NONE, \"Color not valid\");\r\n        require(checkMaterial(name) == false, \"There is already a material with this name\");\r\n        MaterialDetails memory newMaterial = MaterialDetails(name, mType,mColor, quantityKG, printTemp, bedTemp);    \r\n        materials[msg.sender][mType].push(newMaterial);\r\n        materialsName[msg.sender].push(name);\r\n    }\r\n\r\n    function getMaterialsName()\r\n    public view returns (bytes32 [] memory mats){\r\n        return materialsName[msg.sender];\r\n    }\r\n\r\n    function getMaterials()\r\n    public view\r\n    returns (MaterialDetails[] memory av_materials){\r\n        \r\n        uint256 n_materials = materials[msg.sender][MaterialType.ABS].length+materials[msg.sender][MaterialType.PETG].length+materials[msg.sender][MaterialType.PLA].length;\r\n        av_materials = new MaterialDetails[](n_materials);\r\n        uint256 x = 0;\r\n        for (uint i = 0; i < 3; i++){\r\n            for(uint j=0; j < materials[msg.sender][MaterialType(i)].length; j++){\r\n                av_materials[x] = materials[msg.sender][MaterialType(i)][j];\r\n                x++;\r\n            }\r\n        }\r\n        return av_materials;\r\n    }\r\n\r\n    function updateMaterial(bytes32 name, MaterialType mType, MaterialColor mColor, uint256 quantityKG, uint256 printTemp, uint256 bedTemp)\r\n    public payable{\r\n        require( Iuser.isMaker(msg.sender) == true, \"Only Maker can update Materials.\");\r\n        require(checkMaterial(name) == true, \"No material with this name\");\r\n\r\n        for(uint j=0; j < materials[msg.sender][mType].length; j++){\r\n            if (materials[msg.sender][mType][j].name==name){\r\n                materials[msg.sender][mType][j] = MaterialDetails(name,mType, mColor, quantityKG, printTemp, bedTemp); \r\n            }\r\n        }\r\n    }\r\n\r\nfunction getMaterial(bytes32 name)public view returns(MaterialDetails memory myMaterial){\r\n        require( Iuser.isMaker(msg.sender) == true, \"Operation denied.\");\r\n        require(checkMaterial(name) == true, \"No material with this name\");\r\n        for (uint i = 0; i < 3; i++){\r\n            for(uint j=0; j < materials[msg.sender][MaterialType(i)].length; j++){\r\n                if (materials[msg.sender][MaterialType(i)][j].name==name){\r\n                    return materials[msg.sender][MaterialType(i)][j];\r\n                }\r\n        }\r\n        \r\n    }\r\n    }\r\n    \r\n    function removeMaterial(bytes32 name, MaterialType mType) \r\n    public payable{\r\n        require( Iuser.isMaker(msg.sender) == true, \"Only Maker can delete Materials.\");\r\n        require(checkMaterial(name) == true, \"No material with this name\");\r\n\r\n        /*for(uint j=0; j < materials[msg.sender][mType].length; j++){\r\n            if (materials[msg.sender][mType][j].name==name){\r\n                materials[msg.sender][mType][j] = NONE;\r\n            }\r\n        }*/\r\n                for(uint j=0; j < materials[msg.sender][mType].length; j++){\r\n            if (materials[msg.sender][mType][j].name==name){\r\n                    materials[msg.sender][mType][j]=materials[msg.sender][mType] [materials[msg.sender][mType].length-1];\r\n                    materials[msg.sender][mType].pop();\r\n            }\r\n        }\r\n        \r\n        for(uint256 i =0; i< materialsName[msg.sender].length;i++){\r\n            if(materialsName[msg.sender][i]== name){\r\n            materialsName[msg.sender][i]=materialsName[msg.sender][materialsName[msg.sender].length-1];\r\n            materialsName[msg.sender].pop();\r\n            break;\r\n            }\r\n        }\r\n        for (uint i = 0; i < makerPrinters[msg.sender].length; i++) {\r\n            if(printers[msg.sender][makerPrinters[msg.sender][i]].mountedMaterial.name == name){\r\n                printers[msg.sender][makerPrinters[msg.sender][i]].mountedMaterial = NONE;\r\n            }\r\n        }\r\n    }\r\n\r\n    function mountMaterial(bytes32 name, MaterialType mType, uint256 printer)\r\n    public payable{\r\n        require(Iuser.isMaker(msg.sender) == true, \"Only Maker can delete Materials.\");\r\n        require(checkMaterial(name) == true, \"No material with this name\");\r\n        \r\n        for(uint j=0; j < materials[msg.sender][mType].length; j++){\r\n            if (materials[msg.sender][mType][j].name==name){\r\n                printers[msg.sender][makerPrinters [msg.sender][printer]].mountedMaterial = materials[msg.sender][mType][j];\r\n            }       \r\n\r\n        }\r\n    }\r\n\r\n    function RemovePrinter(uint256 index)\r\n    public payable{\r\n        require( Iuser.isPlayer(msg.sender) == true, \"Player not in the system.\");\r\n        require( Iuser.isMaker(msg.sender) == true, \"Only Maker can get their Printers.\");\r\n        makerPrinters[msg.sender][index]=makerPrinters[msg.sender][makerPrinters[msg.sender].length -1];\r\n        makerPrinters[msg.sender].pop();\r\n    }\r\n\r\n}",
  "sourcePath": "C:\\Users\\giova\\OneDrive\\Desktop\\Desk\\tirocinio\\prova\\smart-contract\\contracts\\1_OnBoarding\\OnBoarding.sol",
  "compiler": {
    "name": "solc",
    "version": "0.8.7+commit.e28d00a7.Emscripten.clang"
  },
  "schemaVersion": "3.4.3",
  "updatedAt": "2022-06-24T08:03:43.633Z",
  "networkType": "ethereum",
  "devdoc": {
    "kind": "dev",
    "methods": {},
    "version": 1
  },
  "userdoc": {
    "kind": "user",
    "methods": {},
    "version": 1
  }
}